{
	"TimeLockStakingDAPP/src/contracts/ProfileCreation.sol": {
		"ProfileCreation": {
			"abi": [
				{
					"anonymous": false,
					"inputs": [
						{
							"indexed": true,
							"internalType": "address",
							"name": "user",
							"type": "address"
						},
						{
							"indexed": false,
							"internalType": "string",
							"name": "name",
							"type": "string"
						},
						{
							"indexed": false,
							"internalType": "string",
							"name": "email",
							"type": "string"
						},
						{
							"indexed": false,
							"internalType": "string",
							"name": "pictureUrl",
							"type": "string"
						}
					],
					"name": "ProfileCreated",
					"type": "event"
				},
				{
					"inputs": [
						{
							"internalType": "string",
							"name": "_name",
							"type": "string"
						},
						{
							"internalType": "string",
							"name": "_email",
							"type": "string"
						},
						{
							"internalType": "string",
							"name": "_pictureUrl",
							"type": "string"
						}
					],
					"name": "createProfile",
					"outputs": [],
					"stateMutability": "nonpayable",
					"type": "function"
				},
				{
					"inputs": [
						{
							"internalType": "address",
							"name": "",
							"type": "address"
						}
					],
					"name": "userInfos",
					"outputs": [
						{
							"internalType": "string",
							"name": "name",
							"type": "string"
						},
						{
							"internalType": "string",
							"name": "email",
							"type": "string"
						},
						{
							"internalType": "string",
							"name": "pictureUrl",
							"type": "string"
						}
					],
					"stateMutability": "view",
					"type": "function"
				},
				{
					"inputs": [],
					"name": "viewProfile",
					"outputs": [
						{
							"internalType": "string",
							"name": "name",
							"type": "string"
						},
						{
							"internalType": "string",
							"name": "email",
							"type": "string"
						},
						{
							"internalType": "string",
							"name": "pictureUrl",
							"type": "string"
						}
					],
					"stateMutability": "view",
					"type": "function"
				}
			],
			"devdoc": {
				"details": "A smart contract for creating and viewing user profiles.",
				"kind": "dev",
				"methods": {
					"createProfile(string,string,string)": {
						"details": "The createProfile function allows a user to create a new profile by providing a name, email, and picture URL.       The function checks that each of these fields is not empty and that the user does not already have a profile.       The user's profile information is then stored in the userInfos mapping and a ProfileCreated event is emitted.",
						"params": {
							"_email": "Email of the user",
							"_name": "Name of the user",
							"_pictureUrl": "URL of the user's profile picture"
						}
					},
					"viewProfile()": {
						"details": "The viewProfile function allows anyone to view a user's profile information by calling the function with the user's Ethereum address as an argument.       The function checks that a profile exists for the user and returns their name, email, and picture URL.",
						"returns": {
							"email": "Email of the user",
							"name": "Name of the user",
							"pictureUrl": "URL of the user's profile picture"
						}
					}
				},
				"title": "ProfileCreation",
				"version": 1
			},
			"evm": {
				"assembly": "    /* \"TimeLockStakingDAPP/src/contracts/ProfileCreation.sol\":157:2369  contract ProfileCreation {... */\n  mstore(0x40, 0x80)\n  callvalue\n  dup1\n  iszero\n  tag_1\n  jumpi\n  0x00\n  dup1\n  revert\ntag_1:\n  pop\n  dataSize(sub_0)\n  dup1\n  dataOffset(sub_0)\n  0x00\n  codecopy\n  0x00\n  return\nstop\n\nsub_0: assembly {\n        /* \"TimeLockStakingDAPP/src/contracts/ProfileCreation.sol\":157:2369  contract ProfileCreation {... */\n      mstore(0x40, 0x80)\n      callvalue\n      dup1\n      iszero\n      tag_1\n      jumpi\n      0x00\n      dup1\n      revert\n    tag_1:\n      pop\n      jumpi(tag_2, lt(calldatasize, 0x04))\n      shr(0xe0, calldataload(0x00))\n      dup1\n      0x43b0215f\n      eq\n      tag_3\n      jumpi\n      dup1\n      0x9841c82c\n      eq\n      tag_4\n      jumpi\n      dup1\n      0xdbd638f6\n      eq\n      tag_5\n      jumpi\n    tag_2:\n      0x00\n      dup1\n      revert\n        /* \"TimeLockStakingDAPP/src/contracts/ProfileCreation.sol\":287:332  mapping(address => UserInfo) public userInfos */\n    tag_3:\n      tag_6\n      0x04\n      dup1\n      calldatasize\n      sub\n      dup2\n      add\n      swap1\n      tag_7\n      swap2\n      swap1\n      tag_8\n      jump\t// in\n    tag_7:\n      tag_9\n      jump\t// in\n    tag_6:\n      mload(0x40)\n      tag_10\n      swap4\n      swap3\n      swap2\n      swap1\n      tag_11\n      jump\t// in\n    tag_10:\n      mload(0x40)\n      dup1\n      swap2\n      sub\n      swap1\n      return\n        /* \"TimeLockStakingDAPP/src/contracts/ProfileCreation.sol\":947:1582  function createProfile(string memory _name, string memory _email, string memory _pictureUrl) public {... */\n    tag_4:\n      tag_12\n      0x04\n      dup1\n      calldatasize\n      sub\n      dup2\n      add\n      swap1\n      tag_13\n      swap2\n      swap1\n      tag_14\n      jump\t// in\n    tag_13:\n      tag_15\n      jump\t// in\n    tag_12:\n      stop\n        /* \"TimeLockStakingDAPP/src/contracts/ProfileCreation.sol\":2011:2362  function viewProfile() external view returns (string memory name, string memory email, string memory pictureUrl) {... */\n    tag_5:\n      tag_16\n      tag_17\n      jump\t// in\n    tag_16:\n      mload(0x40)\n      tag_18\n      swap4\n      swap3\n      swap2\n      swap1\n      tag_11\n      jump\t// in\n    tag_18:\n      mload(0x40)\n      dup1\n      swap2\n      sub\n      swap1\n      return\n        /* \"TimeLockStakingDAPP/src/contracts/ProfileCreation.sol\":287:332  mapping(address => UserInfo) public userInfos */\n    tag_9:\n      mstore(0x20, 0x00)\n      dup1\n      0x00\n      mstore\n      keccak256(0x00, 0x40)\n      0x00\n      swap2\n      pop\n      swap1\n      pop\n      dup1\n      0x00\n      add\n      dup1\n      sload\n      tag_19\n      swap1\n      tag_20\n      jump\t// in\n    tag_19:\n      dup1\n      0x1f\n      add\n      0x20\n      dup1\n      swap2\n      div\n      mul\n      0x20\n      add\n      mload(0x40)\n      swap1\n      dup2\n      add\n      0x40\n      mstore\n      dup1\n      swap3\n      swap2\n      swap1\n      dup2\n      dup2\n      mstore\n      0x20\n      add\n      dup3\n      dup1\n      sload\n      tag_21\n      swap1\n      tag_20\n      jump\t// in\n    tag_21:\n      dup1\n      iszero\n      tag_22\n      jumpi\n      dup1\n      0x1f\n      lt\n      tag_23\n      jumpi\n      0x0100\n      dup1\n      dup4\n      sload\n      div\n      mul\n      dup4\n      mstore\n      swap2\n      0x20\n      add\n      swap2\n      jump(tag_22)\n    tag_23:\n      dup3\n      add\n      swap2\n      swap1\n      0x00\n      mstore\n      keccak256(0x00, 0x20)\n      swap1\n    tag_24:\n      dup2\n      sload\n      dup2\n      mstore\n      swap1\n      0x01\n      add\n      swap1\n      0x20\n      add\n      dup1\n      dup4\n      gt\n      tag_24\n      jumpi\n      dup3\n      swap1\n      sub\n      0x1f\n      and\n      dup3\n      add\n      swap2\n    tag_22:\n      pop\n      pop\n      pop\n      pop\n      pop\n      swap1\n      dup1\n      0x01\n      add\n      dup1\n      sload\n      tag_25\n      swap1\n      tag_20\n      jump\t// in\n    tag_25:\n      dup1\n      0x1f\n      add\n      0x20\n      dup1\n      swap2\n      div\n      mul\n      0x20\n      add\n      mload(0x40)\n      swap1\n      dup2\n      add\n      0x40\n      mstore\n      dup1\n      swap3\n      swap2\n      swap1\n      dup2\n      dup2\n      mstore\n      0x20\n      add\n      dup3\n      dup1\n      sload\n      tag_26\n      swap1\n      tag_20\n      jump\t// in\n    tag_26:\n      dup1\n      iszero\n      tag_27\n      jumpi\n      dup1\n      0x1f\n      lt\n      tag_28\n      jumpi\n      0x0100\n      dup1\n      dup4\n      sload\n      div\n      mul\n      dup4\n      mstore\n      swap2\n      0x20\n      add\n      swap2\n      jump(tag_27)\n    tag_28:\n      dup3\n      add\n      swap2\n      swap1\n      0x00\n      mstore\n      keccak256(0x00, 0x20)\n      swap1\n    tag_29:\n      dup2\n      sload\n      dup2\n      mstore\n      swap1\n      0x01\n      add\n      swap1\n      0x20\n      add\n      dup1\n      dup4\n      gt\n      tag_29\n      jumpi\n      dup3\n      swap1\n      sub\n      0x1f\n      and\n      dup3\n      add\n      swap2\n    tag_27:\n      pop\n      pop\n      pop\n      pop\n      pop\n      swap1\n      dup1\n      0x02\n      add\n      dup1\n      sload\n      tag_30\n      swap1\n      tag_20\n      jump\t// in\n    tag_30:\n      dup1\n      0x1f\n      add\n      0x20\n      dup1\n      swap2\n      div\n      mul\n      0x20\n      add\n      mload(0x40)\n      swap1\n      dup2\n      add\n      0x40\n      mstore\n      dup1\n      swap3\n      swap2\n      swap1\n      dup2\n      dup2\n      mstore\n      0x20\n      add\n      dup3\n      dup1\n      sload\n      tag_31\n      swap1\n      tag_20\n      jump\t// in\n    tag_31:\n      dup1\n      iszero\n      tag_32\n      jumpi\n      dup1\n      0x1f\n      lt\n      tag_33\n      jumpi\n      0x0100\n      dup1\n      dup4\n      sload\n      div\n      mul\n      dup4\n      mstore\n      swap2\n      0x20\n      add\n      swap2\n      jump(tag_32)\n    tag_33:\n      dup3\n      add\n      swap2\n      swap1\n      0x00\n      mstore\n      keccak256(0x00, 0x20)\n      swap1\n    tag_34:\n      dup2\n      sload\n      dup2\n      mstore\n      swap1\n      0x01\n      add\n      swap1\n      0x20\n      add\n      dup1\n      dup4\n      gt\n      tag_34\n      jumpi\n      dup3\n      swap1\n      sub\n      0x1f\n      and\n      dup3\n      add\n      swap2\n    tag_32:\n      pop\n      pop\n      pop\n      pop\n      pop\n      swap1\n      pop\n      dup4\n      jump\t// out\n        /* \"TimeLockStakingDAPP/src/contracts/ProfileCreation.sol\":947:1582  function createProfile(string memory _name, string memory _email, string memory _pictureUrl) public {... */\n    tag_15:\n        /* \"TimeLockStakingDAPP/src/contracts/ProfileCreation.sol\":1087:1088  0 */\n      0x00\n        /* \"TimeLockStakingDAPP/src/contracts/ProfileCreation.sol\":1071:1076  _name */\n      dup4\n        /* \"TimeLockStakingDAPP/src/contracts/ProfileCreation.sol\":1065:1084  bytes(_name).length */\n      mload\n        /* \"TimeLockStakingDAPP/src/contracts/ProfileCreation.sol\":1065:1088  bytes(_name).length > 0 */\n      gt\n        /* \"TimeLockStakingDAPP/src/contracts/ProfileCreation.sol\":1057:1113  require(bytes(_name).length > 0, \"Name cannot be empty\") */\n      tag_36\n      jumpi\n      mload(0x40)\n      0x08c379a000000000000000000000000000000000000000000000000000000000\n      dup2\n      mstore\n      0x04\n      add\n      tag_37\n      swap1\n      tag_38\n      jump\t// in\n    tag_37:\n      mload(0x40)\n      dup1\n      swap2\n      sub\n      swap1\n      revert\n    tag_36:\n        /* \"TimeLockStakingDAPP/src/contracts/ProfileCreation.sol\":1154:1155  0 */\n      0x00\n        /* \"TimeLockStakingDAPP/src/contracts/ProfileCreation.sol\":1137:1143  _email */\n      dup3\n        /* \"TimeLockStakingDAPP/src/contracts/ProfileCreation.sol\":1131:1151  bytes(_email).length */\n      mload\n        /* \"TimeLockStakingDAPP/src/contracts/ProfileCreation.sol\":1131:1155  bytes(_email).length > 0 */\n      gt\n        /* \"TimeLockStakingDAPP/src/contracts/ProfileCreation.sol\":1123:1181  require(bytes(_email).length > 0, \"Email cannot be empty\") */\n      tag_39\n      jumpi\n      mload(0x40)\n      0x08c379a000000000000000000000000000000000000000000000000000000000\n      dup2\n      mstore\n      0x04\n      add\n      tag_40\n      swap1\n      tag_41\n      jump\t// in\n    tag_40:\n      mload(0x40)\n      dup1\n      swap2\n      sub\n      swap1\n      revert\n    tag_39:\n        /* \"TimeLockStakingDAPP/src/contracts/ProfileCreation.sol\":1227:1228  0 */\n      0x00\n        /* \"TimeLockStakingDAPP/src/contracts/ProfileCreation.sol\":1205:1216  _pictureUrl */\n      dup2\n        /* \"TimeLockStakingDAPP/src/contracts/ProfileCreation.sol\":1199:1224  bytes(_pictureUrl).length */\n      mload\n        /* \"TimeLockStakingDAPP/src/contracts/ProfileCreation.sol\":1199:1228  bytes(_pictureUrl).length > 0 */\n      gt\n        /* \"TimeLockStakingDAPP/src/contracts/ProfileCreation.sol\":1191:1260  require(bytes(_pictureUrl).length > 0, \"Picture URL cannot be empty\") */\n      tag_42\n      jumpi\n      mload(0x40)\n      0x08c379a000000000000000000000000000000000000000000000000000000000\n      dup2\n      mstore\n      0x04\n      add\n      tag_43\n      swap1\n      tag_44\n      jump\t// in\n    tag_43:\n      mload(0x40)\n      dup1\n      swap2\n      sub\n      swap1\n      revert\n    tag_42:\n        /* \"TimeLockStakingDAPP/src/contracts/ProfileCreation.sol\":1323:1324  0 */\n      0x00\n        /* \"TimeLockStakingDAPP/src/contracts/ProfileCreation.sol\":1285:1294  userInfos */\n      dup1\n        /* \"TimeLockStakingDAPP/src/contracts/ProfileCreation.sol\":1285:1306  userInfos[msg.sender] */\n      0x00\n        /* \"TimeLockStakingDAPP/src/contracts/ProfileCreation.sol\":1295:1305  msg.sender */\n      caller\n        /* \"TimeLockStakingDAPP/src/contracts/ProfileCreation.sol\":1285:1306  userInfos[msg.sender] */\n      0xffffffffffffffffffffffffffffffffffffffff\n      and\n      0xffffffffffffffffffffffffffffffffffffffff\n      and\n      dup2\n      mstore\n      0x20\n      add\n      swap1\n      dup2\n      mstore\n      0x20\n      add\n      0x00\n      keccak256\n        /* \"TimeLockStakingDAPP/src/contracts/ProfileCreation.sol\":1285:1311  userInfos[msg.sender].name */\n      0x00\n      add\n        /* \"TimeLockStakingDAPP/src/contracts/ProfileCreation.sol\":1279:1319  bytes(userInfos[msg.sender].name).length */\n      dup1\n      sload\n      tag_45\n      swap1\n      tag_20\n      jump\t// in\n    tag_45:\n      swap1\n      pop\n        /* \"TimeLockStakingDAPP/src/contracts/ProfileCreation.sol\":1279:1324  bytes(userInfos[msg.sender].name).length == 0 */\n      eq\n        /* \"TimeLockStakingDAPP/src/contracts/ProfileCreation.sol\":1271:1361  require(bytes(userInfos[msg.sender].name).length == 0, \"Profile already exists for user!\") */\n      tag_46\n      jumpi\n      mload(0x40)\n      0x08c379a000000000000000000000000000000000000000000000000000000000\n      dup2\n      mstore\n      0x04\n      add\n      tag_47\n      swap1\n      tag_48\n      jump\t// in\n    tag_47:\n      mload(0x40)\n      dup1\n      swap2\n      sub\n      swap1\n      revert\n    tag_46:\n        /* \"TimeLockStakingDAPP/src/contracts/ProfileCreation.sol\":1396:1505  UserInfo({... */\n      mload(0x40)\n      dup1\n      0x60\n      add\n      0x40\n      mstore\n      dup1\n        /* \"TimeLockStakingDAPP/src/contracts/ProfileCreation.sol\":1425:1430  _name */\n      dup5\n        /* \"TimeLockStakingDAPP/src/contracts/ProfileCreation.sol\":1396:1505  UserInfo({... */\n      dup2\n      mstore\n      0x20\n      add\n        /* \"TimeLockStakingDAPP/src/contracts/ProfileCreation.sol\":1451:1457  _email */\n      dup4\n        /* \"TimeLockStakingDAPP/src/contracts/ProfileCreation.sol\":1396:1505  UserInfo({... */\n      dup2\n      mstore\n      0x20\n      add\n        /* \"TimeLockStakingDAPP/src/contracts/ProfileCreation.sol\":1483:1494  _pictureUrl */\n      dup3\n        /* \"TimeLockStakingDAPP/src/contracts/ProfileCreation.sol\":1396:1505  UserInfo({... */\n      dup2\n      mstore\n      pop\n        /* \"TimeLockStakingDAPP/src/contracts/ProfileCreation.sol\":1372:1381  userInfos */\n      0x00\n        /* \"TimeLockStakingDAPP/src/contracts/ProfileCreation.sol\":1372:1393  userInfos[msg.sender] */\n      dup1\n        /* \"TimeLockStakingDAPP/src/contracts/ProfileCreation.sol\":1382:1392  msg.sender */\n      caller\n        /* \"TimeLockStakingDAPP/src/contracts/ProfileCreation.sol\":1372:1393  userInfos[msg.sender] */\n      0xffffffffffffffffffffffffffffffffffffffff\n      and\n      0xffffffffffffffffffffffffffffffffffffffff\n      and\n      dup2\n      mstore\n      0x20\n      add\n      swap1\n      dup2\n      mstore\n      0x20\n      add\n      0x00\n      keccak256\n        /* \"TimeLockStakingDAPP/src/contracts/ProfileCreation.sol\":1372:1505  userInfos[msg.sender] = UserInfo({... */\n      0x00\n      dup3\n      add\n      mload\n      dup2\n      0x00\n      add\n      swap1\n      dup2\n      tag_49\n      swap2\n      swap1\n      tag_50\n      jump\t// in\n    tag_49:\n      pop\n      0x20\n      dup3\n      add\n      mload\n      dup2\n      0x01\n      add\n      swap1\n      dup2\n      tag_51\n      swap2\n      swap1\n      tag_50\n      jump\t// in\n    tag_51:\n      pop\n      0x40\n      dup3\n      add\n      mload\n      dup2\n      0x02\n      add\n      swap1\n      dup2\n      tag_52\n      swap2\n      swap1\n      tag_50\n      jump\t// in\n    tag_52:\n      pop\n      swap1\n      pop\n      pop\n        /* \"TimeLockStakingDAPP/src/contracts/ProfileCreation.sol\":1536:1546  msg.sender */\n      caller\n        /* \"TimeLockStakingDAPP/src/contracts/ProfileCreation.sol\":1521:1575  ProfileCreated(msg.sender, _name, _email, _pictureUrl) */\n      0xffffffffffffffffffffffffffffffffffffffff\n      and\n      0x77c378673324822ad159b021c3ce202d7676946ff3967162024b660a493e64b3\n        /* \"TimeLockStakingDAPP/src/contracts/ProfileCreation.sol\":1548:1553  _name */\n      dup5\n        /* \"TimeLockStakingDAPP/src/contracts/ProfileCreation.sol\":1555:1561  _email */\n      dup5\n        /* \"TimeLockStakingDAPP/src/contracts/ProfileCreation.sol\":1563:1574  _pictureUrl */\n      dup5\n        /* \"TimeLockStakingDAPP/src/contracts/ProfileCreation.sol\":1521:1575  ProfileCreated(msg.sender, _name, _email, _pictureUrl) */\n      mload(0x40)\n      tag_53\n      swap4\n      swap3\n      swap2\n      swap1\n      tag_11\n      jump\t// in\n    tag_53:\n      mload(0x40)\n      dup1\n      swap2\n      sub\n      swap1\n      log2\n        /* \"TimeLockStakingDAPP/src/contracts/ProfileCreation.sol\":947:1582  function createProfile(string memory _name, string memory _email, string memory _pictureUrl) public {... */\n      pop\n      pop\n      pop\n      jump\t// out\n        /* \"TimeLockStakingDAPP/src/contracts/ProfileCreation.sol\":2011:2362  function viewProfile() external view returns (string memory name, string memory email, string memory pictureUrl) {... */\n    tag_17:\n        /* \"TimeLockStakingDAPP/src/contracts/ProfileCreation.sol\":2057:2075  string memory name */\n      0x60\n        /* \"TimeLockStakingDAPP/src/contracts/ProfileCreation.sol\":2077:2096  string memory email */\n      dup1\n        /* \"TimeLockStakingDAPP/src/contracts/ProfileCreation.sol\":2098:2122  string memory pictureUrl */\n      0x60\n        /* \"TimeLockStakingDAPP/src/contracts/ProfileCreation.sol\":2185:2186  0 */\n      0x00\n        /* \"TimeLockStakingDAPP/src/contracts/ProfileCreation.sol\":2148:2157  userInfos */\n      dup1\n        /* \"TimeLockStakingDAPP/src/contracts/ProfileCreation.sol\":2148:2169  userInfos[msg.sender] */\n      0x00\n        /* \"TimeLockStakingDAPP/src/contracts/ProfileCreation.sol\":2158:2168  msg.sender */\n      caller\n        /* \"TimeLockStakingDAPP/src/contracts/ProfileCreation.sol\":2148:2169  userInfos[msg.sender] */\n      0xffffffffffffffffffffffffffffffffffffffff\n      and\n      0xffffffffffffffffffffffffffffffffffffffff\n      and\n      dup2\n      mstore\n      0x20\n      add\n      swap1\n      dup2\n      mstore\n      0x20\n      add\n      0x00\n      keccak256\n        /* \"TimeLockStakingDAPP/src/contracts/ProfileCreation.sol\":2148:2174  userInfos[msg.sender].name */\n      0x00\n      add\n        /* \"TimeLockStakingDAPP/src/contracts/ProfileCreation.sol\":2142:2182  bytes(userInfos[msg.sender].name).length */\n      dup1\n      sload\n      tag_55\n      swap1\n      tag_20\n      jump\t// in\n    tag_55:\n      swap1\n      pop\n        /* \"TimeLockStakingDAPP/src/contracts/ProfileCreation.sol\":2142:2186  bytes(userInfos[msg.sender].name).length > 0 */\n      gt\n        /* \"TimeLockStakingDAPP/src/contracts/ProfileCreation.sol\":2134:2227  require(bytes(userInfos[msg.sender].name).length > 0, \"Profile does not exist for the user!\") */\n      tag_56\n      jumpi\n      mload(0x40)\n      0x08c379a000000000000000000000000000000000000000000000000000000000\n      dup2\n      mstore\n      0x04\n      add\n      tag_57\n      swap1\n      tag_58\n      jump\t// in\n    tag_57:\n      mload(0x40)\n      dup1\n      swap2\n      sub\n      swap1\n      revert\n    tag_56:\n        /* \"TimeLockStakingDAPP/src/contracts/ProfileCreation.sol\":2237:2262  UserInfo storage userInfo */\n      0x00\n        /* \"TimeLockStakingDAPP/src/contracts/ProfileCreation.sol\":2265:2274  userInfos */\n      dup1\n        /* \"TimeLockStakingDAPP/src/contracts/ProfileCreation.sol\":2265:2286  userInfos[msg.sender] */\n      0x00\n        /* \"TimeLockStakingDAPP/src/contracts/ProfileCreation.sol\":2275:2285  msg.sender */\n      caller\n        /* \"TimeLockStakingDAPP/src/contracts/ProfileCreation.sol\":2265:2286  userInfos[msg.sender] */\n      0xffffffffffffffffffffffffffffffffffffffff\n      and\n      0xffffffffffffffffffffffffffffffffffffffff\n      and\n      dup2\n      mstore\n      0x20\n      add\n      swap1\n      dup2\n      mstore\n      0x20\n      add\n      0x00\n      keccak256\n        /* \"TimeLockStakingDAPP/src/contracts/ProfileCreation.sol\":2237:2286  UserInfo storage userInfo = userInfos[msg.sender] */\n      swap1\n      pop\n        /* \"TimeLockStakingDAPP/src/contracts/ProfileCreation.sol\":2304:2312  userInfo */\n      dup1\n        /* \"TimeLockStakingDAPP/src/contracts/ProfileCreation.sol\":2304:2317  userInfo.name */\n      0x00\n      add\n        /* \"TimeLockStakingDAPP/src/contracts/ProfileCreation.sol\":2319:2327  userInfo */\n      dup2\n        /* \"TimeLockStakingDAPP/src/contracts/ProfileCreation.sol\":2319:2333  userInfo.email */\n      0x01\n      add\n        /* \"TimeLockStakingDAPP/src/contracts/ProfileCreation.sol\":2335:2343  userInfo */\n      dup3\n        /* \"TimeLockStakingDAPP/src/contracts/ProfileCreation.sol\":2335:2354  userInfo.pictureUrl */\n      0x02\n      add\n        /* \"TimeLockStakingDAPP/src/contracts/ProfileCreation.sol\":2296:2355  return (userInfo.name, userInfo.email, userInfo.pictureUrl) */\n      dup3\n      dup1\n      sload\n      tag_59\n      swap1\n      tag_20\n      jump\t// in\n    tag_59:\n      dup1\n      0x1f\n      add\n      0x20\n      dup1\n      swap2\n      div\n      mul\n      0x20\n      add\n      mload(0x40)\n      swap1\n      dup2\n      add\n      0x40\n      mstore\n      dup1\n      swap3\n      swap2\n      swap1\n      dup2\n      dup2\n      mstore\n      0x20\n      add\n      dup3\n      dup1\n      sload\n      tag_60\n      swap1\n      tag_20\n      jump\t// in\n    tag_60:\n      dup1\n      iszero\n      tag_61\n      jumpi\n      dup1\n      0x1f\n      lt\n      tag_62\n      jumpi\n      0x0100\n      dup1\n      dup4\n      sload\n      div\n      mul\n      dup4\n      mstore\n      swap2\n      0x20\n      add\n      swap2\n      jump(tag_61)\n    tag_62:\n      dup3\n      add\n      swap2\n      swap1\n      0x00\n      mstore\n      keccak256(0x00, 0x20)\n      swap1\n    tag_63:\n      dup2\n      sload\n      dup2\n      mstore\n      swap1\n      0x01\n      add\n      swap1\n      0x20\n      add\n      dup1\n      dup4\n      gt\n      tag_63\n      jumpi\n      dup3\n      swap1\n      sub\n      0x1f\n      and\n      dup3\n      add\n      swap2\n    tag_61:\n      pop\n      pop\n      pop\n      pop\n      pop\n      swap3\n      pop\n      dup2\n      dup1\n      sload\n      tag_64\n      swap1\n      tag_20\n      jump\t// in\n    tag_64:\n      dup1\n      0x1f\n      add\n      0x20\n      dup1\n      swap2\n      div\n      mul\n      0x20\n      add\n      mload(0x40)\n      swap1\n      dup2\n      add\n      0x40\n      mstore\n      dup1\n      swap3\n      swap2\n      swap1\n      dup2\n      dup2\n      mstore\n      0x20\n      add\n      dup3\n      dup1\n      sload\n      tag_65\n      swap1\n      tag_20\n      jump\t// in\n    tag_65:\n      dup1\n      iszero\n      tag_66\n      jumpi\n      dup1\n      0x1f\n      lt\n      tag_67\n      jumpi\n      0x0100\n      dup1\n      dup4\n      sload\n      div\n      mul\n      dup4\n      mstore\n      swap2\n      0x20\n      add\n      swap2\n      jump(tag_66)\n    tag_67:\n      dup3\n      add\n      swap2\n      swap1\n      0x00\n      mstore\n      keccak256(0x00, 0x20)\n      swap1\n    tag_68:\n      dup2\n      sload\n      dup2\n      mstore\n      swap1\n      0x01\n      add\n      swap1\n      0x20\n      add\n      dup1\n      dup4\n      gt\n      tag_68\n      jumpi\n      dup3\n      swap1\n      sub\n      0x1f\n      and\n      dup3\n      add\n      swap2\n    tag_66:\n      pop\n      pop\n      pop\n      pop\n      pop\n      swap2\n      pop\n      dup1\n      dup1\n      sload\n      tag_69\n      swap1\n      tag_20\n      jump\t// in\n    tag_69:\n      dup1\n      0x1f\n      add\n      0x20\n      dup1\n      swap2\n      div\n      mul\n      0x20\n      add\n      mload(0x40)\n      swap1\n      dup2\n      add\n      0x40\n      mstore\n      dup1\n      swap3\n      swap2\n      swap1\n      dup2\n      dup2\n      mstore\n      0x20\n      add\n      dup3\n      dup1\n      sload\n      tag_70\n      swap1\n      tag_20\n      jump\t// in\n    tag_70:\n      dup1\n      iszero\n      tag_71\n      jumpi\n      dup1\n      0x1f\n      lt\n      tag_72\n      jumpi\n      0x0100\n      dup1\n      dup4\n      sload\n      div\n      mul\n      dup4\n      mstore\n      swap2\n      0x20\n      add\n      swap2\n      jump(tag_71)\n    tag_72:\n      dup3\n      add\n      swap2\n      swap1\n      0x00\n      mstore\n      keccak256(0x00, 0x20)\n      swap1\n    tag_73:\n      dup2\n      sload\n      dup2\n      mstore\n      swap1\n      0x01\n      add\n      swap1\n      0x20\n      add\n      dup1\n      dup4\n      gt\n      tag_73\n      jumpi\n      dup3\n      swap1\n      sub\n      0x1f\n      and\n      dup3\n      add\n      swap2\n    tag_71:\n      pop\n      pop\n      pop\n      pop\n      pop\n      swap1\n      pop\n      swap4\n      pop\n      swap4\n      pop\n      swap4\n      pop\n      pop\n        /* \"TimeLockStakingDAPP/src/contracts/ProfileCreation.sol\":2011:2362  function viewProfile() external view returns (string memory name, string memory email, string memory pictureUrl) {... */\n      swap1\n      swap2\n      swap3\n      jump\t// out\n        /* \"#utility.yul\":7:82   */\n    tag_74:\n        /* \"#utility.yul\":40:46   */\n      0x00\n        /* \"#utility.yul\":73:75   */\n      0x40\n        /* \"#utility.yul\":67:76   */\n      mload\n        /* \"#utility.yul\":57:76   */\n      swap1\n      pop\n        /* \"#utility.yul\":7:82   */\n      swap1\n      jump\t// out\n        /* \"#utility.yul\":88:205   */\n    tag_75:\n        /* \"#utility.yul\":197:198   */\n      0x00\n        /* \"#utility.yul\":194:195   */\n      dup1\n        /* \"#utility.yul\":187:199   */\n      revert\n        /* \"#utility.yul\":211:328   */\n    tag_76:\n        /* \"#utility.yul\":320:321   */\n      0x00\n        /* \"#utility.yul\":317:318   */\n      dup1\n        /* \"#utility.yul\":310:322   */\n      revert\n        /* \"#utility.yul\":334:460   */\n    tag_77:\n        /* \"#utility.yul\":371:378   */\n      0x00\n        /* \"#utility.yul\":411:453   */\n      0xffffffffffffffffffffffffffffffffffffffff\n        /* \"#utility.yul\":404:409   */\n      dup3\n        /* \"#utility.yul\":400:454   */\n      and\n        /* \"#utility.yul\":389:454   */\n      swap1\n      pop\n        /* \"#utility.yul\":334:460   */\n      swap2\n      swap1\n      pop\n      jump\t// out\n        /* \"#utility.yul\":466:562   */\n    tag_78:\n        /* \"#utility.yul\":503:510   */\n      0x00\n        /* \"#utility.yul\":532:556   */\n      tag_128\n        /* \"#utility.yul\":550:555   */\n      dup3\n        /* \"#utility.yul\":532:556   */\n      tag_77\n      jump\t// in\n    tag_128:\n        /* \"#utility.yul\":521:556   */\n      swap1\n      pop\n        /* \"#utility.yul\":466:562   */\n      swap2\n      swap1\n      pop\n      jump\t// out\n        /* \"#utility.yul\":568:690   */\n    tag_79:\n        /* \"#utility.yul\":641:665   */\n      tag_130\n        /* \"#utility.yul\":659:664   */\n      dup2\n        /* \"#utility.yul\":641:665   */\n      tag_78\n      jump\t// in\n    tag_130:\n        /* \"#utility.yul\":634:639   */\n      dup2\n        /* \"#utility.yul\":631:666   */\n      eq\n        /* \"#utility.yul\":621:684   */\n      tag_131\n      jumpi\n        /* \"#utility.yul\":680:681   */\n      0x00\n        /* \"#utility.yul\":677:678   */\n      dup1\n        /* \"#utility.yul\":670:682   */\n      revert\n        /* \"#utility.yul\":621:684   */\n    tag_131:\n        /* \"#utility.yul\":568:690   */\n      pop\n      jump\t// out\n        /* \"#utility.yul\":696:835   */\n    tag_80:\n        /* \"#utility.yul\":742:747   */\n      0x00\n        /* \"#utility.yul\":780:786   */\n      dup2\n        /* \"#utility.yul\":767:787   */\n      calldataload\n        /* \"#utility.yul\":758:787   */\n      swap1\n      pop\n        /* \"#utility.yul\":796:829   */\n      tag_133\n        /* \"#utility.yul\":823:828   */\n      dup2\n        /* \"#utility.yul\":796:829   */\n      tag_79\n      jump\t// in\n    tag_133:\n        /* \"#utility.yul\":696:835   */\n      swap3\n      swap2\n      pop\n      pop\n      jump\t// out\n        /* \"#utility.yul\":841:1170   */\n    tag_8:\n        /* \"#utility.yul\":900:906   */\n      0x00\n        /* \"#utility.yul\":949:951   */\n      0x20\n        /* \"#utility.yul\":937:946   */\n      dup3\n        /* \"#utility.yul\":928:935   */\n      dup5\n        /* \"#utility.yul\":924:947   */\n      sub\n        /* \"#utility.yul\":920:952   */\n      slt\n        /* \"#utility.yul\":917:1036   */\n      iszero\n      tag_135\n      jumpi\n        /* \"#utility.yul\":955:1034   */\n      tag_136\n      tag_75\n      jump\t// in\n    tag_136:\n        /* \"#utility.yul\":917:1036   */\n    tag_135:\n        /* \"#utility.yul\":1075:1076   */\n      0x00\n        /* \"#utility.yul\":1100:1153   */\n      tag_137\n        /* \"#utility.yul\":1145:1152   */\n      dup5\n        /* \"#utility.yul\":1136:1142   */\n      dup3\n        /* \"#utility.yul\":1125:1134   */\n      dup6\n        /* \"#utility.yul\":1121:1143   */\n      add\n        /* \"#utility.yul\":1100:1153   */\n      tag_80\n      jump\t// in\n    tag_137:\n        /* \"#utility.yul\":1090:1153   */\n      swap2\n      pop\n        /* \"#utility.yul\":1046:1163   */\n      pop\n        /* \"#utility.yul\":841:1170   */\n      swap3\n      swap2\n      pop\n      pop\n      jump\t// out\n        /* \"#utility.yul\":1176:1275   */\n    tag_81:\n        /* \"#utility.yul\":1228:1234   */\n      0x00\n        /* \"#utility.yul\":1262:1267   */\n      dup2\n        /* \"#utility.yul\":1256:1268   */\n      mload\n        /* \"#utility.yul\":1246:1268   */\n      swap1\n      pop\n        /* \"#utility.yul\":1176:1275   */\n      swap2\n      swap1\n      pop\n      jump\t// out\n        /* \"#utility.yul\":1281:1450   */\n    tag_82:\n        /* \"#utility.yul\":1365:1376   */\n      0x00\n        /* \"#utility.yul\":1399:1405   */\n      dup3\n        /* \"#utility.yul\":1394:1397   */\n      dup3\n        /* \"#utility.yul\":1387:1406   */\n      mstore\n        /* \"#utility.yul\":1439:1443   */\n      0x20\n        /* \"#utility.yul\":1434:1437   */\n      dup3\n        /* \"#utility.yul\":1430:1444   */\n      add\n        /* \"#utility.yul\":1415:1444   */\n      swap1\n      pop\n        /* \"#utility.yul\":1281:1450   */\n      swap3\n      swap2\n      pop\n      pop\n      jump\t// out\n        /* \"#utility.yul\":1456:1702   */\n    tag_83:\n        /* \"#utility.yul\":1537:1538   */\n      0x00\n        /* \"#utility.yul\":1547:1660   */\n    tag_141:\n        /* \"#utility.yul\":1561:1567   */\n      dup4\n        /* \"#utility.yul\":1558:1559   */\n      dup2\n        /* \"#utility.yul\":1555:1568   */\n      lt\n        /* \"#utility.yul\":1547:1660   */\n      iszero\n      tag_143\n      jumpi\n        /* \"#utility.yul\":1646:1647   */\n      dup1\n        /* \"#utility.yul\":1641:1644   */\n      dup3\n        /* \"#utility.yul\":1637:1648   */\n      add\n        /* \"#utility.yul\":1631:1649   */\n      mload\n        /* \"#utility.yul\":1627:1628   */\n      dup2\n        /* \"#utility.yul\":1622:1625   */\n      dup5\n        /* \"#utility.yul\":1618:1629   */\n      add\n        /* \"#utility.yul\":1611:1650   */\n      mstore\n        /* \"#utility.yul\":1583:1585   */\n      0x20\n        /* \"#utility.yul\":1580:1581   */\n      dup2\n        /* \"#utility.yul\":1576:1586   */\n      add\n        /* \"#utility.yul\":1571:1586   */\n      swap1\n      pop\n        /* \"#utility.yul\":1547:1660   */\n      jump(tag_141)\n    tag_143:\n        /* \"#utility.yul\":1694:1695   */\n      0x00\n        /* \"#utility.yul\":1685:1691   */\n      dup5\n        /* \"#utility.yul\":1680:1683   */\n      dup5\n        /* \"#utility.yul\":1676:1692   */\n      add\n        /* \"#utility.yul\":1669:1696   */\n      mstore\n        /* \"#utility.yul\":1518:1702   */\n      pop\n        /* \"#utility.yul\":1456:1702   */\n      pop\n      pop\n      pop\n      jump\t// out\n        /* \"#utility.yul\":1708:1810   */\n    tag_84:\n        /* \"#utility.yul\":1749:1755   */\n      0x00\n        /* \"#utility.yul\":1800:1802   */\n      0x1f\n        /* \"#utility.yul\":1796:1803   */\n      not\n        /* \"#utility.yul\":1791:1793   */\n      0x1f\n        /* \"#utility.yul\":1784:1789   */\n      dup4\n        /* \"#utility.yul\":1780:1794   */\n      add\n        /* \"#utility.yul\":1776:1804   */\n      and\n        /* \"#utility.yul\":1766:1804   */\n      swap1\n      pop\n        /* \"#utility.yul\":1708:1810   */\n      swap2\n      swap1\n      pop\n      jump\t// out\n        /* \"#utility.yul\":1816:2193   */\n    tag_85:\n        /* \"#utility.yul\":1904:1907   */\n      0x00\n        /* \"#utility.yul\":1932:1971   */\n      tag_146\n        /* \"#utility.yul\":1965:1970   */\n      dup3\n        /* \"#utility.yul\":1932:1971   */\n      tag_81\n      jump\t// in\n    tag_146:\n        /* \"#utility.yul\":1987:2058   */\n      tag_147\n        /* \"#utility.yul\":2051:2057   */\n      dup2\n        /* \"#utility.yul\":2046:2049   */\n      dup6\n        /* \"#utility.yul\":1987:2058   */\n      tag_82\n      jump\t// in\n    tag_147:\n        /* \"#utility.yul\":1980:2058   */\n      swap4\n      pop\n        /* \"#utility.yul\":2067:2132   */\n      tag_148\n        /* \"#utility.yul\":2125:2131   */\n      dup2\n        /* \"#utility.yul\":2120:2123   */\n      dup6\n        /* \"#utility.yul\":2113:2117   */\n      0x20\n        /* \"#utility.yul\":2106:2111   */\n      dup7\n        /* \"#utility.yul\":2102:2118   */\n      add\n        /* \"#utility.yul\":2067:2132   */\n      tag_83\n      jump\t// in\n    tag_148:\n        /* \"#utility.yul\":2157:2186   */\n      tag_149\n        /* \"#utility.yul\":2179:2185   */\n      dup2\n        /* \"#utility.yul\":2157:2186   */\n      tag_84\n      jump\t// in\n    tag_149:\n        /* \"#utility.yul\":2152:2155   */\n      dup5\n        /* \"#utility.yul\":2148:2187   */\n      add\n        /* \"#utility.yul\":2141:2187   */\n      swap2\n      pop\n        /* \"#utility.yul\":1908:2193   */\n      pop\n        /* \"#utility.yul\":1816:2193   */\n      swap3\n      swap2\n      pop\n      pop\n      jump\t// out\n        /* \"#utility.yul\":2199:2914   */\n    tag_11:\n        /* \"#utility.yul\":2408:2412   */\n      0x00\n        /* \"#utility.yul\":2446:2448   */\n      0x60\n        /* \"#utility.yul\":2435:2444   */\n      dup3\n        /* \"#utility.yul\":2431:2449   */\n      add\n        /* \"#utility.yul\":2423:2449   */\n      swap1\n      pop\n        /* \"#utility.yul\":2495:2504   */\n      dup2\n        /* \"#utility.yul\":2489:2493   */\n      dup2\n        /* \"#utility.yul\":2485:2505   */\n      sub\n        /* \"#utility.yul\":2481:2482   */\n      0x00\n        /* \"#utility.yul\":2470:2479   */\n      dup4\n        /* \"#utility.yul\":2466:2483   */\n      add\n        /* \"#utility.yul\":2459:2506   */\n      mstore\n        /* \"#utility.yul\":2523:2601   */\n      tag_151\n        /* \"#utility.yul\":2596:2600   */\n      dup2\n        /* \"#utility.yul\":2587:2593   */\n      dup7\n        /* \"#utility.yul\":2523:2601   */\n      tag_85\n      jump\t// in\n    tag_151:\n        /* \"#utility.yul\":2515:2601   */\n      swap1\n      pop\n        /* \"#utility.yul\":2648:2657   */\n      dup2\n        /* \"#utility.yul\":2642:2646   */\n      dup2\n        /* \"#utility.yul\":2638:2658   */\n      sub\n        /* \"#utility.yul\":2633:2635   */\n      0x20\n        /* \"#utility.yul\":2622:2631   */\n      dup4\n        /* \"#utility.yul\":2618:2636   */\n      add\n        /* \"#utility.yul\":2611:2659   */\n      mstore\n        /* \"#utility.yul\":2676:2754   */\n      tag_152\n        /* \"#utility.yul\":2749:2753   */\n      dup2\n        /* \"#utility.yul\":2740:2746   */\n      dup6\n        /* \"#utility.yul\":2676:2754   */\n      tag_85\n      jump\t// in\n    tag_152:\n        /* \"#utility.yul\":2668:2754   */\n      swap1\n      pop\n        /* \"#utility.yul\":2801:2810   */\n      dup2\n        /* \"#utility.yul\":2795:2799   */\n      dup2\n        /* \"#utility.yul\":2791:2811   */\n      sub\n        /* \"#utility.yul\":2786:2788   */\n      0x40\n        /* \"#utility.yul\":2775:2784   */\n      dup4\n        /* \"#utility.yul\":2771:2789   */\n      add\n        /* \"#utility.yul\":2764:2812   */\n      mstore\n        /* \"#utility.yul\":2829:2907   */\n      tag_153\n        /* \"#utility.yul\":2902:2906   */\n      dup2\n        /* \"#utility.yul\":2893:2899   */\n      dup5\n        /* \"#utility.yul\":2829:2907   */\n      tag_85\n      jump\t// in\n    tag_153:\n        /* \"#utility.yul\":2821:2907   */\n      swap1\n      pop\n        /* \"#utility.yul\":2199:2914   */\n      swap5\n      swap4\n      pop\n      pop\n      pop\n      pop\n      jump\t// out\n        /* \"#utility.yul\":2920:3037   */\n    tag_86:\n        /* \"#utility.yul\":3029:3030   */\n      0x00\n        /* \"#utility.yul\":3026:3027   */\n      dup1\n        /* \"#utility.yul\":3019:3031   */\n      revert\n        /* \"#utility.yul\":3043:3160   */\n    tag_87:\n        /* \"#utility.yul\":3152:3153   */\n      0x00\n        /* \"#utility.yul\":3149:3150   */\n      dup1\n        /* \"#utility.yul\":3142:3154   */\n      revert\n        /* \"#utility.yul\":3166:3346   */\n    tag_88:\n        /* \"#utility.yul\":3214:3291   */\n      0x4e487b7100000000000000000000000000000000000000000000000000000000\n        /* \"#utility.yul\":3211:3212   */\n      0x00\n        /* \"#utility.yul\":3204:3292   */\n      mstore\n        /* \"#utility.yul\":3311:3315   */\n      0x41\n        /* \"#utility.yul\":3308:3309   */\n      0x04\n        /* \"#utility.yul\":3301:3316   */\n      mstore\n        /* \"#utility.yul\":3335:3339   */\n      0x24\n        /* \"#utility.yul\":3332:3333   */\n      0x00\n        /* \"#utility.yul\":3325:3340   */\n      revert\n        /* \"#utility.yul\":3352:3633   */\n    tag_89:\n        /* \"#utility.yul\":3435:3462   */\n      tag_158\n        /* \"#utility.yul\":3457:3461   */\n      dup3\n        /* \"#utility.yul\":3435:3462   */\n      tag_84\n      jump\t// in\n    tag_158:\n        /* \"#utility.yul\":3427:3433   */\n      dup2\n        /* \"#utility.yul\":3423:3463   */\n      add\n        /* \"#utility.yul\":3565:3571   */\n      dup2\n        /* \"#utility.yul\":3553:3563   */\n      dup2\n        /* \"#utility.yul\":3550:3572   */\n      lt\n        /* \"#utility.yul\":3529:3547   */\n      0xffffffffffffffff\n        /* \"#utility.yul\":3517:3527   */\n      dup3\n        /* \"#utility.yul\":3514:3548   */\n      gt\n        /* \"#utility.yul\":3511:3573   */\n      or\n        /* \"#utility.yul\":3508:3596   */\n      iszero\n      tag_159\n      jumpi\n        /* \"#utility.yul\":3576:3594   */\n      tag_160\n      tag_88\n      jump\t// in\n    tag_160:\n        /* \"#utility.yul\":3508:3596   */\n    tag_159:\n        /* \"#utility.yul\":3616:3626   */\n      dup1\n        /* \"#utility.yul\":3612:3614   */\n      0x40\n        /* \"#utility.yul\":3605:3627   */\n      mstore\n        /* \"#utility.yul\":3395:3633   */\n      pop\n        /* \"#utility.yul\":3352:3633   */\n      pop\n      pop\n      jump\t// out\n        /* \"#utility.yul\":3639:3768   */\n    tag_90:\n        /* \"#utility.yul\":3673:3679   */\n      0x00\n        /* \"#utility.yul\":3700:3720   */\n      tag_162\n      tag_74\n      jump\t// in\n    tag_162:\n        /* \"#utility.yul\":3690:3720   */\n      swap1\n      pop\n        /* \"#utility.yul\":3729:3762   */\n      tag_163\n        /* \"#utility.yul\":3757:3761   */\n      dup3\n        /* \"#utility.yul\":3749:3755   */\n      dup3\n        /* \"#utility.yul\":3729:3762   */\n      tag_89\n      jump\t// in\n    tag_163:\n        /* \"#utility.yul\":3639:3768   */\n      swap2\n      swap1\n      pop\n      jump\t// out\n        /* \"#utility.yul\":3774:4082   */\n    tag_91:\n        /* \"#utility.yul\":3836:3840   */\n      0x00\n        /* \"#utility.yul\":3926:3944   */\n      0xffffffffffffffff\n        /* \"#utility.yul\":3918:3924   */\n      dup3\n        /* \"#utility.yul\":3915:3945   */\n      gt\n        /* \"#utility.yul\":3912:3968   */\n      iszero\n      tag_165\n      jumpi\n        /* \"#utility.yul\":3948:3966   */\n      tag_166\n      tag_88\n      jump\t// in\n    tag_166:\n        /* \"#utility.yul\":3912:3968   */\n    tag_165:\n        /* \"#utility.yul\":3986:4015   */\n      tag_167\n        /* \"#utility.yul\":4008:4014   */\n      dup3\n        /* \"#utility.yul\":3986:4015   */\n      tag_84\n      jump\t// in\n    tag_167:\n        /* \"#utility.yul\":3978:4015   */\n      swap1\n      pop\n        /* \"#utility.yul\":4070:4074   */\n      0x20\n        /* \"#utility.yul\":4064:4068   */\n      dup2\n        /* \"#utility.yul\":4060:4075   */\n      add\n        /* \"#utility.yul\":4052:4075   */\n      swap1\n      pop\n        /* \"#utility.yul\":3774:4082   */\n      swap2\n      swap1\n      pop\n      jump\t// out\n        /* \"#utility.yul\":4088:4234   */\n    tag_92:\n        /* \"#utility.yul\":4185:4191   */\n      dup3\n        /* \"#utility.yul\":4180:4183   */\n      dup2\n        /* \"#utility.yul\":4175:4178   */\n      dup4\n        /* \"#utility.yul\":4162:4192   */\n      calldatacopy\n        /* \"#utility.yul\":4226:4227   */\n      0x00\n        /* \"#utility.yul\":4217:4223   */\n      dup4\n        /* \"#utility.yul\":4212:4215   */\n      dup4\n        /* \"#utility.yul\":4208:4224   */\n      add\n        /* \"#utility.yul\":4201:4228   */\n      mstore\n        /* \"#utility.yul\":4088:4234   */\n      pop\n      pop\n      pop\n      jump\t// out\n        /* \"#utility.yul\":4240:4665   */\n    tag_93:\n        /* \"#utility.yul\":4318:4323   */\n      0x00\n        /* \"#utility.yul\":4343:4409   */\n      tag_170\n        /* \"#utility.yul\":4359:4408   */\n      tag_171\n        /* \"#utility.yul\":4401:4407   */\n      dup5\n        /* \"#utility.yul\":4359:4408   */\n      tag_91\n      jump\t// in\n    tag_171:\n        /* \"#utility.yul\":4343:4409   */\n      tag_90\n      jump\t// in\n    tag_170:\n        /* \"#utility.yul\":4334:4409   */\n      swap1\n      pop\n        /* \"#utility.yul\":4432:4438   */\n      dup3\n        /* \"#utility.yul\":4425:4430   */\n      dup2\n        /* \"#utility.yul\":4418:4439   */\n      mstore\n        /* \"#utility.yul\":4470:4474   */\n      0x20\n        /* \"#utility.yul\":4463:4468   */\n      dup2\n        /* \"#utility.yul\":4459:4475   */\n      add\n        /* \"#utility.yul\":4508:4511   */\n      dup5\n        /* \"#utility.yul\":4499:4505   */\n      dup5\n        /* \"#utility.yul\":4494:4497   */\n      dup5\n        /* \"#utility.yul\":4490:4506   */\n      add\n        /* \"#utility.yul\":4487:4512   */\n      gt\n        /* \"#utility.yul\":4484:4596   */\n      iszero\n      tag_172\n      jumpi\n        /* \"#utility.yul\":4515:4594   */\n      tag_173\n      tag_87\n      jump\t// in\n    tag_173:\n        /* \"#utility.yul\":4484:4596   */\n    tag_172:\n        /* \"#utility.yul\":4605:4659   */\n      tag_174\n        /* \"#utility.yul\":4652:4658   */\n      dup5\n        /* \"#utility.yul\":4647:4650   */\n      dup3\n        /* \"#utility.yul\":4642:4645   */\n      dup6\n        /* \"#utility.yul\":4605:4659   */\n      tag_92\n      jump\t// in\n    tag_174:\n        /* \"#utility.yul\":4324:4665   */\n      pop\n        /* \"#utility.yul\":4240:4665   */\n      swap4\n      swap3\n      pop\n      pop\n      pop\n      jump\t// out\n        /* \"#utility.yul\":4685:5025   */\n    tag_94:\n        /* \"#utility.yul\":4741:4746   */\n      0x00\n        /* \"#utility.yul\":4790:4793   */\n      dup3\n        /* \"#utility.yul\":4783:4787   */\n      0x1f\n        /* \"#utility.yul\":4775:4781   */\n      dup4\n        /* \"#utility.yul\":4771:4788   */\n      add\n        /* \"#utility.yul\":4767:4794   */\n      slt\n        /* \"#utility.yul\":4757:4879   */\n      tag_176\n      jumpi\n        /* \"#utility.yul\":4798:4877   */\n      tag_177\n      tag_86\n      jump\t// in\n    tag_177:\n        /* \"#utility.yul\":4757:4879   */\n    tag_176:\n        /* \"#utility.yul\":4915:4921   */\n      dup2\n        /* \"#utility.yul\":4902:4922   */\n      calldataload\n        /* \"#utility.yul\":4940:5019   */\n      tag_178\n        /* \"#utility.yul\":5015:5018   */\n      dup5\n        /* \"#utility.yul\":5007:5013   */\n      dup3\n        /* \"#utility.yul\":5000:5004   */\n      0x20\n        /* \"#utility.yul\":4992:4998   */\n      dup7\n        /* \"#utility.yul\":4988:5005   */\n      add\n        /* \"#utility.yul\":4940:5019   */\n      tag_93\n      jump\t// in\n    tag_178:\n        /* \"#utility.yul\":4931:5019   */\n      swap2\n      pop\n        /* \"#utility.yul\":4747:5025   */\n      pop\n        /* \"#utility.yul\":4685:5025   */\n      swap3\n      swap2\n      pop\n      pop\n      jump\t// out\n        /* \"#utility.yul\":5031:6190   */\n    tag_14:\n        /* \"#utility.yul\":5138:5144   */\n      0x00\n        /* \"#utility.yul\":5146:5152   */\n      dup1\n        /* \"#utility.yul\":5154:5160   */\n      0x00\n        /* \"#utility.yul\":5203:5205   */\n      0x60\n        /* \"#utility.yul\":5191:5200   */\n      dup5\n        /* \"#utility.yul\":5182:5189   */\n      dup7\n        /* \"#utility.yul\":5178:5201   */\n      sub\n        /* \"#utility.yul\":5174:5206   */\n      slt\n        /* \"#utility.yul\":5171:5290   */\n      iszero\n      tag_180\n      jumpi\n        /* \"#utility.yul\":5209:5288   */\n      tag_181\n      tag_75\n      jump\t// in\n    tag_181:\n        /* \"#utility.yul\":5171:5290   */\n    tag_180:\n        /* \"#utility.yul\":5357:5358   */\n      0x00\n        /* \"#utility.yul\":5346:5355   */\n      dup5\n        /* \"#utility.yul\":5342:5359   */\n      add\n        /* \"#utility.yul\":5329:5360   */\n      calldataload\n        /* \"#utility.yul\":5387:5405   */\n      0xffffffffffffffff\n        /* \"#utility.yul\":5379:5385   */\n      dup2\n        /* \"#utility.yul\":5376:5406   */\n      gt\n        /* \"#utility.yul\":5373:5490   */\n      iszero\n      tag_182\n      jumpi\n        /* \"#utility.yul\":5409:5488   */\n      tag_183\n      tag_76\n      jump\t// in\n    tag_183:\n        /* \"#utility.yul\":5373:5490   */\n    tag_182:\n        /* \"#utility.yul\":5514:5577   */\n      tag_184\n        /* \"#utility.yul\":5569:5576   */\n      dup7\n        /* \"#utility.yul\":5560:5566   */\n      dup3\n        /* \"#utility.yul\":5549:5558   */\n      dup8\n        /* \"#utility.yul\":5545:5567   */\n      add\n        /* \"#utility.yul\":5514:5577   */\n      tag_94\n      jump\t// in\n    tag_184:\n        /* \"#utility.yul\":5504:5577   */\n      swap4\n      pop\n        /* \"#utility.yul\":5300:5587   */\n      pop\n        /* \"#utility.yul\":5654:5656   */\n      0x20\n        /* \"#utility.yul\":5643:5652   */\n      dup5\n        /* \"#utility.yul\":5639:5657   */\n      add\n        /* \"#utility.yul\":5626:5658   */\n      calldataload\n        /* \"#utility.yul\":5685:5703   */\n      0xffffffffffffffff\n        /* \"#utility.yul\":5677:5683   */\n      dup2\n        /* \"#utility.yul\":5674:5704   */\n      gt\n        /* \"#utility.yul\":5671:5788   */\n      iszero\n      tag_185\n      jumpi\n        /* \"#utility.yul\":5707:5786   */\n      tag_186\n      tag_76\n      jump\t// in\n    tag_186:\n        /* \"#utility.yul\":5671:5788   */\n    tag_185:\n        /* \"#utility.yul\":5812:5875   */\n      tag_187\n        /* \"#utility.yul\":5867:5874   */\n      dup7\n        /* \"#utility.yul\":5858:5864   */\n      dup3\n        /* \"#utility.yul\":5847:5856   */\n      dup8\n        /* \"#utility.yul\":5843:5865   */\n      add\n        /* \"#utility.yul\":5812:5875   */\n      tag_94\n      jump\t// in\n    tag_187:\n        /* \"#utility.yul\":5802:5875   */\n      swap3\n      pop\n        /* \"#utility.yul\":5597:5885   */\n      pop\n        /* \"#utility.yul\":5952:5954   */\n      0x40\n        /* \"#utility.yul\":5941:5950   */\n      dup5\n        /* \"#utility.yul\":5937:5955   */\n      add\n        /* \"#utility.yul\":5924:5956   */\n      calldataload\n        /* \"#utility.yul\":5983:6001   */\n      0xffffffffffffffff\n        /* \"#utility.yul\":5975:5981   */\n      dup2\n        /* \"#utility.yul\":5972:6002   */\n      gt\n        /* \"#utility.yul\":5969:6086   */\n      iszero\n      tag_188\n      jumpi\n        /* \"#utility.yul\":6005:6084   */\n      tag_189\n      tag_76\n      jump\t// in\n    tag_189:\n        /* \"#utility.yul\":5969:6086   */\n    tag_188:\n        /* \"#utility.yul\":6110:6173   */\n      tag_190\n        /* \"#utility.yul\":6165:6172   */\n      dup7\n        /* \"#utility.yul\":6156:6162   */\n      dup3\n        /* \"#utility.yul\":6145:6154   */\n      dup8\n        /* \"#utility.yul\":6141:6163   */\n      add\n        /* \"#utility.yul\":6110:6173   */\n      tag_94\n      jump\t// in\n    tag_190:\n        /* \"#utility.yul\":6100:6173   */\n      swap2\n      pop\n        /* \"#utility.yul\":5895:6183   */\n      pop\n        /* \"#utility.yul\":5031:6190   */\n      swap3\n      pop\n      swap3\n      pop\n      swap3\n      jump\t// out\n        /* \"#utility.yul\":6196:6376   */\n    tag_95:\n        /* \"#utility.yul\":6244:6321   */\n      0x4e487b7100000000000000000000000000000000000000000000000000000000\n        /* \"#utility.yul\":6241:6242   */\n      0x00\n        /* \"#utility.yul\":6234:6322   */\n      mstore\n        /* \"#utility.yul\":6341:6345   */\n      0x22\n        /* \"#utility.yul\":6338:6339   */\n      0x04\n        /* \"#utility.yul\":6331:6346   */\n      mstore\n        /* \"#utility.yul\":6365:6369   */\n      0x24\n        /* \"#utility.yul\":6362:6363   */\n      0x00\n        /* \"#utility.yul\":6355:6370   */\n      revert\n        /* \"#utility.yul\":6382:6702   */\n    tag_20:\n        /* \"#utility.yul\":6426:6432   */\n      0x00\n        /* \"#utility.yul\":6463:6464   */\n      0x02\n        /* \"#utility.yul\":6457:6461   */\n      dup3\n        /* \"#utility.yul\":6453:6465   */\n      div\n        /* \"#utility.yul\":6443:6465   */\n      swap1\n      pop\n        /* \"#utility.yul\":6510:6511   */\n      0x01\n        /* \"#utility.yul\":6504:6508   */\n      dup3\n        /* \"#utility.yul\":6500:6512   */\n      and\n        /* \"#utility.yul\":6531:6549   */\n      dup1\n        /* \"#utility.yul\":6521:6602   */\n      tag_193\n      jumpi\n        /* \"#utility.yul\":6587:6591   */\n      0x7f\n        /* \"#utility.yul\":6579:6585   */\n      dup3\n        /* \"#utility.yul\":6575:6592   */\n      and\n        /* \"#utility.yul\":6565:6592   */\n      swap2\n      pop\n        /* \"#utility.yul\":6521:6602   */\n    tag_193:\n        /* \"#utility.yul\":6649:6651   */\n      0x20\n        /* \"#utility.yul\":6641:6647   */\n      dup3\n        /* \"#utility.yul\":6638:6652   */\n      lt\n        /* \"#utility.yul\":6618:6636   */\n      dup2\n        /* \"#utility.yul\":6615:6653   */\n      sub\n        /* \"#utility.yul\":6612:6696   */\n      tag_194\n      jumpi\n        /* \"#utility.yul\":6668:6686   */\n      tag_195\n      tag_95\n      jump\t// in\n    tag_195:\n        /* \"#utility.yul\":6612:6696   */\n    tag_194:\n        /* \"#utility.yul\":6433:6702   */\n      pop\n        /* \"#utility.yul\":6382:6702   */\n      swap2\n      swap1\n      pop\n      jump\t// out\n        /* \"#utility.yul\":6708:6878   */\n    tag_96:\n        /* \"#utility.yul\":6848:6870   */\n      0x4e616d652063616e6e6f7420626520656d707479000000000000000000000000\n        /* \"#utility.yul\":6844:6845   */\n      0x00\n        /* \"#utility.yul\":6836:6842   */\n      dup3\n        /* \"#utility.yul\":6832:6846   */\n      add\n        /* \"#utility.yul\":6825:6871   */\n      mstore\n        /* \"#utility.yul\":6708:6878   */\n      pop\n      jump\t// out\n        /* \"#utility.yul\":6884:7250   */\n    tag_97:\n        /* \"#utility.yul\":7026:7029   */\n      0x00\n        /* \"#utility.yul\":7047:7114   */\n      tag_198\n        /* \"#utility.yul\":7111:7113   */\n      0x14\n        /* \"#utility.yul\":7106:7109   */\n      dup4\n        /* \"#utility.yul\":7047:7114   */\n      tag_82\n      jump\t// in\n    tag_198:\n        /* \"#utility.yul\":7040:7114   */\n      swap2\n      pop\n        /* \"#utility.yul\":7123:7216   */\n      tag_199\n        /* \"#utility.yul\":7212:7215   */\n      dup3\n        /* \"#utility.yul\":7123:7216   */\n      tag_96\n      jump\t// in\n    tag_199:\n        /* \"#utility.yul\":7241:7243   */\n      0x20\n        /* \"#utility.yul\":7236:7239   */\n      dup3\n        /* \"#utility.yul\":7232:7244   */\n      add\n        /* \"#utility.yul\":7225:7244   */\n      swap1\n      pop\n        /* \"#utility.yul\":6884:7250   */\n      swap2\n      swap1\n      pop\n      jump\t// out\n        /* \"#utility.yul\":7256:7675   */\n    tag_38:\n        /* \"#utility.yul\":7422:7426   */\n      0x00\n        /* \"#utility.yul\":7460:7462   */\n      0x20\n        /* \"#utility.yul\":7449:7458   */\n      dup3\n        /* \"#utility.yul\":7445:7463   */\n      add\n        /* \"#utility.yul\":7437:7463   */\n      swap1\n      pop\n        /* \"#utility.yul\":7509:7518   */\n      dup2\n        /* \"#utility.yul\":7503:7507   */\n      dup2\n        /* \"#utility.yul\":7499:7519   */\n      sub\n        /* \"#utility.yul\":7495:7496   */\n      0x00\n        /* \"#utility.yul\":7484:7493   */\n      dup4\n        /* \"#utility.yul\":7480:7497   */\n      add\n        /* \"#utility.yul\":7473:7520   */\n      mstore\n        /* \"#utility.yul\":7537:7668   */\n      tag_201\n        /* \"#utility.yul\":7663:7667   */\n      dup2\n        /* \"#utility.yul\":7537:7668   */\n      tag_97\n      jump\t// in\n    tag_201:\n        /* \"#utility.yul\":7529:7668   */\n      swap1\n      pop\n        /* \"#utility.yul\":7256:7675   */\n      swap2\n      swap1\n      pop\n      jump\t// out\n        /* \"#utility.yul\":7681:7852   */\n    tag_98:\n        /* \"#utility.yul\":7821:7844   */\n      0x456d61696c2063616e6e6f7420626520656d7074790000000000000000000000\n        /* \"#utility.yul\":7817:7818   */\n      0x00\n        /* \"#utility.yul\":7809:7815   */\n      dup3\n        /* \"#utility.yul\":7805:7819   */\n      add\n        /* \"#utility.yul\":7798:7845   */\n      mstore\n        /* \"#utility.yul\":7681:7852   */\n      pop\n      jump\t// out\n        /* \"#utility.yul\":7858:8224   */\n    tag_99:\n        /* \"#utility.yul\":8000:8003   */\n      0x00\n        /* \"#utility.yul\":8021:8088   */\n      tag_204\n        /* \"#utility.yul\":8085:8087   */\n      0x15\n        /* \"#utility.yul\":8080:8083   */\n      dup4\n        /* \"#utility.yul\":8021:8088   */\n      tag_82\n      jump\t// in\n    tag_204:\n        /* \"#utility.yul\":8014:8088   */\n      swap2\n      pop\n        /* \"#utility.yul\":8097:8190   */\n      tag_205\n        /* \"#utility.yul\":8186:8189   */\n      dup3\n        /* \"#utility.yul\":8097:8190   */\n      tag_98\n      jump\t// in\n    tag_205:\n        /* \"#utility.yul\":8215:8217   */\n      0x20\n        /* \"#utility.yul\":8210:8213   */\n      dup3\n        /* \"#utility.yul\":8206:8218   */\n      add\n        /* \"#utility.yul\":8199:8218   */\n      swap1\n      pop\n        /* \"#utility.yul\":7858:8224   */\n      swap2\n      swap1\n      pop\n      jump\t// out\n        /* \"#utility.yul\":8230:8649   */\n    tag_41:\n        /* \"#utility.yul\":8396:8400   */\n      0x00\n        /* \"#utility.yul\":8434:8436   */\n      0x20\n        /* \"#utility.yul\":8423:8432   */\n      dup3\n        /* \"#utility.yul\":8419:8437   */\n      add\n        /* \"#utility.yul\":8411:8437   */\n      swap1\n      pop\n        /* \"#utility.yul\":8483:8492   */\n      dup2\n        /* \"#utility.yul\":8477:8481   */\n      dup2\n        /* \"#utility.yul\":8473:8493   */\n      sub\n        /* \"#utility.yul\":8469:8470   */\n      0x00\n        /* \"#utility.yul\":8458:8467   */\n      dup4\n        /* \"#utility.yul\":8454:8471   */\n      add\n        /* \"#utility.yul\":8447:8494   */\n      mstore\n        /* \"#utility.yul\":8511:8642   */\n      tag_207\n        /* \"#utility.yul\":8637:8641   */\n      dup2\n        /* \"#utility.yul\":8511:8642   */\n      tag_99\n      jump\t// in\n    tag_207:\n        /* \"#utility.yul\":8503:8642   */\n      swap1\n      pop\n        /* \"#utility.yul\":8230:8649   */\n      swap2\n      swap1\n      pop\n      jump\t// out\n        /* \"#utility.yul\":8655:8832   */\n    tag_100:\n        /* \"#utility.yul\":8795:8824   */\n      0x506963747572652055524c2063616e6e6f7420626520656d7074790000000000\n        /* \"#utility.yul\":8791:8792   */\n      0x00\n        /* \"#utility.yul\":8783:8789   */\n      dup3\n        /* \"#utility.yul\":8779:8793   */\n      add\n        /* \"#utility.yul\":8772:8825   */\n      mstore\n        /* \"#utility.yul\":8655:8832   */\n      pop\n      jump\t// out\n        /* \"#utility.yul\":8838:9204   */\n    tag_101:\n        /* \"#utility.yul\":8980:8983   */\n      0x00\n        /* \"#utility.yul\":9001:9068   */\n      tag_210\n        /* \"#utility.yul\":9065:9067   */\n      0x1b\n        /* \"#utility.yul\":9060:9063   */\n      dup4\n        /* \"#utility.yul\":9001:9068   */\n      tag_82\n      jump\t// in\n    tag_210:\n        /* \"#utility.yul\":8994:9068   */\n      swap2\n      pop\n        /* \"#utility.yul\":9077:9170   */\n      tag_211\n        /* \"#utility.yul\":9166:9169   */\n      dup3\n        /* \"#utility.yul\":9077:9170   */\n      tag_100\n      jump\t// in\n    tag_211:\n        /* \"#utility.yul\":9195:9197   */\n      0x20\n        /* \"#utility.yul\":9190:9193   */\n      dup3\n        /* \"#utility.yul\":9186:9198   */\n      add\n        /* \"#utility.yul\":9179:9198   */\n      swap1\n      pop\n        /* \"#utility.yul\":8838:9204   */\n      swap2\n      swap1\n      pop\n      jump\t// out\n        /* \"#utility.yul\":9210:9629   */\n    tag_44:\n        /* \"#utility.yul\":9376:9380   */\n      0x00\n        /* \"#utility.yul\":9414:9416   */\n      0x20\n        /* \"#utility.yul\":9403:9412   */\n      dup3\n        /* \"#utility.yul\":9399:9417   */\n      add\n        /* \"#utility.yul\":9391:9417   */\n      swap1\n      pop\n        /* \"#utility.yul\":9463:9472   */\n      dup2\n        /* \"#utility.yul\":9457:9461   */\n      dup2\n        /* \"#utility.yul\":9453:9473   */\n      sub\n        /* \"#utility.yul\":9449:9450   */\n      0x00\n        /* \"#utility.yul\":9438:9447   */\n      dup4\n        /* \"#utility.yul\":9434:9451   */\n      add\n        /* \"#utility.yul\":9427:9474   */\n      mstore\n        /* \"#utility.yul\":9491:9622   */\n      tag_213\n        /* \"#utility.yul\":9617:9621   */\n      dup2\n        /* \"#utility.yul\":9491:9622   */\n      tag_101\n      jump\t// in\n    tag_213:\n        /* \"#utility.yul\":9483:9622   */\n      swap1\n      pop\n        /* \"#utility.yul\":9210:9629   */\n      swap2\n      swap1\n      pop\n      jump\t// out\n        /* \"#utility.yul\":9635:9817   */\n    tag_102:\n        /* \"#utility.yul\":9775:9809   */\n      0x50726f66696c6520616c72656164792065786973747320666f72207573657221\n        /* \"#utility.yul\":9771:9772   */\n      0x00\n        /* \"#utility.yul\":9763:9769   */\n      dup3\n        /* \"#utility.yul\":9759:9773   */\n      add\n        /* \"#utility.yul\":9752:9810   */\n      mstore\n        /* \"#utility.yul\":9635:9817   */\n      pop\n      jump\t// out\n        /* \"#utility.yul\":9823:10189   */\n    tag_103:\n        /* \"#utility.yul\":9965:9968   */\n      0x00\n        /* \"#utility.yul\":9986:10053   */\n      tag_216\n        /* \"#utility.yul\":10050:10052   */\n      0x20\n        /* \"#utility.yul\":10045:10048   */\n      dup4\n        /* \"#utility.yul\":9986:10053   */\n      tag_82\n      jump\t// in\n    tag_216:\n        /* \"#utility.yul\":9979:10053   */\n      swap2\n      pop\n        /* \"#utility.yul\":10062:10155   */\n      tag_217\n        /* \"#utility.yul\":10151:10154   */\n      dup3\n        /* \"#utility.yul\":10062:10155   */\n      tag_102\n      jump\t// in\n    tag_217:\n        /* \"#utility.yul\":10180:10182   */\n      0x20\n        /* \"#utility.yul\":10175:10178   */\n      dup3\n        /* \"#utility.yul\":10171:10183   */\n      add\n        /* \"#utility.yul\":10164:10183   */\n      swap1\n      pop\n        /* \"#utility.yul\":9823:10189   */\n      swap2\n      swap1\n      pop\n      jump\t// out\n        /* \"#utility.yul\":10195:10614   */\n    tag_48:\n        /* \"#utility.yul\":10361:10365   */\n      0x00\n        /* \"#utility.yul\":10399:10401   */\n      0x20\n        /* \"#utility.yul\":10388:10397   */\n      dup3\n        /* \"#utility.yul\":10384:10402   */\n      add\n        /* \"#utility.yul\":10376:10402   */\n      swap1\n      pop\n        /* \"#utility.yul\":10448:10457   */\n      dup2\n        /* \"#utility.yul\":10442:10446   */\n      dup2\n        /* \"#utility.yul\":10438:10458   */\n      sub\n        /* \"#utility.yul\":10434:10435   */\n      0x00\n        /* \"#utility.yul\":10423:10432   */\n      dup4\n        /* \"#utility.yul\":10419:10436   */\n      add\n        /* \"#utility.yul\":10412:10459   */\n      mstore\n        /* \"#utility.yul\":10476:10607   */\n      tag_219\n        /* \"#utility.yul\":10602:10606   */\n      dup2\n        /* \"#utility.yul\":10476:10607   */\n      tag_103\n      jump\t// in\n    tag_219:\n        /* \"#utility.yul\":10468:10607   */\n      swap1\n      pop\n        /* \"#utility.yul\":10195:10614   */\n      swap2\n      swap1\n      pop\n      jump\t// out\n        /* \"#utility.yul\":10620:10761   */\n    tag_104:\n        /* \"#utility.yul\":10669:10673   */\n      0x00\n        /* \"#utility.yul\":10692:10695   */\n      dup2\n        /* \"#utility.yul\":10684:10695   */\n      swap1\n      pop\n        /* \"#utility.yul\":10715:10718   */\n      dup2\n        /* \"#utility.yul\":10712:10713   */\n      0x00\n        /* \"#utility.yul\":10705:10719   */\n      mstore\n        /* \"#utility.yul\":10749:10753   */\n      0x20\n        /* \"#utility.yul\":10746:10747   */\n      0x00\n        /* \"#utility.yul\":10736:10754   */\n      keccak256\n        /* \"#utility.yul\":10728:10754   */\n      swap1\n      pop\n        /* \"#utility.yul\":10620:10761   */\n      swap2\n      swap1\n      pop\n      jump\t// out\n        /* \"#utility.yul\":10767:10860   */\n    tag_105:\n        /* \"#utility.yul\":10804:10810   */\n      0x00\n        /* \"#utility.yul\":10851:10853   */\n      0x20\n        /* \"#utility.yul\":10846:10848   */\n      0x1f\n        /* \"#utility.yul\":10839:10844   */\n      dup4\n        /* \"#utility.yul\":10835:10849   */\n      add\n        /* \"#utility.yul\":10831:10854   */\n      div\n        /* \"#utility.yul\":10821:10854   */\n      swap1\n      pop\n        /* \"#utility.yul\":10767:10860   */\n      swap2\n      swap1\n      pop\n      jump\t// out\n        /* \"#utility.yul\":10866:10973   */\n    tag_106:\n        /* \"#utility.yul\":10910:10918   */\n      0x00\n        /* \"#utility.yul\":10960:10965   */\n      dup3\n        /* \"#utility.yul\":10954:10958   */\n      dup3\n        /* \"#utility.yul\":10950:10966   */\n      shl\n        /* \"#utility.yul\":10929:10966   */\n      swap1\n      pop\n        /* \"#utility.yul\":10866:10973   */\n      swap3\n      swap2\n      pop\n      pop\n      jump\t// out\n        /* \"#utility.yul\":10979:11372   */\n    tag_107:\n        /* \"#utility.yul\":11048:11054   */\n      0x00\n        /* \"#utility.yul\":11098:11099   */\n      0x08\n        /* \"#utility.yul\":11086:11096   */\n      dup4\n        /* \"#utility.yul\":11082:11100   */\n      mul\n        /* \"#utility.yul\":11121:11218   */\n      tag_224\n        /* \"#utility.yul\":11151:11217   */\n      0xffffffffffffffffffffffffffffffffffffffffffffffffffffffffffffffff\n        /* \"#utility.yul\":11140:11149   */\n      dup3\n        /* \"#utility.yul\":11121:11218   */\n      tag_106\n      jump\t// in\n    tag_224:\n        /* \"#utility.yul\":11239:11278   */\n      tag_225\n        /* \"#utility.yul\":11269:11277   */\n      dup7\n        /* \"#utility.yul\":11258:11267   */\n      dup4\n        /* \"#utility.yul\":11239:11278   */\n      tag_106\n      jump\t// in\n    tag_225:\n        /* \"#utility.yul\":11227:11278   */\n      swap6\n      pop\n        /* \"#utility.yul\":11311:11315   */\n      dup1\n        /* \"#utility.yul\":11307:11316   */\n      not\n        /* \"#utility.yul\":11300:11305   */\n      dup5\n        /* \"#utility.yul\":11296:11317   */\n      and\n        /* \"#utility.yul\":11287:11317   */\n      swap4\n      pop\n        /* \"#utility.yul\":11360:11364   */\n      dup1\n        /* \"#utility.yul\":11350:11358   */\n      dup7\n        /* \"#utility.yul\":11346:11365   */\n      and\n        /* \"#utility.yul\":11339:11344   */\n      dup5\n        /* \"#utility.yul\":11336:11366   */\n      or\n        /* \"#utility.yul\":11326:11366   */\n      swap3\n      pop\n        /* \"#utility.yul\":11055:11372   */\n      pop\n      pop\n        /* \"#utility.yul\":10979:11372   */\n      swap4\n      swap3\n      pop\n      pop\n      pop\n      jump\t// out\n        /* \"#utility.yul\":11378:11455   */\n    tag_108:\n        /* \"#utility.yul\":11415:11422   */\n      0x00\n        /* \"#utility.yul\":11444:11449   */\n      dup2\n        /* \"#utility.yul\":11433:11449   */\n      swap1\n      pop\n        /* \"#utility.yul\":11378:11455   */\n      swap2\n      swap1\n      pop\n      jump\t// out\n        /* \"#utility.yul\":11461:11521   */\n    tag_109:\n        /* \"#utility.yul\":11489:11492   */\n      0x00\n        /* \"#utility.yul\":11510:11515   */\n      dup2\n        /* \"#utility.yul\":11503:11515   */\n      swap1\n      pop\n        /* \"#utility.yul\":11461:11521   */\n      swap2\n      swap1\n      pop\n      jump\t// out\n        /* \"#utility.yul\":11527:11669   */\n    tag_110:\n        /* \"#utility.yul\":11577:11586   */\n      0x00\n        /* \"#utility.yul\":11610:11663   */\n      tag_229\n        /* \"#utility.yul\":11628:11662   */\n      tag_230\n        /* \"#utility.yul\":11637:11661   */\n      tag_231\n        /* \"#utility.yul\":11655:11660   */\n      dup5\n        /* \"#utility.yul\":11637:11661   */\n      tag_108\n      jump\t// in\n    tag_231:\n        /* \"#utility.yul\":11628:11662   */\n      tag_109\n      jump\t// in\n    tag_230:\n        /* \"#utility.yul\":11610:11663   */\n      tag_108\n      jump\t// in\n    tag_229:\n        /* \"#utility.yul\":11597:11663   */\n      swap1\n      pop\n        /* \"#utility.yul\":11527:11669   */\n      swap2\n      swap1\n      pop\n      jump\t// out\n        /* \"#utility.yul\":11675:11750   */\n    tag_111:\n        /* \"#utility.yul\":11718:11721   */\n      0x00\n        /* \"#utility.yul\":11739:11744   */\n      dup2\n        /* \"#utility.yul\":11732:11744   */\n      swap1\n      pop\n        /* \"#utility.yul\":11675:11750   */\n      swap2\n      swap1\n      pop\n      jump\t// out\n        /* \"#utility.yul\":11756:12025   */\n    tag_112:\n        /* \"#utility.yul\":11866:11905   */\n      tag_234\n        /* \"#utility.yul\":11897:11904   */\n      dup4\n        /* \"#utility.yul\":11866:11905   */\n      tag_110\n      jump\t// in\n    tag_234:\n        /* \"#utility.yul\":11927:12018   */\n      tag_235\n        /* \"#utility.yul\":11976:12017   */\n      tag_236\n        /* \"#utility.yul\":12000:12016   */\n      dup3\n        /* \"#utility.yul\":11976:12017   */\n      tag_111\n      jump\t// in\n    tag_236:\n        /* \"#utility.yul\":11968:11974   */\n      dup5\n        /* \"#utility.yul\":11961:11965   */\n      dup5\n        /* \"#utility.yul\":11955:11966   */\n      sload\n        /* \"#utility.yul\":11927:12018   */\n      tag_107\n      jump\t// in\n    tag_235:\n        /* \"#utility.yul\":11921:11925   */\n      dup3\n        /* \"#utility.yul\":11914:12019   */\n      sstore\n        /* \"#utility.yul\":11832:12025   */\n      pop\n        /* \"#utility.yul\":11756:12025   */\n      pop\n      pop\n      pop\n      jump\t// out\n        /* \"#utility.yul\":12031:12104   */\n    tag_113:\n        /* \"#utility.yul\":12076:12079   */\n      0x00\n        /* \"#utility.yul\":12031:12104   */\n      swap1\n      jump\t// out\n        /* \"#utility.yul\":12110:12299   */\n    tag_114:\n        /* \"#utility.yul\":12187:12219   */\n      tag_239\n      tag_113\n      jump\t// in\n    tag_239:\n        /* \"#utility.yul\":12228:12293   */\n      tag_240\n        /* \"#utility.yul\":12286:12292   */\n      dup2\n        /* \"#utility.yul\":12278:12284   */\n      dup5\n        /* \"#utility.yul\":12272:12276   */\n      dup5\n        /* \"#utility.yul\":12228:12293   */\n      tag_112\n      jump\t// in\n    tag_240:\n        /* \"#utility.yul\":12163:12299   */\n      pop\n        /* \"#utility.yul\":12110:12299   */\n      pop\n      pop\n      jump\t// out\n        /* \"#utility.yul\":12305:12491   */\n    tag_115:\n        /* \"#utility.yul\":12365:12485   */\n    tag_242:\n        /* \"#utility.yul\":12382:12385   */\n      dup2\n        /* \"#utility.yul\":12375:12380   */\n      dup2\n        /* \"#utility.yul\":12372:12386   */\n      lt\n        /* \"#utility.yul\":12365:12485   */\n      iszero\n      tag_244\n      jumpi\n        /* \"#utility.yul\":12436:12475   */\n      tag_245\n        /* \"#utility.yul\":12473:12474   */\n      0x00\n        /* \"#utility.yul\":12466:12471   */\n      dup3\n        /* \"#utility.yul\":12436:12475   */\n      tag_114\n      jump\t// in\n    tag_245:\n        /* \"#utility.yul\":12409:12410   */\n      0x01\n        /* \"#utility.yul\":12402:12407   */\n      dup2\n        /* \"#utility.yul\":12398:12411   */\n      add\n        /* \"#utility.yul\":12389:12411   */\n      swap1\n      pop\n        /* \"#utility.yul\":12365:12485   */\n      jump(tag_242)\n    tag_244:\n        /* \"#utility.yul\":12305:12491   */\n      pop\n      pop\n      jump\t// out\n        /* \"#utility.yul\":12497:13040   */\n    tag_116:\n        /* \"#utility.yul\":12598:12600   */\n      0x1f\n        /* \"#utility.yul\":12593:12596   */\n      dup3\n        /* \"#utility.yul\":12590:12601   */\n      gt\n        /* \"#utility.yul\":12587:13033   */\n      iszero\n      tag_247\n      jumpi\n        /* \"#utility.yul\":12632:12670   */\n      tag_248\n        /* \"#utility.yul\":12664:12669   */\n      dup2\n        /* \"#utility.yul\":12632:12670   */\n      tag_104\n      jump\t// in\n    tag_248:\n        /* \"#utility.yul\":12716:12745   */\n      tag_249\n        /* \"#utility.yul\":12734:12744   */\n      dup5\n        /* \"#utility.yul\":12716:12745   */\n      tag_105\n      jump\t// in\n    tag_249:\n        /* \"#utility.yul\":12706:12714   */\n      dup2\n        /* \"#utility.yul\":12702:12746   */\n      add\n        /* \"#utility.yul\":12899:12901   */\n      0x20\n        /* \"#utility.yul\":12887:12897   */\n      dup6\n        /* \"#utility.yul\":12884:12902   */\n      lt\n        /* \"#utility.yul\":12881:12930   */\n      iszero\n      tag_250\n      jumpi\n        /* \"#utility.yul\":12920:12928   */\n      dup2\n        /* \"#utility.yul\":12905:12928   */\n      swap1\n      pop\n        /* \"#utility.yul\":12881:12930   */\n    tag_250:\n        /* \"#utility.yul\":12943:13023   */\n      tag_251\n        /* \"#utility.yul\":12999:13021   */\n      tag_252\n        /* \"#utility.yul\":13017:13020   */\n      dup6\n        /* \"#utility.yul\":12999:13021   */\n      tag_105\n      jump\t// in\n    tag_252:\n        /* \"#utility.yul\":12989:12997   */\n      dup4\n        /* \"#utility.yul\":12985:13022   */\n      add\n        /* \"#utility.yul\":12972:12983   */\n      dup3\n        /* \"#utility.yul\":12943:13023   */\n      tag_115\n      jump\t// in\n    tag_251:\n        /* \"#utility.yul\":12602:13033   */\n      pop\n      pop\n        /* \"#utility.yul\":12587:13033   */\n    tag_247:\n        /* \"#utility.yul\":12497:13040   */\n      pop\n      pop\n      pop\n      jump\t// out\n        /* \"#utility.yul\":13046:13163   */\n    tag_117:\n        /* \"#utility.yul\":13100:13108   */\n      0x00\n        /* \"#utility.yul\":13150:13155   */\n      dup3\n        /* \"#utility.yul\":13144:13148   */\n      dup3\n        /* \"#utility.yul\":13140:13156   */\n      shr\n        /* \"#utility.yul\":13119:13156   */\n      swap1\n      pop\n        /* \"#utility.yul\":13046:13163   */\n      swap3\n      swap2\n      pop\n      pop\n      jump\t// out\n        /* \"#utility.yul\":13169:13338   */\n    tag_118:\n        /* \"#utility.yul\":13213:13219   */\n      0x00\n        /* \"#utility.yul\":13246:13297   */\n      tag_255\n        /* \"#utility.yul\":13294:13295   */\n      0x00\n        /* \"#utility.yul\":13290:13296   */\n      not\n        /* \"#utility.yul\":13282:13287   */\n      dup5\n        /* \"#utility.yul\":13279:13280   */\n      0x08\n        /* \"#utility.yul\":13275:13288   */\n      mul\n        /* \"#utility.yul\":13246:13297   */\n      tag_117\n      jump\t// in\n    tag_255:\n        /* \"#utility.yul\":13242:13298   */\n      not\n        /* \"#utility.yul\":13327:13331   */\n      dup1\n        /* \"#utility.yul\":13321:13325   */\n      dup4\n        /* \"#utility.yul\":13317:13332   */\n      and\n        /* \"#utility.yul\":13307:13332   */\n      swap2\n      pop\n        /* \"#utility.yul\":13220:13338   */\n      pop\n        /* \"#utility.yul\":13169:13338   */\n      swap3\n      swap2\n      pop\n      pop\n      jump\t// out\n        /* \"#utility.yul\":13343:13638   */\n    tag_119:\n        /* \"#utility.yul\":13419:13423   */\n      0x00\n        /* \"#utility.yul\":13565:13594   */\n      tag_257\n        /* \"#utility.yul\":13590:13593   */\n      dup4\n        /* \"#utility.yul\":13584:13588   */\n      dup4\n        /* \"#utility.yul\":13565:13594   */\n      tag_118\n      jump\t// in\n    tag_257:\n        /* \"#utility.yul\":13557:13594   */\n      swap2\n      pop\n        /* \"#utility.yul\":13627:13630   */\n      dup3\n        /* \"#utility.yul\":13624:13625   */\n      0x02\n        /* \"#utility.yul\":13620:13631   */\n      mul\n        /* \"#utility.yul\":13614:13618   */\n      dup3\n        /* \"#utility.yul\":13611:13632   */\n      or\n        /* \"#utility.yul\":13603:13632   */\n      swap1\n      pop\n        /* \"#utility.yul\":13343:13638   */\n      swap3\n      swap2\n      pop\n      pop\n      jump\t// out\n        /* \"#utility.yul\":13643:15038   */\n    tag_50:\n        /* \"#utility.yul\":13760:13797   */\n      tag_259\n        /* \"#utility.yul\":13793:13796   */\n      dup3\n        /* \"#utility.yul\":13760:13797   */\n      tag_81\n      jump\t// in\n    tag_259:\n        /* \"#utility.yul\":13862:13880   */\n      0xffffffffffffffff\n        /* \"#utility.yul\":13854:13860   */\n      dup2\n        /* \"#utility.yul\":13851:13881   */\n      gt\n        /* \"#utility.yul\":13848:13904   */\n      iszero\n      tag_260\n      jumpi\n        /* \"#utility.yul\":13884:13902   */\n      tag_261\n      tag_88\n      jump\t// in\n    tag_261:\n        /* \"#utility.yul\":13848:13904   */\n    tag_260:\n        /* \"#utility.yul\":13928:13966   */\n      tag_262\n        /* \"#utility.yul\":13960:13964   */\n      dup3\n        /* \"#utility.yul\":13954:13965   */\n      sload\n        /* \"#utility.yul\":13928:13966   */\n      tag_20\n      jump\t// in\n    tag_262:\n        /* \"#utility.yul\":14013:14080   */\n      tag_263\n        /* \"#utility.yul\":14073:14079   */\n      dup3\n        /* \"#utility.yul\":14065:14071   */\n      dup3\n        /* \"#utility.yul\":14059:14063   */\n      dup6\n        /* \"#utility.yul\":14013:14080   */\n      tag_116\n      jump\t// in\n    tag_263:\n        /* \"#utility.yul\":14107:14108   */\n      0x00\n        /* \"#utility.yul\":14131:14135   */\n      0x20\n        /* \"#utility.yul\":14118:14135   */\n      swap1\n      pop\n        /* \"#utility.yul\":14163:14165   */\n      0x1f\n        /* \"#utility.yul\":14155:14161   */\n      dup4\n        /* \"#utility.yul\":14152:14166   */\n      gt\n        /* \"#utility.yul\":14180:14181   */\n      0x01\n        /* \"#utility.yul\":14175:14793   */\n      dup2\n      eq\n      tag_265\n      jumpi\n        /* \"#utility.yul\":14837:14838   */\n      0x00\n        /* \"#utility.yul\":14854:14860   */\n      dup5\n        /* \"#utility.yul\":14851:14928   */\n      iszero\n      tag_266\n      jumpi\n        /* \"#utility.yul\":14903:14912   */\n      dup3\n        /* \"#utility.yul\":14898:14901   */\n      dup8\n        /* \"#utility.yul\":14894:14913   */\n      add\n        /* \"#utility.yul\":14888:14914   */\n      mload\n        /* \"#utility.yul\":14879:14914   */\n      swap1\n      pop\n        /* \"#utility.yul\":14851:14928   */\n    tag_266:\n        /* \"#utility.yul\":14954:15021   */\n      tag_267\n        /* \"#utility.yul\":15014:15020   */\n      dup6\n        /* \"#utility.yul\":15007:15012   */\n      dup3\n        /* \"#utility.yul\":14954:15021   */\n      tag_119\n      jump\t// in\n    tag_267:\n        /* \"#utility.yul\":14948:14952   */\n      dup7\n        /* \"#utility.yul\":14941:15022   */\n      sstore\n        /* \"#utility.yul\":14810:15032   */\n      pop\n        /* \"#utility.yul\":14145:15032   */\n      jump(tag_264)\n        /* \"#utility.yul\":14175:14793   */\n    tag_265:\n        /* \"#utility.yul\":14227:14231   */\n      0x1f\n        /* \"#utility.yul\":14223:14232   */\n      not\n        /* \"#utility.yul\":14215:14221   */\n      dup5\n        /* \"#utility.yul\":14211:14233   */\n      and\n        /* \"#utility.yul\":14261:14298   */\n      tag_268\n        /* \"#utility.yul\":14293:14297   */\n      dup7\n        /* \"#utility.yul\":14261:14298   */\n      tag_104\n      jump\t// in\n    tag_268:\n        /* \"#utility.yul\":14320:14321   */\n      0x00\n        /* \"#utility.yul\":14334:14542   */\n    tag_269:\n        /* \"#utility.yul\":14348:14355   */\n      dup3\n        /* \"#utility.yul\":14345:14346   */\n      dup2\n        /* \"#utility.yul\":14342:14356   */\n      lt\n        /* \"#utility.yul\":14334:14542   */\n      iszero\n      tag_271\n      jumpi\n        /* \"#utility.yul\":14427:14436   */\n      dup5\n        /* \"#utility.yul\":14422:14425   */\n      dup10\n        /* \"#utility.yul\":14418:14437   */\n      add\n        /* \"#utility.yul\":14412:14438   */\n      mload\n        /* \"#utility.yul\":14404:14410   */\n      dup3\n        /* \"#utility.yul\":14397:14439   */\n      sstore\n        /* \"#utility.yul\":14478:14479   */\n      0x01\n        /* \"#utility.yul\":14470:14476   */\n      dup3\n        /* \"#utility.yul\":14466:14480   */\n      add\n        /* \"#utility.yul\":14456:14480   */\n      swap2\n      pop\n        /* \"#utility.yul\":14525:14527   */\n      0x20\n        /* \"#utility.yul\":14514:14523   */\n      dup6\n        /* \"#utility.yul\":14510:14528   */\n      add\n        /* \"#utility.yul\":14497:14528   */\n      swap5\n      pop\n        /* \"#utility.yul\":14371:14375   */\n      0x20\n        /* \"#utility.yul\":14368:14369   */\n      dup2\n        /* \"#utility.yul\":14364:14376   */\n      add\n        /* \"#utility.yul\":14359:14376   */\n      swap1\n      pop\n        /* \"#utility.yul\":14334:14542   */\n      jump(tag_269)\n    tag_271:\n        /* \"#utility.yul\":14570:14576   */\n      dup7\n        /* \"#utility.yul\":14561:14568   */\n      dup4\n        /* \"#utility.yul\":14558:14577   */\n      lt\n        /* \"#utility.yul\":14555:14734   */\n      iszero\n      tag_272\n      jumpi\n        /* \"#utility.yul\":14628:14637   */\n      dup5\n        /* \"#utility.yul\":14623:14626   */\n      dup10\n        /* \"#utility.yul\":14619:14638   */\n      add\n        /* \"#utility.yul\":14613:14639   */\n      mload\n        /* \"#utility.yul\":14671:14719   */\n      tag_273\n        /* \"#utility.yul\":14713:14717   */\n      0x1f\n        /* \"#utility.yul\":14705:14711   */\n      dup10\n        /* \"#utility.yul\":14701:14718   */\n      and\n        /* \"#utility.yul\":14690:14699   */\n      dup3\n        /* \"#utility.yul\":14671:14719   */\n      tag_118\n      jump\t// in\n    tag_273:\n        /* \"#utility.yul\":14663:14669   */\n      dup4\n        /* \"#utility.yul\":14656:14720   */\n      sstore\n        /* \"#utility.yul\":14578:14734   */\n      pop\n        /* \"#utility.yul\":14555:14734   */\n    tag_272:\n        /* \"#utility.yul\":14780:14781   */\n      0x01\n        /* \"#utility.yul\":14776:14777   */\n      0x02\n        /* \"#utility.yul\":14768:14774   */\n      dup9\n        /* \"#utility.yul\":14764:14778   */\n      mul\n        /* \"#utility.yul\":14760:14782   */\n      add\n        /* \"#utility.yul\":14754:14758   */\n      dup9\n        /* \"#utility.yul\":14747:14783   */\n      sstore\n        /* \"#utility.yul\":14182:14793   */\n      pop\n      pop\n      pop\n        /* \"#utility.yul\":14145:15032   */\n    tag_264:\n      pop\n        /* \"#utility.yul\":13735:15038   */\n      pop\n      pop\n      pop\n        /* \"#utility.yul\":13643:15038   */\n      pop\n      pop\n      jump\t// out\n        /* \"#utility.yul\":15044:15267   */\n    tag_120:\n        /* \"#utility.yul\":15184:15218   */\n      0x50726f66696c6520646f6573206e6f7420657869737420666f72207468652075\n        /* \"#utility.yul\":15180:15181   */\n      0x00\n        /* \"#utility.yul\":15172:15178   */\n      dup3\n        /* \"#utility.yul\":15168:15182   */\n      add\n        /* \"#utility.yul\":15161:15219   */\n      mstore\n        /* \"#utility.yul\":15253:15259   */\n      0x7365722100000000000000000000000000000000000000000000000000000000\n        /* \"#utility.yul\":15248:15250   */\n      0x20\n        /* \"#utility.yul\":15240:15246   */\n      dup3\n        /* \"#utility.yul\":15236:15251   */\n      add\n        /* \"#utility.yul\":15229:15260   */\n      mstore\n        /* \"#utility.yul\":15044:15267   */\n      pop\n      jump\t// out\n        /* \"#utility.yul\":15273:15639   */\n    tag_121:\n        /* \"#utility.yul\":15415:15418   */\n      0x00\n        /* \"#utility.yul\":15436:15503   */\n      tag_276\n        /* \"#utility.yul\":15500:15502   */\n      0x24\n        /* \"#utility.yul\":15495:15498   */\n      dup4\n        /* \"#utility.yul\":15436:15503   */\n      tag_82\n      jump\t// in\n    tag_276:\n        /* \"#utility.yul\":15429:15503   */\n      swap2\n      pop\n        /* \"#utility.yul\":15512:15605   */\n      tag_277\n        /* \"#utility.yul\":15601:15604   */\n      dup3\n        /* \"#utility.yul\":15512:15605   */\n      tag_120\n      jump\t// in\n    tag_277:\n        /* \"#utility.yul\":15630:15632   */\n      0x40\n        /* \"#utility.yul\":15625:15628   */\n      dup3\n        /* \"#utility.yul\":15621:15633   */\n      add\n        /* \"#utility.yul\":15614:15633   */\n      swap1\n      pop\n        /* \"#utility.yul\":15273:15639   */\n      swap2\n      swap1\n      pop\n      jump\t// out\n        /* \"#utility.yul\":15645:16064   */\n    tag_58:\n        /* \"#utility.yul\":15811:15815   */\n      0x00\n        /* \"#utility.yul\":15849:15851   */\n      0x20\n        /* \"#utility.yul\":15838:15847   */\n      dup3\n        /* \"#utility.yul\":15834:15852   */\n      add\n        /* \"#utility.yul\":15826:15852   */\n      swap1\n      pop\n        /* \"#utility.yul\":15898:15907   */\n      dup2\n        /* \"#utility.yul\":15892:15896   */\n      dup2\n        /* \"#utility.yul\":15888:15908   */\n      sub\n        /* \"#utility.yul\":15884:15885   */\n      0x00\n        /* \"#utility.yul\":15873:15882   */\n      dup4\n        /* \"#utility.yul\":15869:15886   */\n      add\n        /* \"#utility.yul\":15862:15909   */\n      mstore\n        /* \"#utility.yul\":15926:16057   */\n      tag_279\n        /* \"#utility.yul\":16052:16056   */\n      dup2\n        /* \"#utility.yul\":15926:16057   */\n      tag_121\n      jump\t// in\n    tag_279:\n        /* \"#utility.yul\":15918:16057   */\n      swap1\n      pop\n        /* \"#utility.yul\":15645:16064   */\n      swap2\n      swap1\n      pop\n      jump\t// out\n\n    auxdata: 0xa26469706673582212206365786db8b0a3d50f38e8607ec223f3b8a4dd33683e367ee7e47c87872491ef64736f6c63430008120033\n}\n",
				"bytecode": {
					"linkReferences": {},
					"object": "608060405234801561001057600080fd5b50611011806100206000396000f3fe608060405234801561001057600080fd5b50600436106100415760003560e01c806343b0215f146100465780639841c82c14610078578063dbd638f614610094575b600080fd5b610060600480360381019061005b91906107cc565b6100b4565b60405161006f93929190610889565b60405180910390f35b610092600480360381019061008d9190610a0a565b610276565b005b61009c6104c7565b6040516100ab93929190610889565b60405180910390f35b60006020528060005260406000206000915090508060000180546100d790610ae0565b80601f016020809104026020016040519081016040528092919081815260200182805461010390610ae0565b80156101505780601f1061012557610100808354040283529160200191610150565b820191906000526020600020905b81548152906001019060200180831161013357829003601f168201915b50505050509080600101805461016590610ae0565b80601f016020809104026020016040519081016040528092919081815260200182805461019190610ae0565b80156101de5780601f106101b3576101008083540402835291602001916101de565b820191906000526020600020905b8154815290600101906020018083116101c157829003601f168201915b5050505050908060020180546101f390610ae0565b80601f016020809104026020016040519081016040528092919081815260200182805461021f90610ae0565b801561026c5780601f106102415761010080835404028352916020019161026c565b820191906000526020600020905b81548152906001019060200180831161024f57829003601f168201915b5050505050905083565b60008351116102ba576040517f08c379a00000000000000000000000000000000000000000000000000000000081526004016102b190610b5d565b60405180910390fd5b60008251116102fe576040517f08c379a00000000000000000000000000000000000000000000000000000000081526004016102f590610bc9565b60405180910390fd5b6000815111610342576040517f08c379a000000000000000000000000000000000000000000000000000000000815260040161033990610c35565b60405180910390fd5b60008060003373ffffffffffffffffffffffffffffffffffffffff1673ffffffffffffffffffffffffffffffffffffffff168152602001908152602001600020600001805461039090610ae0565b9050146103d2576040517f08c379a00000000000000000000000000000000000000000000000000000000081526004016103c990610ca1565b60405180910390fd5b6040518060600160405280848152602001838152602001828152506000803373ffffffffffffffffffffffffffffffffffffffff1673ffffffffffffffffffffffffffffffffffffffff16815260200190815260200160002060008201518160000190816104409190610e77565b5060208201518160010190816104569190610e77565b50604082015181600201908161046c9190610e77565b509050503373ffffffffffffffffffffffffffffffffffffffff167f77c378673324822ad159b021c3ce202d7676946ff3967162024b660a493e64b38484846040516104ba93929190610889565b60405180910390a2505050565b606080606060008060003373ffffffffffffffffffffffffffffffffffffffff1673ffffffffffffffffffffffffffffffffffffffff168152602001908152602001600020600001805461051a90610ae0565b90501161055c576040517f08c379a000000000000000000000000000000000000000000000000000000000815260040161055390610fbb565b60405180910390fd5b60008060003373ffffffffffffffffffffffffffffffffffffffff1673ffffffffffffffffffffffffffffffffffffffff16815260200190815260200160002090508060000181600101826002018280546105b690610ae0565b80601f01602080910402602001604051908101604052809291908181526020018280546105e290610ae0565b801561062f5780601f106106045761010080835404028352916020019161062f565b820191906000526020600020905b81548152906001019060200180831161061257829003601f168201915b5050505050925081805461064290610ae0565b80601f016020809104026020016040519081016040528092919081815260200182805461066e90610ae0565b80156106bb5780601f10610690576101008083540402835291602001916106bb565b820191906000526020600020905b81548152906001019060200180831161069e57829003601f168201915b505050505091508080546106ce90610ae0565b80601f01602080910402602001604051908101604052809291908181526020018280546106fa90610ae0565b80156107475780601f1061071c57610100808354040283529160200191610747565b820191906000526020600020905b81548152906001019060200180831161072a57829003601f168201915b5050505050905093509350935050909192565b6000604051905090565b600080fd5b600080fd5b600073ffffffffffffffffffffffffffffffffffffffff82169050919050565b60006107998261076e565b9050919050565b6107a98161078e565b81146107b457600080fd5b50565b6000813590506107c6816107a0565b92915050565b6000602082840312156107e2576107e1610764565b5b60006107f0848285016107b7565b91505092915050565b600081519050919050565b600082825260208201905092915050565b60005b83811015610833578082015181840152602081019050610818565b60008484015250505050565b6000601f19601f8301169050919050565b600061085b826107f9565b6108658185610804565b9350610875818560208601610815565b61087e8161083f565b840191505092915050565b600060608201905081810360008301526108a38186610850565b905081810360208301526108b78185610850565b905081810360408301526108cb8184610850565b9050949350505050565b600080fd5b600080fd5b7f4e487b7100000000000000000000000000000000000000000000000000000000600052604160045260246000fd5b6109178261083f565b810181811067ffffffffffffffff82111715610936576109356108df565b5b80604052505050565b600061094961075a565b9050610955828261090e565b919050565b600067ffffffffffffffff821115610975576109746108df565b5b61097e8261083f565b9050602081019050919050565b82818337600083830152505050565b60006109ad6109a88461095a565b61093f565b9050828152602081018484840111156109c9576109c86108da565b5b6109d484828561098b565b509392505050565b600082601f8301126109f1576109f06108d5565b5b8135610a0184826020860161099a565b91505092915050565b600080600060608486031215610a2357610a22610764565b5b600084013567ffffffffffffffff811115610a4157610a40610769565b5b610a4d868287016109dc565b935050602084013567ffffffffffffffff811115610a6e57610a6d610769565b5b610a7a868287016109dc565b925050604084013567ffffffffffffffff811115610a9b57610a9a610769565b5b610aa7868287016109dc565b9150509250925092565b7f4e487b7100000000000000000000000000000000000000000000000000000000600052602260045260246000fd5b60006002820490506001821680610af857607f821691505b602082108103610b0b57610b0a610ab1565b5b50919050565b7f4e616d652063616e6e6f7420626520656d707479000000000000000000000000600082015250565b6000610b47601483610804565b9150610b5282610b11565b602082019050919050565b60006020820190508181036000830152610b7681610b3a565b9050919050565b7f456d61696c2063616e6e6f7420626520656d7074790000000000000000000000600082015250565b6000610bb3601583610804565b9150610bbe82610b7d565b602082019050919050565b60006020820190508181036000830152610be281610ba6565b9050919050565b7f506963747572652055524c2063616e6e6f7420626520656d7074790000000000600082015250565b6000610c1f601b83610804565b9150610c2a82610be9565b602082019050919050565b60006020820190508181036000830152610c4e81610c12565b9050919050565b7f50726f66696c6520616c72656164792065786973747320666f72207573657221600082015250565b6000610c8b602083610804565b9150610c9682610c55565b602082019050919050565b60006020820190508181036000830152610cba81610c7e565b9050919050565b60008190508160005260206000209050919050565b60006020601f8301049050919050565b600082821b905092915050565b600060088302610d237fffffffffffffffffffffffffffffffffffffffffffffffffffffffffffffffff82610ce6565b610d2d8683610ce6565b95508019841693508086168417925050509392505050565b6000819050919050565b6000819050919050565b6000610d74610d6f610d6a84610d45565b610d4f565b610d45565b9050919050565b6000819050919050565b610d8e83610d59565b610da2610d9a82610d7b565b848454610cf3565b825550505050565b600090565b610db7610daa565b610dc2818484610d85565b505050565b5b81811015610de657610ddb600082610daf565b600181019050610dc8565b5050565b601f821115610e2b57610dfc81610cc1565b610e0584610cd6565b81016020851015610e14578190505b610e28610e2085610cd6565b830182610dc7565b50505b505050565b600082821c905092915050565b6000610e4e60001984600802610e30565b1980831691505092915050565b6000610e678383610e3d565b9150826002028217905092915050565b610e80826107f9565b67ffffffffffffffff811115610e9957610e986108df565b5b610ea38254610ae0565b610eae828285610dea565b600060209050601f831160018114610ee15760008415610ecf578287015190505b610ed98582610e5b565b865550610f41565b601f198416610eef86610cc1565b60005b82811015610f1757848901518255600182019150602085019450602081019050610ef2565b86831015610f345784890151610f30601f891682610e3d565b8355505b6001600288020188555050505b505050505050565b7f50726f66696c6520646f6573206e6f7420657869737420666f7220746865207560008201527f7365722100000000000000000000000000000000000000000000000000000000602082015250565b6000610fa5602483610804565b9150610fb082610f49565b604082019050919050565b60006020820190508181036000830152610fd481610f98565b905091905056fea26469706673582212206365786db8b0a3d50f38e8607ec223f3b8a4dd33683e367ee7e47c87872491ef64736f6c63430008120033",
					"opcodes": "PUSH1 0x80 PUSH1 0x40 MSTORE CALLVALUE DUP1 ISZERO PUSH2 0x10 JUMPI PUSH1 0x0 DUP1 REVERT JUMPDEST POP PUSH2 0x1011 DUP1 PUSH2 0x20 PUSH1 0x0 CODECOPY PUSH1 0x0 RETURN INVALID PUSH1 0x80 PUSH1 0x40 MSTORE CALLVALUE DUP1 ISZERO PUSH2 0x10 JUMPI PUSH1 0x0 DUP1 REVERT JUMPDEST POP PUSH1 0x4 CALLDATASIZE LT PUSH2 0x41 JUMPI PUSH1 0x0 CALLDATALOAD PUSH1 0xE0 SHR DUP1 PUSH4 0x43B0215F EQ PUSH2 0x46 JUMPI DUP1 PUSH4 0x9841C82C EQ PUSH2 0x78 JUMPI DUP1 PUSH4 0xDBD638F6 EQ PUSH2 0x94 JUMPI JUMPDEST PUSH1 0x0 DUP1 REVERT JUMPDEST PUSH2 0x60 PUSH1 0x4 DUP1 CALLDATASIZE SUB DUP2 ADD SWAP1 PUSH2 0x5B SWAP2 SWAP1 PUSH2 0x7CC JUMP JUMPDEST PUSH2 0xB4 JUMP JUMPDEST PUSH1 0x40 MLOAD PUSH2 0x6F SWAP4 SWAP3 SWAP2 SWAP1 PUSH2 0x889 JUMP JUMPDEST PUSH1 0x40 MLOAD DUP1 SWAP2 SUB SWAP1 RETURN JUMPDEST PUSH2 0x92 PUSH1 0x4 DUP1 CALLDATASIZE SUB DUP2 ADD SWAP1 PUSH2 0x8D SWAP2 SWAP1 PUSH2 0xA0A JUMP JUMPDEST PUSH2 0x276 JUMP JUMPDEST STOP JUMPDEST PUSH2 0x9C PUSH2 0x4C7 JUMP JUMPDEST PUSH1 0x40 MLOAD PUSH2 0xAB SWAP4 SWAP3 SWAP2 SWAP1 PUSH2 0x889 JUMP JUMPDEST PUSH1 0x40 MLOAD DUP1 SWAP2 SUB SWAP1 RETURN JUMPDEST PUSH1 0x0 PUSH1 0x20 MSTORE DUP1 PUSH1 0x0 MSTORE PUSH1 0x40 PUSH1 0x0 KECCAK256 PUSH1 0x0 SWAP2 POP SWAP1 POP DUP1 PUSH1 0x0 ADD DUP1 SLOAD PUSH2 0xD7 SWAP1 PUSH2 0xAE0 JUMP JUMPDEST DUP1 PUSH1 0x1F ADD PUSH1 0x20 DUP1 SWAP2 DIV MUL PUSH1 0x20 ADD PUSH1 0x40 MLOAD SWAP1 DUP2 ADD PUSH1 0x40 MSTORE DUP1 SWAP3 SWAP2 SWAP1 DUP2 DUP2 MSTORE PUSH1 0x20 ADD DUP3 DUP1 SLOAD PUSH2 0x103 SWAP1 PUSH2 0xAE0 JUMP JUMPDEST DUP1 ISZERO PUSH2 0x150 JUMPI DUP1 PUSH1 0x1F LT PUSH2 0x125 JUMPI PUSH2 0x100 DUP1 DUP4 SLOAD DIV MUL DUP4 MSTORE SWAP2 PUSH1 0x20 ADD SWAP2 PUSH2 0x150 JUMP JUMPDEST DUP3 ADD SWAP2 SWAP1 PUSH1 0x0 MSTORE PUSH1 0x20 PUSH1 0x0 KECCAK256 SWAP1 JUMPDEST DUP2 SLOAD DUP2 MSTORE SWAP1 PUSH1 0x1 ADD SWAP1 PUSH1 0x20 ADD DUP1 DUP4 GT PUSH2 0x133 JUMPI DUP3 SWAP1 SUB PUSH1 0x1F AND DUP3 ADD SWAP2 JUMPDEST POP POP POP POP POP SWAP1 DUP1 PUSH1 0x1 ADD DUP1 SLOAD PUSH2 0x165 SWAP1 PUSH2 0xAE0 JUMP JUMPDEST DUP1 PUSH1 0x1F ADD PUSH1 0x20 DUP1 SWAP2 DIV MUL PUSH1 0x20 ADD PUSH1 0x40 MLOAD SWAP1 DUP2 ADD PUSH1 0x40 MSTORE DUP1 SWAP3 SWAP2 SWAP1 DUP2 DUP2 MSTORE PUSH1 0x20 ADD DUP3 DUP1 SLOAD PUSH2 0x191 SWAP1 PUSH2 0xAE0 JUMP JUMPDEST DUP1 ISZERO PUSH2 0x1DE JUMPI DUP1 PUSH1 0x1F LT PUSH2 0x1B3 JUMPI PUSH2 0x100 DUP1 DUP4 SLOAD DIV MUL DUP4 MSTORE SWAP2 PUSH1 0x20 ADD SWAP2 PUSH2 0x1DE JUMP JUMPDEST DUP3 ADD SWAP2 SWAP1 PUSH1 0x0 MSTORE PUSH1 0x20 PUSH1 0x0 KECCAK256 SWAP1 JUMPDEST DUP2 SLOAD DUP2 MSTORE SWAP1 PUSH1 0x1 ADD SWAP1 PUSH1 0x20 ADD DUP1 DUP4 GT PUSH2 0x1C1 JUMPI DUP3 SWAP1 SUB PUSH1 0x1F AND DUP3 ADD SWAP2 JUMPDEST POP POP POP POP POP SWAP1 DUP1 PUSH1 0x2 ADD DUP1 SLOAD PUSH2 0x1F3 SWAP1 PUSH2 0xAE0 JUMP JUMPDEST DUP1 PUSH1 0x1F ADD PUSH1 0x20 DUP1 SWAP2 DIV MUL PUSH1 0x20 ADD PUSH1 0x40 MLOAD SWAP1 DUP2 ADD PUSH1 0x40 MSTORE DUP1 SWAP3 SWAP2 SWAP1 DUP2 DUP2 MSTORE PUSH1 0x20 ADD DUP3 DUP1 SLOAD PUSH2 0x21F SWAP1 PUSH2 0xAE0 JUMP JUMPDEST DUP1 ISZERO PUSH2 0x26C JUMPI DUP1 PUSH1 0x1F LT PUSH2 0x241 JUMPI PUSH2 0x100 DUP1 DUP4 SLOAD DIV MUL DUP4 MSTORE SWAP2 PUSH1 0x20 ADD SWAP2 PUSH2 0x26C JUMP JUMPDEST DUP3 ADD SWAP2 SWAP1 PUSH1 0x0 MSTORE PUSH1 0x20 PUSH1 0x0 KECCAK256 SWAP1 JUMPDEST DUP2 SLOAD DUP2 MSTORE SWAP1 PUSH1 0x1 ADD SWAP1 PUSH1 0x20 ADD DUP1 DUP4 GT PUSH2 0x24F JUMPI DUP3 SWAP1 SUB PUSH1 0x1F AND DUP3 ADD SWAP2 JUMPDEST POP POP POP POP POP SWAP1 POP DUP4 JUMP JUMPDEST PUSH1 0x0 DUP4 MLOAD GT PUSH2 0x2BA JUMPI PUSH1 0x40 MLOAD PUSH32 0x8C379A000000000000000000000000000000000000000000000000000000000 DUP2 MSTORE PUSH1 0x4 ADD PUSH2 0x2B1 SWAP1 PUSH2 0xB5D JUMP JUMPDEST PUSH1 0x40 MLOAD DUP1 SWAP2 SUB SWAP1 REVERT JUMPDEST PUSH1 0x0 DUP3 MLOAD GT PUSH2 0x2FE JUMPI PUSH1 0x40 MLOAD PUSH32 0x8C379A000000000000000000000000000000000000000000000000000000000 DUP2 MSTORE PUSH1 0x4 ADD PUSH2 0x2F5 SWAP1 PUSH2 0xBC9 JUMP JUMPDEST PUSH1 0x40 MLOAD DUP1 SWAP2 SUB SWAP1 REVERT JUMPDEST PUSH1 0x0 DUP2 MLOAD GT PUSH2 0x342 JUMPI PUSH1 0x40 MLOAD PUSH32 0x8C379A000000000000000000000000000000000000000000000000000000000 DUP2 MSTORE PUSH1 0x4 ADD PUSH2 0x339 SWAP1 PUSH2 0xC35 JUMP JUMPDEST PUSH1 0x40 MLOAD DUP1 SWAP2 SUB SWAP1 REVERT JUMPDEST PUSH1 0x0 DUP1 PUSH1 0x0 CALLER PUSH20 0xFFFFFFFFFFFFFFFFFFFFFFFFFFFFFFFFFFFFFFFF AND PUSH20 0xFFFFFFFFFFFFFFFFFFFFFFFFFFFFFFFFFFFFFFFF AND DUP2 MSTORE PUSH1 0x20 ADD SWAP1 DUP2 MSTORE PUSH1 0x20 ADD PUSH1 0x0 KECCAK256 PUSH1 0x0 ADD DUP1 SLOAD PUSH2 0x390 SWAP1 PUSH2 0xAE0 JUMP JUMPDEST SWAP1 POP EQ PUSH2 0x3D2 JUMPI PUSH1 0x40 MLOAD PUSH32 0x8C379A000000000000000000000000000000000000000000000000000000000 DUP2 MSTORE PUSH1 0x4 ADD PUSH2 0x3C9 SWAP1 PUSH2 0xCA1 JUMP JUMPDEST PUSH1 0x40 MLOAD DUP1 SWAP2 SUB SWAP1 REVERT JUMPDEST PUSH1 0x40 MLOAD DUP1 PUSH1 0x60 ADD PUSH1 0x40 MSTORE DUP1 DUP5 DUP2 MSTORE PUSH1 0x20 ADD DUP4 DUP2 MSTORE PUSH1 0x20 ADD DUP3 DUP2 MSTORE POP PUSH1 0x0 DUP1 CALLER PUSH20 0xFFFFFFFFFFFFFFFFFFFFFFFFFFFFFFFFFFFFFFFF AND PUSH20 0xFFFFFFFFFFFFFFFFFFFFFFFFFFFFFFFFFFFFFFFF AND DUP2 MSTORE PUSH1 0x20 ADD SWAP1 DUP2 MSTORE PUSH1 0x20 ADD PUSH1 0x0 KECCAK256 PUSH1 0x0 DUP3 ADD MLOAD DUP2 PUSH1 0x0 ADD SWAP1 DUP2 PUSH2 0x440 SWAP2 SWAP1 PUSH2 0xE77 JUMP JUMPDEST POP PUSH1 0x20 DUP3 ADD MLOAD DUP2 PUSH1 0x1 ADD SWAP1 DUP2 PUSH2 0x456 SWAP2 SWAP1 PUSH2 0xE77 JUMP JUMPDEST POP PUSH1 0x40 DUP3 ADD MLOAD DUP2 PUSH1 0x2 ADD SWAP1 DUP2 PUSH2 0x46C SWAP2 SWAP1 PUSH2 0xE77 JUMP JUMPDEST POP SWAP1 POP POP CALLER PUSH20 0xFFFFFFFFFFFFFFFFFFFFFFFFFFFFFFFFFFFFFFFF AND PUSH32 0x77C378673324822AD159B021C3CE202D7676946FF3967162024B660A493E64B3 DUP5 DUP5 DUP5 PUSH1 0x40 MLOAD PUSH2 0x4BA SWAP4 SWAP3 SWAP2 SWAP1 PUSH2 0x889 JUMP JUMPDEST PUSH1 0x40 MLOAD DUP1 SWAP2 SUB SWAP1 LOG2 POP POP POP JUMP JUMPDEST PUSH1 0x60 DUP1 PUSH1 0x60 PUSH1 0x0 DUP1 PUSH1 0x0 CALLER PUSH20 0xFFFFFFFFFFFFFFFFFFFFFFFFFFFFFFFFFFFFFFFF AND PUSH20 0xFFFFFFFFFFFFFFFFFFFFFFFFFFFFFFFFFFFFFFFF AND DUP2 MSTORE PUSH1 0x20 ADD SWAP1 DUP2 MSTORE PUSH1 0x20 ADD PUSH1 0x0 KECCAK256 PUSH1 0x0 ADD DUP1 SLOAD PUSH2 0x51A SWAP1 PUSH2 0xAE0 JUMP JUMPDEST SWAP1 POP GT PUSH2 0x55C JUMPI PUSH1 0x40 MLOAD PUSH32 0x8C379A000000000000000000000000000000000000000000000000000000000 DUP2 MSTORE PUSH1 0x4 ADD PUSH2 0x553 SWAP1 PUSH2 0xFBB JUMP JUMPDEST PUSH1 0x40 MLOAD DUP1 SWAP2 SUB SWAP1 REVERT JUMPDEST PUSH1 0x0 DUP1 PUSH1 0x0 CALLER PUSH20 0xFFFFFFFFFFFFFFFFFFFFFFFFFFFFFFFFFFFFFFFF AND PUSH20 0xFFFFFFFFFFFFFFFFFFFFFFFFFFFFFFFFFFFFFFFF AND DUP2 MSTORE PUSH1 0x20 ADD SWAP1 DUP2 MSTORE PUSH1 0x20 ADD PUSH1 0x0 KECCAK256 SWAP1 POP DUP1 PUSH1 0x0 ADD DUP2 PUSH1 0x1 ADD DUP3 PUSH1 0x2 ADD DUP3 DUP1 SLOAD PUSH2 0x5B6 SWAP1 PUSH2 0xAE0 JUMP JUMPDEST DUP1 PUSH1 0x1F ADD PUSH1 0x20 DUP1 SWAP2 DIV MUL PUSH1 0x20 ADD PUSH1 0x40 MLOAD SWAP1 DUP2 ADD PUSH1 0x40 MSTORE DUP1 SWAP3 SWAP2 SWAP1 DUP2 DUP2 MSTORE PUSH1 0x20 ADD DUP3 DUP1 SLOAD PUSH2 0x5E2 SWAP1 PUSH2 0xAE0 JUMP JUMPDEST DUP1 ISZERO PUSH2 0x62F JUMPI DUP1 PUSH1 0x1F LT PUSH2 0x604 JUMPI PUSH2 0x100 DUP1 DUP4 SLOAD DIV MUL DUP4 MSTORE SWAP2 PUSH1 0x20 ADD SWAP2 PUSH2 0x62F JUMP JUMPDEST DUP3 ADD SWAP2 SWAP1 PUSH1 0x0 MSTORE PUSH1 0x20 PUSH1 0x0 KECCAK256 SWAP1 JUMPDEST DUP2 SLOAD DUP2 MSTORE SWAP1 PUSH1 0x1 ADD SWAP1 PUSH1 0x20 ADD DUP1 DUP4 GT PUSH2 0x612 JUMPI DUP3 SWAP1 SUB PUSH1 0x1F AND DUP3 ADD SWAP2 JUMPDEST POP POP POP POP POP SWAP3 POP DUP2 DUP1 SLOAD PUSH2 0x642 SWAP1 PUSH2 0xAE0 JUMP JUMPDEST DUP1 PUSH1 0x1F ADD PUSH1 0x20 DUP1 SWAP2 DIV MUL PUSH1 0x20 ADD PUSH1 0x40 MLOAD SWAP1 DUP2 ADD PUSH1 0x40 MSTORE DUP1 SWAP3 SWAP2 SWAP1 DUP2 DUP2 MSTORE PUSH1 0x20 ADD DUP3 DUP1 SLOAD PUSH2 0x66E SWAP1 PUSH2 0xAE0 JUMP JUMPDEST DUP1 ISZERO PUSH2 0x6BB JUMPI DUP1 PUSH1 0x1F LT PUSH2 0x690 JUMPI PUSH2 0x100 DUP1 DUP4 SLOAD DIV MUL DUP4 MSTORE SWAP2 PUSH1 0x20 ADD SWAP2 PUSH2 0x6BB JUMP JUMPDEST DUP3 ADD SWAP2 SWAP1 PUSH1 0x0 MSTORE PUSH1 0x20 PUSH1 0x0 KECCAK256 SWAP1 JUMPDEST DUP2 SLOAD DUP2 MSTORE SWAP1 PUSH1 0x1 ADD SWAP1 PUSH1 0x20 ADD DUP1 DUP4 GT PUSH2 0x69E JUMPI DUP3 SWAP1 SUB PUSH1 0x1F AND DUP3 ADD SWAP2 JUMPDEST POP POP POP POP POP SWAP2 POP DUP1 DUP1 SLOAD PUSH2 0x6CE SWAP1 PUSH2 0xAE0 JUMP JUMPDEST DUP1 PUSH1 0x1F ADD PUSH1 0x20 DUP1 SWAP2 DIV MUL PUSH1 0x20 ADD PUSH1 0x40 MLOAD SWAP1 DUP2 ADD PUSH1 0x40 MSTORE DUP1 SWAP3 SWAP2 SWAP1 DUP2 DUP2 MSTORE PUSH1 0x20 ADD DUP3 DUP1 SLOAD PUSH2 0x6FA SWAP1 PUSH2 0xAE0 JUMP JUMPDEST DUP1 ISZERO PUSH2 0x747 JUMPI DUP1 PUSH1 0x1F LT PUSH2 0x71C JUMPI PUSH2 0x100 DUP1 DUP4 SLOAD DIV MUL DUP4 MSTORE SWAP2 PUSH1 0x20 ADD SWAP2 PUSH2 0x747 JUMP JUMPDEST DUP3 ADD SWAP2 SWAP1 PUSH1 0x0 MSTORE PUSH1 0x20 PUSH1 0x0 KECCAK256 SWAP1 JUMPDEST DUP2 SLOAD DUP2 MSTORE SWAP1 PUSH1 0x1 ADD SWAP1 PUSH1 0x20 ADD DUP1 DUP4 GT PUSH2 0x72A JUMPI DUP3 SWAP1 SUB PUSH1 0x1F AND DUP3 ADD SWAP2 JUMPDEST POP POP POP POP POP SWAP1 POP SWAP4 POP SWAP4 POP SWAP4 POP POP SWAP1 SWAP2 SWAP3 JUMP JUMPDEST PUSH1 0x0 PUSH1 0x40 MLOAD SWAP1 POP SWAP1 JUMP JUMPDEST PUSH1 0x0 DUP1 REVERT JUMPDEST PUSH1 0x0 DUP1 REVERT JUMPDEST PUSH1 0x0 PUSH20 0xFFFFFFFFFFFFFFFFFFFFFFFFFFFFFFFFFFFFFFFF DUP3 AND SWAP1 POP SWAP2 SWAP1 POP JUMP JUMPDEST PUSH1 0x0 PUSH2 0x799 DUP3 PUSH2 0x76E JUMP JUMPDEST SWAP1 POP SWAP2 SWAP1 POP JUMP JUMPDEST PUSH2 0x7A9 DUP2 PUSH2 0x78E JUMP JUMPDEST DUP2 EQ PUSH2 0x7B4 JUMPI PUSH1 0x0 DUP1 REVERT JUMPDEST POP JUMP JUMPDEST PUSH1 0x0 DUP2 CALLDATALOAD SWAP1 POP PUSH2 0x7C6 DUP2 PUSH2 0x7A0 JUMP JUMPDEST SWAP3 SWAP2 POP POP JUMP JUMPDEST PUSH1 0x0 PUSH1 0x20 DUP3 DUP5 SUB SLT ISZERO PUSH2 0x7E2 JUMPI PUSH2 0x7E1 PUSH2 0x764 JUMP JUMPDEST JUMPDEST PUSH1 0x0 PUSH2 0x7F0 DUP5 DUP3 DUP6 ADD PUSH2 0x7B7 JUMP JUMPDEST SWAP2 POP POP SWAP3 SWAP2 POP POP JUMP JUMPDEST PUSH1 0x0 DUP2 MLOAD SWAP1 POP SWAP2 SWAP1 POP JUMP JUMPDEST PUSH1 0x0 DUP3 DUP3 MSTORE PUSH1 0x20 DUP3 ADD SWAP1 POP SWAP3 SWAP2 POP POP JUMP JUMPDEST PUSH1 0x0 JUMPDEST DUP4 DUP2 LT ISZERO PUSH2 0x833 JUMPI DUP1 DUP3 ADD MLOAD DUP2 DUP5 ADD MSTORE PUSH1 0x20 DUP2 ADD SWAP1 POP PUSH2 0x818 JUMP JUMPDEST PUSH1 0x0 DUP5 DUP5 ADD MSTORE POP POP POP POP JUMP JUMPDEST PUSH1 0x0 PUSH1 0x1F NOT PUSH1 0x1F DUP4 ADD AND SWAP1 POP SWAP2 SWAP1 POP JUMP JUMPDEST PUSH1 0x0 PUSH2 0x85B DUP3 PUSH2 0x7F9 JUMP JUMPDEST PUSH2 0x865 DUP2 DUP6 PUSH2 0x804 JUMP JUMPDEST SWAP4 POP PUSH2 0x875 DUP2 DUP6 PUSH1 0x20 DUP7 ADD PUSH2 0x815 JUMP JUMPDEST PUSH2 0x87E DUP2 PUSH2 0x83F JUMP JUMPDEST DUP5 ADD SWAP2 POP POP SWAP3 SWAP2 POP POP JUMP JUMPDEST PUSH1 0x0 PUSH1 0x60 DUP3 ADD SWAP1 POP DUP2 DUP2 SUB PUSH1 0x0 DUP4 ADD MSTORE PUSH2 0x8A3 DUP2 DUP7 PUSH2 0x850 JUMP JUMPDEST SWAP1 POP DUP2 DUP2 SUB PUSH1 0x20 DUP4 ADD MSTORE PUSH2 0x8B7 DUP2 DUP6 PUSH2 0x850 JUMP JUMPDEST SWAP1 POP DUP2 DUP2 SUB PUSH1 0x40 DUP4 ADD MSTORE PUSH2 0x8CB DUP2 DUP5 PUSH2 0x850 JUMP JUMPDEST SWAP1 POP SWAP5 SWAP4 POP POP POP POP JUMP JUMPDEST PUSH1 0x0 DUP1 REVERT JUMPDEST PUSH1 0x0 DUP1 REVERT JUMPDEST PUSH32 0x4E487B7100000000000000000000000000000000000000000000000000000000 PUSH1 0x0 MSTORE PUSH1 0x41 PUSH1 0x4 MSTORE PUSH1 0x24 PUSH1 0x0 REVERT JUMPDEST PUSH2 0x917 DUP3 PUSH2 0x83F JUMP JUMPDEST DUP2 ADD DUP2 DUP2 LT PUSH8 0xFFFFFFFFFFFFFFFF DUP3 GT OR ISZERO PUSH2 0x936 JUMPI PUSH2 0x935 PUSH2 0x8DF JUMP JUMPDEST JUMPDEST DUP1 PUSH1 0x40 MSTORE POP POP POP JUMP JUMPDEST PUSH1 0x0 PUSH2 0x949 PUSH2 0x75A JUMP JUMPDEST SWAP1 POP PUSH2 0x955 DUP3 DUP3 PUSH2 0x90E JUMP JUMPDEST SWAP2 SWAP1 POP JUMP JUMPDEST PUSH1 0x0 PUSH8 0xFFFFFFFFFFFFFFFF DUP3 GT ISZERO PUSH2 0x975 JUMPI PUSH2 0x974 PUSH2 0x8DF JUMP JUMPDEST JUMPDEST PUSH2 0x97E DUP3 PUSH2 0x83F JUMP JUMPDEST SWAP1 POP PUSH1 0x20 DUP2 ADD SWAP1 POP SWAP2 SWAP1 POP JUMP JUMPDEST DUP3 DUP2 DUP4 CALLDATACOPY PUSH1 0x0 DUP4 DUP4 ADD MSTORE POP POP POP JUMP JUMPDEST PUSH1 0x0 PUSH2 0x9AD PUSH2 0x9A8 DUP5 PUSH2 0x95A JUMP JUMPDEST PUSH2 0x93F JUMP JUMPDEST SWAP1 POP DUP3 DUP2 MSTORE PUSH1 0x20 DUP2 ADD DUP5 DUP5 DUP5 ADD GT ISZERO PUSH2 0x9C9 JUMPI PUSH2 0x9C8 PUSH2 0x8DA JUMP JUMPDEST JUMPDEST PUSH2 0x9D4 DUP5 DUP3 DUP6 PUSH2 0x98B JUMP JUMPDEST POP SWAP4 SWAP3 POP POP POP JUMP JUMPDEST PUSH1 0x0 DUP3 PUSH1 0x1F DUP4 ADD SLT PUSH2 0x9F1 JUMPI PUSH2 0x9F0 PUSH2 0x8D5 JUMP JUMPDEST JUMPDEST DUP2 CALLDATALOAD PUSH2 0xA01 DUP5 DUP3 PUSH1 0x20 DUP7 ADD PUSH2 0x99A JUMP JUMPDEST SWAP2 POP POP SWAP3 SWAP2 POP POP JUMP JUMPDEST PUSH1 0x0 DUP1 PUSH1 0x0 PUSH1 0x60 DUP5 DUP7 SUB SLT ISZERO PUSH2 0xA23 JUMPI PUSH2 0xA22 PUSH2 0x764 JUMP JUMPDEST JUMPDEST PUSH1 0x0 DUP5 ADD CALLDATALOAD PUSH8 0xFFFFFFFFFFFFFFFF DUP2 GT ISZERO PUSH2 0xA41 JUMPI PUSH2 0xA40 PUSH2 0x769 JUMP JUMPDEST JUMPDEST PUSH2 0xA4D DUP7 DUP3 DUP8 ADD PUSH2 0x9DC JUMP JUMPDEST SWAP4 POP POP PUSH1 0x20 DUP5 ADD CALLDATALOAD PUSH8 0xFFFFFFFFFFFFFFFF DUP2 GT ISZERO PUSH2 0xA6E JUMPI PUSH2 0xA6D PUSH2 0x769 JUMP JUMPDEST JUMPDEST PUSH2 0xA7A DUP7 DUP3 DUP8 ADD PUSH2 0x9DC JUMP JUMPDEST SWAP3 POP POP PUSH1 0x40 DUP5 ADD CALLDATALOAD PUSH8 0xFFFFFFFFFFFFFFFF DUP2 GT ISZERO PUSH2 0xA9B JUMPI PUSH2 0xA9A PUSH2 0x769 JUMP JUMPDEST JUMPDEST PUSH2 0xAA7 DUP7 DUP3 DUP8 ADD PUSH2 0x9DC JUMP JUMPDEST SWAP2 POP POP SWAP3 POP SWAP3 POP SWAP3 JUMP JUMPDEST PUSH32 0x4E487B7100000000000000000000000000000000000000000000000000000000 PUSH1 0x0 MSTORE PUSH1 0x22 PUSH1 0x4 MSTORE PUSH1 0x24 PUSH1 0x0 REVERT JUMPDEST PUSH1 0x0 PUSH1 0x2 DUP3 DIV SWAP1 POP PUSH1 0x1 DUP3 AND DUP1 PUSH2 0xAF8 JUMPI PUSH1 0x7F DUP3 AND SWAP2 POP JUMPDEST PUSH1 0x20 DUP3 LT DUP2 SUB PUSH2 0xB0B JUMPI PUSH2 0xB0A PUSH2 0xAB1 JUMP JUMPDEST JUMPDEST POP SWAP2 SWAP1 POP JUMP JUMPDEST PUSH32 0x4E616D652063616E6E6F7420626520656D707479000000000000000000000000 PUSH1 0x0 DUP3 ADD MSTORE POP JUMP JUMPDEST PUSH1 0x0 PUSH2 0xB47 PUSH1 0x14 DUP4 PUSH2 0x804 JUMP JUMPDEST SWAP2 POP PUSH2 0xB52 DUP3 PUSH2 0xB11 JUMP JUMPDEST PUSH1 0x20 DUP3 ADD SWAP1 POP SWAP2 SWAP1 POP JUMP JUMPDEST PUSH1 0x0 PUSH1 0x20 DUP3 ADD SWAP1 POP DUP2 DUP2 SUB PUSH1 0x0 DUP4 ADD MSTORE PUSH2 0xB76 DUP2 PUSH2 0xB3A JUMP JUMPDEST SWAP1 POP SWAP2 SWAP1 POP JUMP JUMPDEST PUSH32 0x456D61696C2063616E6E6F7420626520656D7074790000000000000000000000 PUSH1 0x0 DUP3 ADD MSTORE POP JUMP JUMPDEST PUSH1 0x0 PUSH2 0xBB3 PUSH1 0x15 DUP4 PUSH2 0x804 JUMP JUMPDEST SWAP2 POP PUSH2 0xBBE DUP3 PUSH2 0xB7D JUMP JUMPDEST PUSH1 0x20 DUP3 ADD SWAP1 POP SWAP2 SWAP1 POP JUMP JUMPDEST PUSH1 0x0 PUSH1 0x20 DUP3 ADD SWAP1 POP DUP2 DUP2 SUB PUSH1 0x0 DUP4 ADD MSTORE PUSH2 0xBE2 DUP2 PUSH2 0xBA6 JUMP JUMPDEST SWAP1 POP SWAP2 SWAP1 POP JUMP JUMPDEST PUSH32 0x506963747572652055524C2063616E6E6F7420626520656D7074790000000000 PUSH1 0x0 DUP3 ADD MSTORE POP JUMP JUMPDEST PUSH1 0x0 PUSH2 0xC1F PUSH1 0x1B DUP4 PUSH2 0x804 JUMP JUMPDEST SWAP2 POP PUSH2 0xC2A DUP3 PUSH2 0xBE9 JUMP JUMPDEST PUSH1 0x20 DUP3 ADD SWAP1 POP SWAP2 SWAP1 POP JUMP JUMPDEST PUSH1 0x0 PUSH1 0x20 DUP3 ADD SWAP1 POP DUP2 DUP2 SUB PUSH1 0x0 DUP4 ADD MSTORE PUSH2 0xC4E DUP2 PUSH2 0xC12 JUMP JUMPDEST SWAP1 POP SWAP2 SWAP1 POP JUMP JUMPDEST PUSH32 0x50726F66696C6520616C72656164792065786973747320666F72207573657221 PUSH1 0x0 DUP3 ADD MSTORE POP JUMP JUMPDEST PUSH1 0x0 PUSH2 0xC8B PUSH1 0x20 DUP4 PUSH2 0x804 JUMP JUMPDEST SWAP2 POP PUSH2 0xC96 DUP3 PUSH2 0xC55 JUMP JUMPDEST PUSH1 0x20 DUP3 ADD SWAP1 POP SWAP2 SWAP1 POP JUMP JUMPDEST PUSH1 0x0 PUSH1 0x20 DUP3 ADD SWAP1 POP DUP2 DUP2 SUB PUSH1 0x0 DUP4 ADD MSTORE PUSH2 0xCBA DUP2 PUSH2 0xC7E JUMP JUMPDEST SWAP1 POP SWAP2 SWAP1 POP JUMP JUMPDEST PUSH1 0x0 DUP2 SWAP1 POP DUP2 PUSH1 0x0 MSTORE PUSH1 0x20 PUSH1 0x0 KECCAK256 SWAP1 POP SWAP2 SWAP1 POP JUMP JUMPDEST PUSH1 0x0 PUSH1 0x20 PUSH1 0x1F DUP4 ADD DIV SWAP1 POP SWAP2 SWAP1 POP JUMP JUMPDEST PUSH1 0x0 DUP3 DUP3 SHL SWAP1 POP SWAP3 SWAP2 POP POP JUMP JUMPDEST PUSH1 0x0 PUSH1 0x8 DUP4 MUL PUSH2 0xD23 PUSH32 0xFFFFFFFFFFFFFFFFFFFFFFFFFFFFFFFFFFFFFFFFFFFFFFFFFFFFFFFFFFFFFFFF DUP3 PUSH2 0xCE6 JUMP JUMPDEST PUSH2 0xD2D DUP7 DUP4 PUSH2 0xCE6 JUMP JUMPDEST SWAP6 POP DUP1 NOT DUP5 AND SWAP4 POP DUP1 DUP7 AND DUP5 OR SWAP3 POP POP POP SWAP4 SWAP3 POP POP POP JUMP JUMPDEST PUSH1 0x0 DUP2 SWAP1 POP SWAP2 SWAP1 POP JUMP JUMPDEST PUSH1 0x0 DUP2 SWAP1 POP SWAP2 SWAP1 POP JUMP JUMPDEST PUSH1 0x0 PUSH2 0xD74 PUSH2 0xD6F PUSH2 0xD6A DUP5 PUSH2 0xD45 JUMP JUMPDEST PUSH2 0xD4F JUMP JUMPDEST PUSH2 0xD45 JUMP JUMPDEST SWAP1 POP SWAP2 SWAP1 POP JUMP JUMPDEST PUSH1 0x0 DUP2 SWAP1 POP SWAP2 SWAP1 POP JUMP JUMPDEST PUSH2 0xD8E DUP4 PUSH2 0xD59 JUMP JUMPDEST PUSH2 0xDA2 PUSH2 0xD9A DUP3 PUSH2 0xD7B JUMP JUMPDEST DUP5 DUP5 SLOAD PUSH2 0xCF3 JUMP JUMPDEST DUP3 SSTORE POP POP POP POP JUMP JUMPDEST PUSH1 0x0 SWAP1 JUMP JUMPDEST PUSH2 0xDB7 PUSH2 0xDAA JUMP JUMPDEST PUSH2 0xDC2 DUP2 DUP5 DUP5 PUSH2 0xD85 JUMP JUMPDEST POP POP POP JUMP JUMPDEST JUMPDEST DUP2 DUP2 LT ISZERO PUSH2 0xDE6 JUMPI PUSH2 0xDDB PUSH1 0x0 DUP3 PUSH2 0xDAF JUMP JUMPDEST PUSH1 0x1 DUP2 ADD SWAP1 POP PUSH2 0xDC8 JUMP JUMPDEST POP POP JUMP JUMPDEST PUSH1 0x1F DUP3 GT ISZERO PUSH2 0xE2B JUMPI PUSH2 0xDFC DUP2 PUSH2 0xCC1 JUMP JUMPDEST PUSH2 0xE05 DUP5 PUSH2 0xCD6 JUMP JUMPDEST DUP2 ADD PUSH1 0x20 DUP6 LT ISZERO PUSH2 0xE14 JUMPI DUP2 SWAP1 POP JUMPDEST PUSH2 0xE28 PUSH2 0xE20 DUP6 PUSH2 0xCD6 JUMP JUMPDEST DUP4 ADD DUP3 PUSH2 0xDC7 JUMP JUMPDEST POP POP JUMPDEST POP POP POP JUMP JUMPDEST PUSH1 0x0 DUP3 DUP3 SHR SWAP1 POP SWAP3 SWAP2 POP POP JUMP JUMPDEST PUSH1 0x0 PUSH2 0xE4E PUSH1 0x0 NOT DUP5 PUSH1 0x8 MUL PUSH2 0xE30 JUMP JUMPDEST NOT DUP1 DUP4 AND SWAP2 POP POP SWAP3 SWAP2 POP POP JUMP JUMPDEST PUSH1 0x0 PUSH2 0xE67 DUP4 DUP4 PUSH2 0xE3D JUMP JUMPDEST SWAP2 POP DUP3 PUSH1 0x2 MUL DUP3 OR SWAP1 POP SWAP3 SWAP2 POP POP JUMP JUMPDEST PUSH2 0xE80 DUP3 PUSH2 0x7F9 JUMP JUMPDEST PUSH8 0xFFFFFFFFFFFFFFFF DUP2 GT ISZERO PUSH2 0xE99 JUMPI PUSH2 0xE98 PUSH2 0x8DF JUMP JUMPDEST JUMPDEST PUSH2 0xEA3 DUP3 SLOAD PUSH2 0xAE0 JUMP JUMPDEST PUSH2 0xEAE DUP3 DUP3 DUP6 PUSH2 0xDEA JUMP JUMPDEST PUSH1 0x0 PUSH1 0x20 SWAP1 POP PUSH1 0x1F DUP4 GT PUSH1 0x1 DUP2 EQ PUSH2 0xEE1 JUMPI PUSH1 0x0 DUP5 ISZERO PUSH2 0xECF JUMPI DUP3 DUP8 ADD MLOAD SWAP1 POP JUMPDEST PUSH2 0xED9 DUP6 DUP3 PUSH2 0xE5B JUMP JUMPDEST DUP7 SSTORE POP PUSH2 0xF41 JUMP JUMPDEST PUSH1 0x1F NOT DUP5 AND PUSH2 0xEEF DUP7 PUSH2 0xCC1 JUMP JUMPDEST PUSH1 0x0 JUMPDEST DUP3 DUP2 LT ISZERO PUSH2 0xF17 JUMPI DUP5 DUP10 ADD MLOAD DUP3 SSTORE PUSH1 0x1 DUP3 ADD SWAP2 POP PUSH1 0x20 DUP6 ADD SWAP5 POP PUSH1 0x20 DUP2 ADD SWAP1 POP PUSH2 0xEF2 JUMP JUMPDEST DUP7 DUP4 LT ISZERO PUSH2 0xF34 JUMPI DUP5 DUP10 ADD MLOAD PUSH2 0xF30 PUSH1 0x1F DUP10 AND DUP3 PUSH2 0xE3D JUMP JUMPDEST DUP4 SSTORE POP JUMPDEST PUSH1 0x1 PUSH1 0x2 DUP9 MUL ADD DUP9 SSTORE POP POP POP JUMPDEST POP POP POP POP POP POP JUMP JUMPDEST PUSH32 0x50726F66696C6520646F6573206E6F7420657869737420666F72207468652075 PUSH1 0x0 DUP3 ADD MSTORE PUSH32 0x7365722100000000000000000000000000000000000000000000000000000000 PUSH1 0x20 DUP3 ADD MSTORE POP JUMP JUMPDEST PUSH1 0x0 PUSH2 0xFA5 PUSH1 0x24 DUP4 PUSH2 0x804 JUMP JUMPDEST SWAP2 POP PUSH2 0xFB0 DUP3 PUSH2 0xF49 JUMP JUMPDEST PUSH1 0x40 DUP3 ADD SWAP1 POP SWAP2 SWAP1 POP JUMP JUMPDEST PUSH1 0x0 PUSH1 0x20 DUP3 ADD SWAP1 POP DUP2 DUP2 SUB PUSH1 0x0 DUP4 ADD MSTORE PUSH2 0xFD4 DUP2 PUSH2 0xF98 JUMP JUMPDEST SWAP1 POP SWAP2 SWAP1 POP JUMP INVALID LOG2 PUSH5 0x6970667358 0x22 SLT KECCAK256 PUSH4 0x65786DB8 0xB0 LOG3 0xD5 0xF CODESIZE 0xE8 PUSH1 0x7E 0xC2 0x23 RETURN 0xB8 LOG4 0xDD CALLER PUSH9 0x3E367EE7E47C878724 SWAP2 0xEF PUSH5 0x736F6C6343 STOP ADDMOD SLT STOP CALLER "
				},
				"gasEstimates": {
					"creation": {
						"codeDepositCost": "822600",
						"executionCost": "857",
						"totalCost": "823457"
					},
					"external": {
						"createProfile(string,string,string)": "infinite",
						"userInfos(address)": "infinite",
						"viewProfile()": "infinite"
					}
				},
				"methodIdentifiers": {
					"createProfile(string,string,string)": "9841c82c",
					"userInfos(address)": "43b0215f",
					"viewProfile()": "dbd638f6"
				}
			},
			"storageLayout": {
				"storage": [
					{
						"astId": 14,
						"contract": "TimeLockStakingDAPP/src/contracts/ProfileCreation.sol:ProfileCreation",
						"label": "userInfos",
						"offset": 0,
						"slot": "0",
						"type": "t_mapping(t_address,t_struct(UserInfo)9_storage)"
					}
				],
				"types": {
					"t_address": {
						"encoding": "inplace",
						"label": "address",
						"numberOfBytes": "20"
					},
					"t_mapping(t_address,t_struct(UserInfo)9_storage)": {
						"encoding": "mapping",
						"key": "t_address",
						"label": "mapping(address => struct ProfileCreation.UserInfo)",
						"numberOfBytes": "32",
						"value": "t_struct(UserInfo)9_storage"
					},
					"t_string_storage": {
						"encoding": "bytes",
						"label": "string",
						"numberOfBytes": "32"
					},
					"t_struct(UserInfo)9_storage": {
						"encoding": "inplace",
						"label": "struct ProfileCreation.UserInfo",
						"members": [
							{
								"astId": 4,
								"contract": "TimeLockStakingDAPP/src/contracts/ProfileCreation.sol:ProfileCreation",
								"label": "name",
								"offset": 0,
								"slot": "0",
								"type": "t_string_storage"
							},
							{
								"astId": 6,
								"contract": "TimeLockStakingDAPP/src/contracts/ProfileCreation.sol:ProfileCreation",
								"label": "email",
								"offset": 0,
								"slot": "1",
								"type": "t_string_storage"
							},
							{
								"astId": 8,
								"contract": "TimeLockStakingDAPP/src/contracts/ProfileCreation.sol:ProfileCreation",
								"label": "pictureUrl",
								"offset": 0,
								"slot": "2",
								"type": "t_string_storage"
							}
						],
						"numberOfBytes": "96"
					}
				}
			},
			"userdoc": {
				"kind": "user",
				"methods": {},
				"version": 1
			}
		}
	}
}