{
	"TimeLockStakingDAPP/src/contracts/StakingContract.sol": {
		"StakingContract": {
			"abi": [
				{
					"inputs": [
						{
							"internalType": "uint256",
							"name": "_interestRate",
							"type": "uint256"
						},
						{
							"internalType": "address",
							"name": "_depositToken",
							"type": "address"
						},
						{
							"internalType": "address",
							"name": "_returnToken",
							"type": "address"
						}
					],
					"stateMutability": "nonpayable",
					"type": "constructor"
				},
				{
					"anonymous": false,
					"inputs": [
						{
							"indexed": true,
							"internalType": "address",
							"name": "user",
							"type": "address"
						},
						{
							"indexed": false,
							"internalType": "uint256",
							"name": "amount",
							"type": "uint256"
						}
					],
					"name": "Claim",
					"type": "event"
				},
				{
					"anonymous": false,
					"inputs": [
						{
							"indexed": true,
							"internalType": "address",
							"name": "user",
							"type": "address"
						},
						{
							"indexed": false,
							"internalType": "uint256",
							"name": "amount",
							"type": "uint256"
						},
						{
							"indexed": false,
							"internalType": "uint256",
							"name": "duration",
							"type": "uint256"
						}
					],
					"name": "Deposit",
					"type": "event"
				},
				{
					"inputs": [
						{
							"internalType": "uint256",
							"name": "amount",
							"type": "uint256"
						},
						{
							"internalType": "uint256",
							"name": "duration",
							"type": "uint256"
						}
					],
					"name": "createDeposit",
					"outputs": [],
					"stateMutability": "nonpayable",
					"type": "function"
				},
				{
					"inputs": [],
					"name": "depositToken",
					"outputs": [
						{
							"internalType": "contract IERC20",
							"name": "",
							"type": "address"
						}
					],
					"stateMutability": "view",
					"type": "function"
				},
				{
					"inputs": [
						{
							"internalType": "address",
							"name": "user",
							"type": "address"
						}
					],
					"name": "getReturns",
					"outputs": [],
					"stateMutability": "nonpayable",
					"type": "function"
				},
				{
					"inputs": [
						{
							"internalType": "address",
							"name": "user",
							"type": "address"
						}
					],
					"name": "getTotalReturns",
					"outputs": [
						{
							"internalType": "uint256",
							"name": "",
							"type": "uint256"
						}
					],
					"stateMutability": "view",
					"type": "function"
				},
				{
					"inputs": [
						{
							"internalType": "address",
							"name": "user",
							"type": "address"
						}
					],
					"name": "getTotalStakes",
					"outputs": [
						{
							"internalType": "uint256",
							"name": "",
							"type": "uint256"
						}
					],
					"stateMutability": "view",
					"type": "function"
				},
				{
					"inputs": [
						{
							"internalType": "address",
							"name": "user",
							"type": "address"
						}
					],
					"name": "getUserStakes",
					"outputs": [
						{
							"components": [
								{
									"internalType": "uint256",
									"name": "amount",
									"type": "uint256"
								},
								{
									"internalType": "uint256",
									"name": "startTime",
									"type": "uint256"
								},
								{
									"internalType": "uint256",
									"name": "endTime",
									"type": "uint256"
								},
								{
									"internalType": "uint256",
									"name": "lastClaimTime",
									"type": "uint256"
								}
							],
							"internalType": "struct StakingContract.Stake[]",
							"name": "",
							"type": "tuple[]"
						}
					],
					"stateMutability": "view",
					"type": "function"
				},
				{
					"inputs": [],
					"name": "interestRate",
					"outputs": [
						{
							"internalType": "uint256",
							"name": "",
							"type": "uint256"
						}
					],
					"stateMutability": "view",
					"type": "function"
				},
				{
					"inputs": [],
					"name": "owner",
					"outputs": [
						{
							"internalType": "address",
							"name": "",
							"type": "address"
						}
					],
					"stateMutability": "view",
					"type": "function"
				},
				{
					"inputs": [],
					"name": "returnToken",
					"outputs": [
						{
							"internalType": "contract IERC20",
							"name": "",
							"type": "address"
						}
					],
					"stateMutability": "view",
					"type": "function"
				},
				{
					"inputs": [
						{
							"internalType": "address",
							"name": "",
							"type": "address"
						},
						{
							"internalType": "uint256",
							"name": "",
							"type": "uint256"
						}
					],
					"name": "stakes",
					"outputs": [
						{
							"internalType": "uint256",
							"name": "amount",
							"type": "uint256"
						},
						{
							"internalType": "uint256",
							"name": "startTime",
							"type": "uint256"
						},
						{
							"internalType": "uint256",
							"name": "endTime",
							"type": "uint256"
						},
						{
							"internalType": "uint256",
							"name": "lastClaimTime",
							"type": "uint256"
						}
					],
					"stateMutability": "view",
					"type": "function"
				}
			],
			"devdoc": {
				"kind": "dev",
				"methods": {},
				"version": 1
			},
			"evm": {
				"assembly": "    /* \"TimeLockStakingDAPP/src/contracts/StakingContract.sol\":114:3358  contract StakingContract {... */\n  mstore(0x40, 0x80)\n    /* \"TimeLockStakingDAPP/src/contracts/StakingContract.sol\":655:901  constructor(uint256 _interestRate, address _depositToken, address _returnToken) {... */\n  callvalue\n  dup1\n  iszero\n  tag_1\n  jumpi\n  0x00\n  dup1\n  revert\ntag_1:\n  pop\n  mload(0x40)\n  sub(codesize, bytecodeSize)\n  dup1\n  bytecodeSize\n  dup4\n  codecopy\n  dup2\n  dup2\n  add\n  0x40\n  mstore\n  dup2\n  add\n  swap1\n  tag_2\n  swap2\n  swap1\n  tag_3\n  jump\t// in\ntag_2:\n    /* \"TimeLockStakingDAPP/src/contracts/StakingContract.sol\":761:765  this */\n  address\n    /* \"TimeLockStakingDAPP/src/contracts/StakingContract.sol\":745:750  owner */\n  0x00\n  dup1\n    /* \"TimeLockStakingDAPP/src/contracts/StakingContract.sol\":745:766  owner = address(this) */\n  0x0100\n  exp\n  dup2\n  sload\n  dup2\n  0xffffffffffffffffffffffffffffffffffffffff\n  mul\n  not\n  and\n  swap1\n  dup4\n  0xffffffffffffffffffffffffffffffffffffffff\n  and\n  mul\n  or\n  swap1\n  sstore\n  pop\n    /* \"TimeLockStakingDAPP/src/contracts/StakingContract.sol\":791:804  _interestRate */\n  dup3\n    /* \"TimeLockStakingDAPP/src/contracts/StakingContract.sol\":776:788  interestRate */\n  0x01\n    /* \"TimeLockStakingDAPP/src/contracts/StakingContract.sol\":776:804  interestRate = _interestRate */\n  dup2\n  swap1\n  sstore\n  pop\n    /* \"TimeLockStakingDAPP/src/contracts/StakingContract.sol\":836:849  _depositToken */\n  dup2\n    /* \"TimeLockStakingDAPP/src/contracts/StakingContract.sol\":814:826  depositToken */\n  0x02\n  0x00\n    /* \"TimeLockStakingDAPP/src/contracts/StakingContract.sol\":814:850  depositToken = IERC20(_depositToken) */\n  0x0100\n  exp\n  dup2\n  sload\n  dup2\n  0xffffffffffffffffffffffffffffffffffffffff\n  mul\n  not\n  and\n  swap1\n  dup4\n  0xffffffffffffffffffffffffffffffffffffffff\n  and\n  mul\n  or\n  swap1\n  sstore\n  pop\n    /* \"TimeLockStakingDAPP/src/contracts/StakingContract.sol\":881:893  _returnToken */\n  dup1\n    /* \"TimeLockStakingDAPP/src/contracts/StakingContract.sol\":860:871  returnToken */\n  0x03\n  0x00\n    /* \"TimeLockStakingDAPP/src/contracts/StakingContract.sol\":860:894  returnToken = IERC20(_returnToken) */\n  0x0100\n  exp\n  dup2\n  sload\n  dup2\n  0xffffffffffffffffffffffffffffffffffffffff\n  mul\n  not\n  and\n  swap1\n  dup4\n  0xffffffffffffffffffffffffffffffffffffffff\n  and\n  mul\n  or\n  swap1\n  sstore\n  pop\n    /* \"TimeLockStakingDAPP/src/contracts/StakingContract.sol\":655:901  constructor(uint256 _interestRate, address _depositToken, address _returnToken) {... */\n  pop\n  pop\n  pop\n    /* \"TimeLockStakingDAPP/src/contracts/StakingContract.sol\":114:3358  contract StakingContract {... */\n  jump(tag_6)\n    /* \"#utility.yul\":88:205   */\ntag_8:\n    /* \"#utility.yul\":197:198   */\n  0x00\n    /* \"#utility.yul\":194:195   */\n  dup1\n    /* \"#utility.yul\":187:199   */\n  revert\n    /* \"#utility.yul\":334:411   */\ntag_10:\n    /* \"#utility.yul\":371:378   */\n  0x00\n    /* \"#utility.yul\":400:405   */\n  dup2\n    /* \"#utility.yul\":389:405   */\n  swap1\n  pop\n    /* \"#utility.yul\":334:411   */\n  swap2\n  swap1\n  pop\n  jump\t// out\n    /* \"#utility.yul\":417:539   */\ntag_11:\n    /* \"#utility.yul\":490:514   */\n  tag_23\n    /* \"#utility.yul\":508:513   */\n  dup2\n    /* \"#utility.yul\":490:514   */\n  tag_10\n  jump\t// in\ntag_23:\n    /* \"#utility.yul\":483:488   */\n  dup2\n    /* \"#utility.yul\":480:515   */\n  eq\n    /* \"#utility.yul\":470:533   */\n  tag_24\n  jumpi\n    /* \"#utility.yul\":529:530   */\n  0x00\n    /* \"#utility.yul\":526:527   */\n  dup1\n    /* \"#utility.yul\":519:531   */\n  revert\n    /* \"#utility.yul\":470:533   */\ntag_24:\n    /* \"#utility.yul\":417:539   */\n  pop\n  jump\t// out\n    /* \"#utility.yul\":545:688   */\ntag_12:\n    /* \"#utility.yul\":602:607   */\n  0x00\n    /* \"#utility.yul\":633:639   */\n  dup2\n    /* \"#utility.yul\":627:640   */\n  mload\n    /* \"#utility.yul\":618:640   */\n  swap1\n  pop\n    /* \"#utility.yul\":649:682   */\n  tag_26\n    /* \"#utility.yul\":676:681   */\n  dup2\n    /* \"#utility.yul\":649:682   */\n  tag_11\n  jump\t// in\ntag_26:\n    /* \"#utility.yul\":545:688   */\n  swap3\n  swap2\n  pop\n  pop\n  jump\t// out\n    /* \"#utility.yul\":694:820   */\ntag_13:\n    /* \"#utility.yul\":731:738   */\n  0x00\n    /* \"#utility.yul\":771:813   */\n  0xffffffffffffffffffffffffffffffffffffffff\n    /* \"#utility.yul\":764:769   */\n  dup3\n    /* \"#utility.yul\":760:814   */\n  and\n    /* \"#utility.yul\":749:814   */\n  swap1\n  pop\n    /* \"#utility.yul\":694:820   */\n  swap2\n  swap1\n  pop\n  jump\t// out\n    /* \"#utility.yul\":826:922   */\ntag_14:\n    /* \"#utility.yul\":863:870   */\n  0x00\n    /* \"#utility.yul\":892:916   */\n  tag_29\n    /* \"#utility.yul\":910:915   */\n  dup3\n    /* \"#utility.yul\":892:916   */\n  tag_13\n  jump\t// in\ntag_29:\n    /* \"#utility.yul\":881:916   */\n  swap1\n  pop\n    /* \"#utility.yul\":826:922   */\n  swap2\n  swap1\n  pop\n  jump\t// out\n    /* \"#utility.yul\":928:1050   */\ntag_15:\n    /* \"#utility.yul\":1001:1025   */\n  tag_31\n    /* \"#utility.yul\":1019:1024   */\n  dup2\n    /* \"#utility.yul\":1001:1025   */\n  tag_14\n  jump\t// in\ntag_31:\n    /* \"#utility.yul\":994:999   */\n  dup2\n    /* \"#utility.yul\":991:1026   */\n  eq\n    /* \"#utility.yul\":981:1044   */\n  tag_32\n  jumpi\n    /* \"#utility.yul\":1040:1041   */\n  0x00\n    /* \"#utility.yul\":1037:1038   */\n  dup1\n    /* \"#utility.yul\":1030:1042   */\n  revert\n    /* \"#utility.yul\":981:1044   */\ntag_32:\n    /* \"#utility.yul\":928:1050   */\n  pop\n  jump\t// out\n    /* \"#utility.yul\":1056:1199   */\ntag_16:\n    /* \"#utility.yul\":1113:1118   */\n  0x00\n    /* \"#utility.yul\":1144:1150   */\n  dup2\n    /* \"#utility.yul\":1138:1151   */\n  mload\n    /* \"#utility.yul\":1129:1151   */\n  swap1\n  pop\n    /* \"#utility.yul\":1160:1193   */\n  tag_34\n    /* \"#utility.yul\":1187:1192   */\n  dup2\n    /* \"#utility.yul\":1160:1193   */\n  tag_15\n  jump\t// in\ntag_34:\n    /* \"#utility.yul\":1056:1199   */\n  swap3\n  swap2\n  pop\n  pop\n  jump\t// out\n    /* \"#utility.yul\":1205:1868   */\ntag_3:\n    /* \"#utility.yul\":1293:1299   */\n  0x00\n    /* \"#utility.yul\":1301:1307   */\n  dup1\n    /* \"#utility.yul\":1309:1315   */\n  0x00\n    /* \"#utility.yul\":1358:1360   */\n  0x60\n    /* \"#utility.yul\":1346:1355   */\n  dup5\n    /* \"#utility.yul\":1337:1344   */\n  dup7\n    /* \"#utility.yul\":1333:1356   */\n  sub\n    /* \"#utility.yul\":1329:1361   */\n  slt\n    /* \"#utility.yul\":1326:1445   */\n  iszero\n  tag_36\n  jumpi\n    /* \"#utility.yul\":1364:1443   */\n  tag_37\n  tag_8\n  jump\t// in\ntag_37:\n    /* \"#utility.yul\":1326:1445   */\ntag_36:\n    /* \"#utility.yul\":1484:1485   */\n  0x00\n    /* \"#utility.yul\":1509:1573   */\n  tag_38\n    /* \"#utility.yul\":1565:1572   */\n  dup7\n    /* \"#utility.yul\":1556:1562   */\n  dup3\n    /* \"#utility.yul\":1545:1554   */\n  dup8\n    /* \"#utility.yul\":1541:1563   */\n  add\n    /* \"#utility.yul\":1509:1573   */\n  tag_12\n  jump\t// in\ntag_38:\n    /* \"#utility.yul\":1499:1573   */\n  swap4\n  pop\n    /* \"#utility.yul\":1455:1583   */\n  pop\n    /* \"#utility.yul\":1622:1624   */\n  0x20\n    /* \"#utility.yul\":1648:1712   */\n  tag_39\n    /* \"#utility.yul\":1704:1711   */\n  dup7\n    /* \"#utility.yul\":1695:1701   */\n  dup3\n    /* \"#utility.yul\":1684:1693   */\n  dup8\n    /* \"#utility.yul\":1680:1702   */\n  add\n    /* \"#utility.yul\":1648:1712   */\n  tag_16\n  jump\t// in\ntag_39:\n    /* \"#utility.yul\":1638:1712   */\n  swap3\n  pop\n    /* \"#utility.yul\":1593:1722   */\n  pop\n    /* \"#utility.yul\":1761:1763   */\n  0x40\n    /* \"#utility.yul\":1787:1851   */\n  tag_40\n    /* \"#utility.yul\":1843:1850   */\n  dup7\n    /* \"#utility.yul\":1834:1840   */\n  dup3\n    /* \"#utility.yul\":1823:1832   */\n  dup8\n    /* \"#utility.yul\":1819:1841   */\n  add\n    /* \"#utility.yul\":1787:1851   */\n  tag_16\n  jump\t// in\ntag_40:\n    /* \"#utility.yul\":1777:1851   */\n  swap2\n  pop\n    /* \"#utility.yul\":1732:1861   */\n  pop\n    /* \"#utility.yul\":1205:1868   */\n  swap3\n  pop\n  swap3\n  pop\n  swap3\n  jump\t// out\n    /* \"TimeLockStakingDAPP/src/contracts/StakingContract.sol\":114:3358  contract StakingContract {... */\ntag_6:\n  dataSize(sub_0)\n  dup1\n  dataOffset(sub_0)\n  0x00\n  codecopy\n  0x00\n  return\nstop\n\nsub_0: assembly {\n        /* \"TimeLockStakingDAPP/src/contracts/StakingContract.sol\":114:3358  contract StakingContract {... */\n      mstore(0x40, 0x80)\n      callvalue\n      dup1\n      iszero\n      tag_1\n      jumpi\n      0x00\n      dup1\n      revert\n    tag_1:\n      pop\n      jumpi(tag_2, lt(calldatasize, 0x04))\n      shr(0xe0, calldataload(0x00))\n      dup1\n      0x7c3a00fd\n      gt\n      tag_13\n      jumpi\n      dup1\n      0x7c3a00fd\n      eq\n      tag_8\n      jumpi\n      dup1\n      0x842e2981\n      eq\n      tag_9\n      jumpi\n      dup1\n      0x8da5cb5b\n      eq\n      tag_10\n      jumpi\n      dup1\n      0xb18e71f2\n      eq\n      tag_11\n      jumpi\n      dup1\n      0xc89039c5\n      eq\n      tag_12\n      jumpi\n      jump(tag_2)\n    tag_13:\n      dup1\n      0x05dcd6f9\n      eq\n      tag_3\n      jumpi\n      dup1\n      0x2e4a3657\n      eq\n      tag_4\n      jumpi\n      dup1\n      0x51586847\n      eq\n      tag_5\n      jumpi\n      dup1\n      0x584b62a1\n      eq\n      tag_6\n      jumpi\n      dup1\n      0x64b065f7\n      eq\n      tag_7\n      jumpi\n    tag_2:\n      0x00\n      dup1\n      revert\n        /* \"TimeLockStakingDAPP/src/contracts/StakingContract.sol\":2546:2861  function getTotalStakes(address user) external view returns(uint256) {... */\n    tag_3:\n      tag_14\n      0x04\n      dup1\n      calldatasize\n      sub\n      dup2\n      add\n      swap1\n      tag_15\n      swap2\n      swap1\n      tag_16\n      jump\t// in\n    tag_15:\n      tag_17\n      jump\t// in\n    tag_14:\n      mload(0x40)\n      tag_18\n      swap2\n      swap1\n      tag_19\n      jump\t// in\n    tag_18:\n      mload(0x40)\n      dup1\n      swap2\n      sub\n      swap1\n      return\n        /* \"TimeLockStakingDAPP/src/contracts/StakingContract.sol\":236:261  IERC20 public returnToken */\n    tag_4:\n      tag_20\n      tag_21\n      jump\t// in\n    tag_20:\n      mload(0x40)\n      tag_22\n      swap2\n      swap1\n      tag_23\n      jump\t// in\n    tag_22:\n      mload(0x40)\n      dup1\n      swap2\n      sub\n      swap1\n      return\n        /* \"TimeLockStakingDAPP/src/contracts/StakingContract.sol\":2871:3356  function getTotalReturns(address user) external view returns(uint256) {... */\n    tag_5:\n      tag_24\n      0x04\n      dup1\n      calldatasize\n      sub\n      dup2\n      add\n      swap1\n      tag_25\n      swap2\n      swap1\n      tag_16\n      jump\t// in\n    tag_25:\n      tag_26\n      jump\t// in\n    tag_24:\n      mload(0x40)\n      tag_27\n      swap2\n      swap1\n      tag_19\n      jump\t// in\n    tag_27:\n      mload(0x40)\n      dup1\n      swap2\n      sub\n      swap1\n      return\n        /* \"TimeLockStakingDAPP/src/contracts/StakingContract.sol\":468:509  mapping(address => Stake[]) public stakes */\n    tag_6:\n      tag_28\n      0x04\n      dup1\n      calldatasize\n      sub\n      dup2\n      add\n      swap1\n      tag_29\n      swap2\n      swap1\n      tag_30\n      jump\t// in\n    tag_29:\n      tag_31\n      jump\t// in\n    tag_28:\n      mload(0x40)\n      tag_32\n      swap5\n      swap4\n      swap3\n      swap2\n      swap1\n      tag_33\n      jump\t// in\n    tag_32:\n      mload(0x40)\n      dup1\n      swap2\n      sub\n      swap1\n      return\n        /* \"TimeLockStakingDAPP/src/contracts/StakingContract.sol\":1610:2415  function getReturns(address user) external {... */\n    tag_7:\n      tag_34\n      0x04\n      dup1\n      calldatasize\n      sub\n      dup2\n      add\n      swap1\n      tag_35\n      swap2\n      swap1\n      tag_16\n      jump\t// in\n    tag_35:\n      tag_36\n      jump\t// in\n    tag_34:\n      stop\n        /* \"TimeLockStakingDAPP/src/contracts/StakingContract.sol\":171:198  uint256 public interestRate */\n    tag_8:\n      tag_37\n      tag_38\n      jump\t// in\n    tag_37:\n      mload(0x40)\n      tag_39\n      swap2\n      swap1\n      tag_19\n      jump\t// in\n    tag_39:\n      mload(0x40)\n      dup1\n      swap2\n      sub\n      swap1\n      return\n        /* \"TimeLockStakingDAPP/src/contracts/StakingContract.sol\":2425:2536  function getUserStakes(address user) external view returns(Stake[] memory) {... */\n    tag_9:\n      tag_40\n      0x04\n      dup1\n      calldatasize\n      sub\n      dup2\n      add\n      swap1\n      tag_41\n      swap2\n      swap1\n      tag_16\n      jump\t// in\n    tag_41:\n      tag_42\n      jump\t// in\n    tag_40:\n      mload(0x40)\n      tag_43\n      swap2\n      swap1\n      tag_44\n      jump\t// in\n    tag_43:\n      mload(0x40)\n      dup1\n      swap2\n      sub\n      swap1\n      return\n        /* \"TimeLockStakingDAPP/src/contracts/StakingContract.sol\":145:165  address public owner */\n    tag_10:\n      tag_45\n      tag_46\n      jump\t// in\n    tag_45:\n      mload(0x40)\n      tag_47\n      swap2\n      swap1\n      tag_48\n      jump\t// in\n    tag_47:\n      mload(0x40)\n      dup1\n      swap2\n      sub\n      swap1\n      return\n        /* \"TimeLockStakingDAPP/src/contracts/StakingContract.sol\":911:1600  function createDeposit(uint256 amount, uint256 duration) external {... */\n    tag_11:\n      tag_49\n      0x04\n      dup1\n      calldatasize\n      sub\n      dup2\n      add\n      swap1\n      tag_50\n      swap2\n      swap1\n      tag_51\n      jump\t// in\n    tag_50:\n      tag_52\n      jump\t// in\n    tag_49:\n      stop\n        /* \"TimeLockStakingDAPP/src/contracts/StakingContract.sol\":204:230  IERC20 public depositToken */\n    tag_12:\n      tag_53\n      tag_54\n      jump\t// in\n    tag_53:\n      mload(0x40)\n      tag_55\n      swap2\n      swap1\n      tag_23\n      jump\t// in\n    tag_55:\n      mload(0x40)\n      dup1\n      swap2\n      sub\n      swap1\n      return\n        /* \"TimeLockStakingDAPP/src/contracts/StakingContract.sol\":2546:2861  function getTotalStakes(address user) external view returns(uint256) {... */\n    tag_17:\n        /* \"TimeLockStakingDAPP/src/contracts/StakingContract.sol\":2606:2613  uint256 */\n      0x00\n        /* \"TimeLockStakingDAPP/src/contracts/StakingContract.sol\":2625:2651  Stake[] storage userStakes */\n      dup1\n        /* \"TimeLockStakingDAPP/src/contracts/StakingContract.sol\":2654:2660  stakes */\n      0x04\n        /* \"TimeLockStakingDAPP/src/contracts/StakingContract.sol\":2654:2666  stakes[user] */\n      0x00\n        /* \"TimeLockStakingDAPP/src/contracts/StakingContract.sol\":2661:2665  user */\n      dup5\n        /* \"TimeLockStakingDAPP/src/contracts/StakingContract.sol\":2654:2666  stakes[user] */\n      0xffffffffffffffffffffffffffffffffffffffff\n      and\n      0xffffffffffffffffffffffffffffffffffffffff\n      and\n      dup2\n      mstore\n      0x20\n      add\n      swap1\n      dup2\n      mstore\n      0x20\n      add\n      0x00\n      keccak256\n        /* \"TimeLockStakingDAPP/src/contracts/StakingContract.sol\":2625:2666  Stake[] storage userStakes = stakes[user] */\n      swap1\n      pop\n        /* \"TimeLockStakingDAPP/src/contracts/StakingContract.sol\":2676:2695  uint256 totalStakes */\n      0x00\n        /* \"TimeLockStakingDAPP/src/contracts/StakingContract.sol\":2718:2724  uint i */\n      dup1\n        /* \"TimeLockStakingDAPP/src/contracts/StakingContract.sol\":2727:2728  0 */\n      0x00\n        /* \"TimeLockStakingDAPP/src/contracts/StakingContract.sol\":2718:2728  uint i = 0 */\n      swap1\n      pop\n        /* \"TimeLockStakingDAPP/src/contracts/StakingContract.sol\":2714:2818  for(uint i = 0; i < userStakes.length; i++) {... */\n    tag_57:\n        /* \"TimeLockStakingDAPP/src/contracts/StakingContract.sol\":2734:2744  userStakes */\n      dup3\n        /* \"TimeLockStakingDAPP/src/contracts/StakingContract.sol\":2734:2751  userStakes.length */\n      dup1\n      sload\n      swap1\n      pop\n        /* \"TimeLockStakingDAPP/src/contracts/StakingContract.sol\":2730:2731  i */\n      dup2\n        /* \"TimeLockStakingDAPP/src/contracts/StakingContract.sol\":2730:2751  i < userStakes.length */\n      lt\n        /* \"TimeLockStakingDAPP/src/contracts/StakingContract.sol\":2714:2818  for(uint i = 0; i < userStakes.length; i++) {... */\n      iszero\n      tag_58\n      jumpi\n        /* \"TimeLockStakingDAPP/src/contracts/StakingContract.sol\":2787:2797  userStakes */\n      dup3\n        /* \"TimeLockStakingDAPP/src/contracts/StakingContract.sol\":2798:2799  i */\n      dup2\n        /* \"TimeLockStakingDAPP/src/contracts/StakingContract.sol\":2787:2800  userStakes[i] */\n      dup2\n      sload\n      dup2\n      lt\n      tag_60\n      jumpi\n      tag_61\n      tag_62\n      jump\t// in\n    tag_61:\n    tag_60:\n      swap1\n      0x00\n      mstore\n      keccak256(0x00, 0x20)\n      swap1\n      0x04\n      mul\n      add\n        /* \"TimeLockStakingDAPP/src/contracts/StakingContract.sol\":2787:2807  userStakes[i].amount */\n      0x00\n      add\n      sload\n        /* \"TimeLockStakingDAPP/src/contracts/StakingContract.sol\":2772:2807  totalStakes += userStakes[i].amount */\n      dup3\n      tag_64\n      swap2\n      swap1\n      tag_65\n      jump\t// in\n    tag_64:\n      swap2\n      pop\n        /* \"TimeLockStakingDAPP/src/contracts/StakingContract.sol\":2753:2756  i++ */\n      dup1\n      dup1\n      tag_66\n      swap1\n      tag_67\n      jump\t// in\n    tag_66:\n      swap2\n      pop\n      pop\n        /* \"TimeLockStakingDAPP/src/contracts/StakingContract.sol\":2714:2818  for(uint i = 0; i < userStakes.length; i++) {... */\n      jump(tag_57)\n    tag_58:\n      pop\n        /* \"TimeLockStakingDAPP/src/contracts/StakingContract.sol\":2843:2854  totalStakes */\n      dup1\n        /* \"TimeLockStakingDAPP/src/contracts/StakingContract.sol\":2836:2854  return totalStakes */\n      swap3\n      pop\n      pop\n      pop\n        /* \"TimeLockStakingDAPP/src/contracts/StakingContract.sol\":2546:2861  function getTotalStakes(address user) external view returns(uint256) {... */\n      swap2\n      swap1\n      pop\n      jump\t// out\n        /* \"TimeLockStakingDAPP/src/contracts/StakingContract.sol\":236:261  IERC20 public returnToken */\n    tag_21:\n      0x03\n      0x00\n      swap1\n      sload\n      swap1\n      0x0100\n      exp\n      swap1\n      div\n      0xffffffffffffffffffffffffffffffffffffffff\n      and\n      dup2\n      jump\t// out\n        /* \"TimeLockStakingDAPP/src/contracts/StakingContract.sol\":2871:3356  function getTotalReturns(address user) external view returns(uint256) {... */\n    tag_26:\n        /* \"TimeLockStakingDAPP/src/contracts/StakingContract.sol\":2932:2939  uint256 */\n      0x00\n        /* \"TimeLockStakingDAPP/src/contracts/StakingContract.sol\":2951:2971  uint256 totalReturns */\n      dup1\n        /* \"TimeLockStakingDAPP/src/contracts/StakingContract.sol\":2981:3007  Stake[] storage userStakes */\n      0x00\n        /* \"TimeLockStakingDAPP/src/contracts/StakingContract.sol\":3010:3016  stakes */\n      0x04\n        /* \"TimeLockStakingDAPP/src/contracts/StakingContract.sol\":3010:3022  stakes[user] */\n      0x00\n        /* \"TimeLockStakingDAPP/src/contracts/StakingContract.sol\":3017:3021  user */\n      dup6\n        /* \"TimeLockStakingDAPP/src/contracts/StakingContract.sol\":3010:3022  stakes[user] */\n      0xffffffffffffffffffffffffffffffffffffffff\n      and\n      0xffffffffffffffffffffffffffffffffffffffff\n      and\n      dup2\n      mstore\n      0x20\n      add\n      swap1\n      dup2\n      mstore\n      0x20\n      add\n      0x00\n      keccak256\n        /* \"TimeLockStakingDAPP/src/contracts/StakingContract.sol\":2981:3022  Stake[] storage userStakes = stakes[user] */\n      swap1\n      pop\n        /* \"TimeLockStakingDAPP/src/contracts/StakingContract.sol\":3045:3051  uint i */\n      0x00\n        /* \"TimeLockStakingDAPP/src/contracts/StakingContract.sol\":3041:3312  for(uint i = 0; i < userStakes.length; i++) {... */\n    tag_69:\n        /* \"TimeLockStakingDAPP/src/contracts/StakingContract.sol\":3061:3071  userStakes */\n      dup2\n        /* \"TimeLockStakingDAPP/src/contracts/StakingContract.sol\":3061:3078  userStakes.length */\n      dup1\n      sload\n      swap1\n      pop\n        /* \"TimeLockStakingDAPP/src/contracts/StakingContract.sol\":3057:3058  i */\n      dup2\n        /* \"TimeLockStakingDAPP/src/contracts/StakingContract.sol\":3057:3078  i < userStakes.length */\n      lt\n        /* \"TimeLockStakingDAPP/src/contracts/StakingContract.sol\":3041:3312  for(uint i = 0; i < userStakes.length; i++) {... */\n      iszero\n      tag_70\n      jumpi\n        /* \"TimeLockStakingDAPP/src/contracts/StakingContract.sol\":3121:3131  userStakes */\n      dup2\n        /* \"TimeLockStakingDAPP/src/contracts/StakingContract.sol\":3132:3133  i */\n      dup2\n        /* \"TimeLockStakingDAPP/src/contracts/StakingContract.sol\":3121:3134  userStakes[i] */\n      dup2\n      sload\n      dup2\n      lt\n      tag_72\n      jumpi\n      tag_73\n      tag_62\n      jump\t// in\n    tag_73:\n    tag_72:\n      swap1\n      0x00\n      mstore\n      keccak256(0x00, 0x20)\n      swap1\n      0x04\n      mul\n      add\n        /* \"TimeLockStakingDAPP/src/contracts/StakingContract.sol\":3121:3142  userStakes[i].endTime */\n      0x02\n      add\n      sload\n        /* \"TimeLockStakingDAPP/src/contracts/StakingContract.sol\":3102:3117  block.timestamp */\n      timestamp\n        /* \"TimeLockStakingDAPP/src/contracts/StakingContract.sol\":3102:3142  block.timestamp >= userStakes[i].endTime */\n      lt\n        /* \"TimeLockStakingDAPP/src/contracts/StakingContract.sol\":3099:3302  if(block.timestamp >= userStakes[i].endTime) {... */\n      tag_75\n      jumpi\n        /* \"TimeLockStakingDAPP/src/contracts/StakingContract.sol\":450:457  3.154e7 */\n      0x01e14320\n        /* \"TimeLockStakingDAPP/src/contracts/StakingContract.sol\":3236:3246  userStakes */\n      dup3\n        /* \"TimeLockStakingDAPP/src/contracts/StakingContract.sol\":3247:3248  i */\n      dup3\n        /* \"TimeLockStakingDAPP/src/contracts/StakingContract.sol\":3236:3249  userStakes[i] */\n      dup2\n      sload\n      dup2\n      lt\n      tag_76\n      jumpi\n      tag_77\n      tag_62\n      jump\t// in\n    tag_77:\n    tag_76:\n      swap1\n      0x00\n      mstore\n      keccak256(0x00, 0x20)\n      swap1\n      0x04\n      mul\n      add\n        /* \"TimeLockStakingDAPP/src/contracts/StakingContract.sol\":3236:3263  userStakes[i].lastClaimTime */\n      0x03\n      add\n      sload\n        /* \"TimeLockStakingDAPP/src/contracts/StakingContract.sol\":3218:3233  block.timestamp */\n      timestamp\n        /* \"TimeLockStakingDAPP/src/contracts/StakingContract.sol\":3218:3263  block.timestamp - userStakes[i].lastClaimTime */\n      tag_79\n      swap2\n      swap1\n      tag_80\n      jump\t// in\n    tag_79:\n        /* \"TimeLockStakingDAPP/src/contracts/StakingContract.sol\":3202:3214  interestRate */\n      sload(0x01)\n        /* \"TimeLockStakingDAPP/src/contracts/StakingContract.sol\":3179:3189  userStakes */\n      dup5\n        /* \"TimeLockStakingDAPP/src/contracts/StakingContract.sol\":3190:3191  i */\n      dup5\n        /* \"TimeLockStakingDAPP/src/contracts/StakingContract.sol\":3179:3192  userStakes[i] */\n      dup2\n      sload\n      dup2\n      lt\n      tag_81\n      jumpi\n      tag_82\n      tag_62\n      jump\t// in\n    tag_82:\n    tag_81:\n      swap1\n      0x00\n      mstore\n      keccak256(0x00, 0x20)\n      swap1\n      0x04\n      mul\n      add\n        /* \"TimeLockStakingDAPP/src/contracts/StakingContract.sol\":3179:3199  userStakes[i].amount */\n      0x00\n      add\n      sload\n        /* \"TimeLockStakingDAPP/src/contracts/StakingContract.sol\":3179:3214  userStakes[i].amount * interestRate */\n      tag_84\n      swap2\n      swap1\n      tag_85\n      jump\t// in\n    tag_84:\n        /* \"TimeLockStakingDAPP/src/contracts/StakingContract.sol\":3179:3264  userStakes[i].amount * interestRate * (block.timestamp - userStakes[i].lastClaimTime) */\n      tag_86\n      swap2\n      swap1\n      tag_85\n      jump\t// in\n    tag_86:\n        /* \"TimeLockStakingDAPP/src/contracts/StakingContract.sol\":3178:3287  (userStakes[i].amount * interestRate * (block.timestamp - userStakes[i].lastClaimTime)) / (SECONDS_IN_A_YEAR) */\n      tag_87\n      swap2\n      swap1\n      tag_88\n      jump\t// in\n    tag_87:\n        /* \"TimeLockStakingDAPP/src/contracts/StakingContract.sol\":3162:3287  totalReturns += (userStakes[i].amount * interestRate * (block.timestamp - userStakes[i].lastClaimTime)) / (SECONDS_IN_A_YEAR) */\n      dup4\n      tag_89\n      swap2\n      swap1\n      tag_65\n      jump\t// in\n    tag_89:\n      swap3\n      pop\n        /* \"TimeLockStakingDAPP/src/contracts/StakingContract.sol\":3099:3302  if(block.timestamp >= userStakes[i].endTime) {... */\n    tag_75:\n        /* \"TimeLockStakingDAPP/src/contracts/StakingContract.sol\":3080:3083  i++ */\n      dup1\n      dup1\n      tag_90\n      swap1\n      tag_67\n      jump\t// in\n    tag_90:\n      swap2\n      pop\n      pop\n        /* \"TimeLockStakingDAPP/src/contracts/StakingContract.sol\":3041:3312  for(uint i = 0; i < userStakes.length; i++) {... */\n      jump(tag_69)\n    tag_70:\n      pop\n        /* \"TimeLockStakingDAPP/src/contracts/StakingContract.sol\":3337:3349  totalReturns */\n      dup2\n        /* \"TimeLockStakingDAPP/src/contracts/StakingContract.sol\":3330:3349  return totalReturns */\n      swap3\n      pop\n      pop\n      pop\n        /* \"TimeLockStakingDAPP/src/contracts/StakingContract.sol\":2871:3356  function getTotalReturns(address user) external view returns(uint256) {... */\n      swap2\n      swap1\n      pop\n      jump\t// out\n        /* \"TimeLockStakingDAPP/src/contracts/StakingContract.sol\":468:509  mapping(address => Stake[]) public stakes */\n    tag_31:\n      mstore(0x20, 0x04)\n      dup2\n      0x00\n      mstore\n      keccak256(0x00, 0x40)\n      dup2\n      dup2\n      sload\n      dup2\n      lt\n      tag_91\n      jumpi\n      0x00\n      dup1\n      revert\n    tag_91:\n      swap1\n      0x00\n      mstore\n      keccak256(0x00, 0x20)\n      swap1\n      0x04\n      mul\n      add\n      0x00\n      swap2\n      pop\n      swap2\n      pop\n      pop\n      dup1\n      0x00\n      add\n      sload\n      swap1\n      dup1\n      0x01\n      add\n      sload\n      swap1\n      dup1\n      0x02\n      add\n      sload\n      swap1\n      dup1\n      0x03\n      add\n      sload\n      swap1\n      pop\n      dup5\n      jump\t// out\n        /* \"TimeLockStakingDAPP/src/contracts/StakingContract.sol\":1610:2415  function getReturns(address user) external {... */\n    tag_36:\n        /* \"TimeLockStakingDAPP/src/contracts/StakingContract.sol\":1663:1683  uint256 totalReturns */\n      0x00\n        /* \"TimeLockStakingDAPP/src/contracts/StakingContract.sol\":1693:1719  Stake[] storage userStakes */\n      dup1\n        /* \"TimeLockStakingDAPP/src/contracts/StakingContract.sol\":1722:1728  stakes */\n      0x04\n        /* \"TimeLockStakingDAPP/src/contracts/StakingContract.sol\":1722:1734  stakes[user] */\n      0x00\n        /* \"TimeLockStakingDAPP/src/contracts/StakingContract.sol\":1729:1733  user */\n      dup5\n        /* \"TimeLockStakingDAPP/src/contracts/StakingContract.sol\":1722:1734  stakes[user] */\n      0xffffffffffffffffffffffffffffffffffffffff\n      and\n      0xffffffffffffffffffffffffffffffffffffffff\n      and\n      dup2\n      mstore\n      0x20\n      add\n      swap1\n      dup2\n      mstore\n      0x20\n      add\n      0x00\n      keccak256\n        /* \"TimeLockStakingDAPP/src/contracts/StakingContract.sol\":1693:1734  Stake[] storage userStakes = stakes[user] */\n      swap1\n      pop\n        /* \"TimeLockStakingDAPP/src/contracts/StakingContract.sol\":1757:1763  uint i */\n      0x00\n        /* \"TimeLockStakingDAPP/src/contracts/StakingContract.sol\":1753:2341  for(uint i = 0; i < userStakes.length; i++) {... */\n    tag_94:\n        /* \"TimeLockStakingDAPP/src/contracts/StakingContract.sol\":1773:1783  userStakes */\n      dup2\n        /* \"TimeLockStakingDAPP/src/contracts/StakingContract.sol\":1773:1790  userStakes.length */\n      dup1\n      sload\n      swap1\n      pop\n        /* \"TimeLockStakingDAPP/src/contracts/StakingContract.sol\":1769:1770  i */\n      dup2\n        /* \"TimeLockStakingDAPP/src/contracts/StakingContract.sol\":1769:1790  i < userStakes.length */\n      lt\n        /* \"TimeLockStakingDAPP/src/contracts/StakingContract.sol\":1753:2341  for(uint i = 0; i < userStakes.length; i++) {... */\n      iszero\n      tag_95\n      jumpi\n        /* \"TimeLockStakingDAPP/src/contracts/StakingContract.sol\":1811:1830  Stake storage stake */\n      0x00\n        /* \"TimeLockStakingDAPP/src/contracts/StakingContract.sol\":1833:1843  userStakes */\n      dup3\n        /* \"TimeLockStakingDAPP/src/contracts/StakingContract.sol\":1844:1845  i */\n      dup3\n        /* \"TimeLockStakingDAPP/src/contracts/StakingContract.sol\":1833:1846  userStakes[i] */\n      dup2\n      sload\n      dup2\n      lt\n      tag_97\n      jumpi\n      tag_98\n      tag_62\n      jump\t// in\n    tag_98:\n    tag_97:\n      swap1\n      0x00\n      mstore\n      keccak256(0x00, 0x20)\n      swap1\n      0x04\n      mul\n      add\n        /* \"TimeLockStakingDAPP/src/contracts/StakingContract.sol\":1811:1846  Stake storage stake = userStakes[i] */\n      swap1\n      pop\n        /* \"TimeLockStakingDAPP/src/contracts/StakingContract.sol\":1895:1900  stake */\n      dup1\n        /* \"TimeLockStakingDAPP/src/contracts/StakingContract.sol\":1895:1908  stake.endTime */\n      0x02\n      add\n      sload\n        /* \"TimeLockStakingDAPP/src/contracts/StakingContract.sol\":1876:1891  block.timestamp */\n      timestamp\n        /* \"TimeLockStakingDAPP/src/contracts/StakingContract.sol\":1876:1908  block.timestamp >= stake.endTime */\n      lt\n        /* \"TimeLockStakingDAPP/src/contracts/StakingContract.sol\":1873:2331  if(block.timestamp >= stake.endTime) {... */\n      tag_100\n      jumpi\n        /* \"TimeLockStakingDAPP/src/contracts/StakingContract.sol\":1928:1944  uint256 _returns */\n      0x00\n        /* \"TimeLockStakingDAPP/src/contracts/StakingContract.sol\":450:457  3.154e7 */\n      0x01e14320\n        /* \"TimeLockStakingDAPP/src/contracts/StakingContract.sol\":1997:2002  stake */\n      dup3\n        /* \"TimeLockStakingDAPP/src/contracts/StakingContract.sol\":1997:2016  stake.lastClaimTime */\n      0x03\n      add\n      sload\n        /* \"TimeLockStakingDAPP/src/contracts/StakingContract.sol\":1979:1994  block.timestamp */\n      timestamp\n        /* \"TimeLockStakingDAPP/src/contracts/StakingContract.sol\":1979:2016  block.timestamp - stake.lastClaimTime */\n      tag_101\n      swap2\n      swap1\n      tag_80\n      jump\t// in\n    tag_101:\n        /* \"TimeLockStakingDAPP/src/contracts/StakingContract.sol\":1963:1975  interestRate */\n      sload(0x01)\n        /* \"TimeLockStakingDAPP/src/contracts/StakingContract.sol\":1948:1953  stake */\n      dup5\n        /* \"TimeLockStakingDAPP/src/contracts/StakingContract.sol\":1948:1960  stake.amount */\n      0x00\n      add\n      sload\n        /* \"TimeLockStakingDAPP/src/contracts/StakingContract.sol\":1948:1975  stake.amount * interestRate */\n      tag_102\n      swap2\n      swap1\n      tag_85\n      jump\t// in\n    tag_102:\n        /* \"TimeLockStakingDAPP/src/contracts/StakingContract.sol\":1948:2017  stake.amount * interestRate * (block.timestamp - stake.lastClaimTime) */\n      tag_103\n      swap2\n      swap1\n      tag_85\n      jump\t// in\n    tag_103:\n        /* \"TimeLockStakingDAPP/src/contracts/StakingContract.sol\":1947:2040  (stake.amount * interestRate * (block.timestamp - stake.lastClaimTime)) / (SECONDS_IN_A_YEAR) */\n      tag_104\n      swap2\n      swap1\n      tag_88\n      jump\t// in\n    tag_104:\n        /* \"TimeLockStakingDAPP/src/contracts/StakingContract.sol\":1928:2040  uint256 _returns = (stake.amount * interestRate * (block.timestamp - stake.lastClaimTime)) / (SECONDS_IN_A_YEAR) */\n      swap1\n      pop\n        /* \"TimeLockStakingDAPP/src/contracts/StakingContract.sol\":2074:2082  _returns */\n      dup1\n        /* \"TimeLockStakingDAPP/src/contracts/StakingContract.sol\":2058:2082  totalReturns += _returns */\n      dup6\n      tag_105\n      swap2\n      swap1\n      tag_65\n      jump\t// in\n    tag_105:\n      swap5\n      pop\n        /* \"TimeLockStakingDAPP/src/contracts/StakingContract.sol\":2122:2137  block.timestamp */\n      timestamp\n        /* \"TimeLockStakingDAPP/src/contracts/StakingContract.sol\":2100:2105  stake */\n      dup3\n        /* \"TimeLockStakingDAPP/src/contracts/StakingContract.sol\":2100:2119  stake.lastClaimTime */\n      0x03\n      add\n        /* \"TimeLockStakingDAPP/src/contracts/StakingContract.sol\":2100:2137  stake.lastClaimTime = block.timestamp */\n      dup2\n      swap1\n      sstore\n      pop\n        /* \"TimeLockStakingDAPP/src/contracts/StakingContract.sol\":2180:2191  returnToken */\n      0x03\n      0x00\n      swap1\n      sload\n      swap1\n      0x0100\n      exp\n      swap1\n      div\n      0xffffffffffffffffffffffffffffffffffffffff\n      and\n        /* \"TimeLockStakingDAPP/src/contracts/StakingContract.sol\":2180:2200  returnToken.transfer */\n      0xffffffffffffffffffffffffffffffffffffffff\n      and\n      0xa9059cbb\n        /* \"TimeLockStakingDAPP/src/contracts/StakingContract.sol\":2201:2211  msg.sender */\n      caller\n        /* \"TimeLockStakingDAPP/src/contracts/StakingContract.sol\":2213:2221  _returns */\n      dup4\n        /* \"TimeLockStakingDAPP/src/contracts/StakingContract.sol\":2180:2222  returnToken.transfer(msg.sender, _returns) */\n      mload(0x40)\n      dup4\n      0xffffffff\n      and\n      0xe0\n      shl\n      dup2\n      mstore\n      0x04\n      add\n      tag_106\n      swap3\n      swap2\n      swap1\n      tag_107\n      jump\t// in\n    tag_106:\n      0x20\n      mload(0x40)\n      dup1\n      dup4\n      sub\n      dup2\n      0x00\n      dup8\n      gas\n      call\n      iszero\n      dup1\n      iszero\n      tag_109\n      jumpi\n      returndatasize\n      0x00\n      dup1\n      returndatacopy\n      revert(0x00, returndatasize)\n    tag_109:\n      pop\n      pop\n      pop\n      pop\n      mload(0x40)\n      returndatasize\n      not(0x1f)\n      0x1f\n      dup3\n      add\n      and\n      dup3\n      add\n      dup1\n      0x40\n      mstore\n      pop\n      dup2\n      add\n      swap1\n      tag_110\n      swap2\n      swap1\n      tag_111\n      jump\t// in\n    tag_110:\n        /* \"TimeLockStakingDAPP/src/contracts/StakingContract.sol\":2172:2255  require(returnToken.transfer(msg.sender, _returns), \"Return token transfer failed\") */\n      tag_112\n      jumpi\n      mload(0x40)\n      0x08c379a000000000000000000000000000000000000000000000000000000000\n      dup2\n      mstore\n      0x04\n      add\n      tag_113\n      swap1\n      tag_114\n      jump\t// in\n    tag_113:\n      mload(0x40)\n      dup1\n      swap2\n      sub\n      swap1\n      revert\n    tag_112:\n        /* \"TimeLockStakingDAPP/src/contracts/StakingContract.sol\":2301:2305  user */\n      dup6\n        /* \"TimeLockStakingDAPP/src/contracts/StakingContract.sol\":2295:2316  Claim(user, _returns) */\n      0xffffffffffffffffffffffffffffffffffffffff\n      and\n      0x47cee97cb7acd717b3c0aa1435d004cd5b3c8c57d70dbceb4e4458bbd60e39d4\n        /* \"TimeLockStakingDAPP/src/contracts/StakingContract.sol\":2307:2315  _returns */\n      dup3\n        /* \"TimeLockStakingDAPP/src/contracts/StakingContract.sol\":2295:2316  Claim(user, _returns) */\n      mload(0x40)\n      tag_115\n      swap2\n      swap1\n      tag_19\n      jump\t// in\n    tag_115:\n      mload(0x40)\n      dup1\n      swap2\n      sub\n      swap1\n      log2\n        /* \"TimeLockStakingDAPP/src/contracts/StakingContract.sol\":1910:2331  {... */\n      pop\n        /* \"TimeLockStakingDAPP/src/contracts/StakingContract.sol\":1873:2331  if(block.timestamp >= stake.endTime) {... */\n    tag_100:\n        /* \"TimeLockStakingDAPP/src/contracts/StakingContract.sol\":1797:2341  {... */\n      pop\n        /* \"TimeLockStakingDAPP/src/contracts/StakingContract.sol\":1792:1795  i++ */\n      dup1\n      dup1\n      tag_116\n      swap1\n      tag_67\n      jump\t// in\n    tag_116:\n      swap2\n      pop\n      pop\n        /* \"TimeLockStakingDAPP/src/contracts/StakingContract.sol\":1753:2341  for(uint i = 0; i < userStakes.length; i++) {... */\n      jump(tag_94)\n    tag_95:\n      pop\n        /* \"TimeLockStakingDAPP/src/contracts/StakingContract.sol\":2382:2383  0 */\n      0x00\n        /* \"TimeLockStakingDAPP/src/contracts/StakingContract.sol\":2367:2379  totalReturns */\n      dup3\n        /* \"TimeLockStakingDAPP/src/contracts/StakingContract.sol\":2367:2383  totalReturns > 0 */\n      gt\n        /* \"TimeLockStakingDAPP/src/contracts/StakingContract.sol\":2359:2408  require(totalReturns > 0, \"No returns available\") */\n      tag_117\n      jumpi\n      mload(0x40)\n      0x08c379a000000000000000000000000000000000000000000000000000000000\n      dup2\n      mstore\n      0x04\n      add\n      tag_118\n      swap1\n      tag_119\n      jump\t// in\n    tag_118:\n      mload(0x40)\n      dup1\n      swap2\n      sub\n      swap1\n      revert\n    tag_117:\n        /* \"TimeLockStakingDAPP/src/contracts/StakingContract.sol\":1653:2415  {... */\n      pop\n      pop\n        /* \"TimeLockStakingDAPP/src/contracts/StakingContract.sol\":1610:2415  function getReturns(address user) external {... */\n      pop\n      jump\t// out\n        /* \"TimeLockStakingDAPP/src/contracts/StakingContract.sol\":171:198  uint256 public interestRate */\n    tag_38:\n      sload(0x01)\n      dup2\n      jump\t// out\n        /* \"TimeLockStakingDAPP/src/contracts/StakingContract.sol\":2425:2536  function getUserStakes(address user) external view returns(Stake[] memory) {... */\n    tag_42:\n        /* \"TimeLockStakingDAPP/src/contracts/StakingContract.sol\":2484:2498  Stake[] memory */\n      0x60\n        /* \"TimeLockStakingDAPP/src/contracts/StakingContract.sol\":2517:2523  stakes */\n      0x04\n        /* \"TimeLockStakingDAPP/src/contracts/StakingContract.sol\":2517:2529  stakes[user] */\n      0x00\n        /* \"TimeLockStakingDAPP/src/contracts/StakingContract.sol\":2524:2528  user */\n      dup4\n        /* \"TimeLockStakingDAPP/src/contracts/StakingContract.sol\":2517:2529  stakes[user] */\n      0xffffffffffffffffffffffffffffffffffffffff\n      and\n      0xffffffffffffffffffffffffffffffffffffffff\n      and\n      dup2\n      mstore\n      0x20\n      add\n      swap1\n      dup2\n      mstore\n      0x20\n      add\n      0x00\n      keccak256\n        /* \"TimeLockStakingDAPP/src/contracts/StakingContract.sol\":2510:2529  return stakes[user] */\n      dup1\n      sload\n      dup1\n      0x20\n      mul\n      0x20\n      add\n      mload(0x40)\n      swap1\n      dup2\n      add\n      0x40\n      mstore\n      dup1\n      swap3\n      swap2\n      swap1\n      dup2\n      dup2\n      mstore\n      0x20\n      add\n      0x00\n      swap1\n    tag_121:\n      dup3\n      dup3\n      lt\n      iszero\n      tag_122\n      jumpi\n      dup4\n      dup3\n      swap1\n      0x00\n      mstore\n      keccak256(0x00, 0x20)\n      swap1\n      0x04\n      mul\n      add\n      mload(0x40)\n      dup1\n      0x80\n      add\n      0x40\n      mstore\n      swap1\n      dup2\n      0x00\n      dup3\n      add\n      sload\n      dup2\n      mstore\n      0x20\n      add\n      0x01\n      dup3\n      add\n      sload\n      dup2\n      mstore\n      0x20\n      add\n      0x02\n      dup3\n      add\n      sload\n      dup2\n      mstore\n      0x20\n      add\n      0x03\n      dup3\n      add\n      sload\n      dup2\n      mstore\n      pop\n      pop\n      dup2\n      mstore\n      0x20\n      add\n      swap1\n      0x01\n      add\n      swap1\n      jump(tag_121)\n    tag_122:\n      pop\n      pop\n      pop\n      pop\n      swap1\n      pop\n        /* \"TimeLockStakingDAPP/src/contracts/StakingContract.sol\":2425:2536  function getUserStakes(address user) external view returns(Stake[] memory) {... */\n      swap2\n      swap1\n      pop\n      jump\t// out\n        /* \"TimeLockStakingDAPP/src/contracts/StakingContract.sol\":145:165  address public owner */\n    tag_46:\n      0x00\n      dup1\n      sload\n      swap1\n      0x0100\n      exp\n      swap1\n      div\n      0xffffffffffffffffffffffffffffffffffffffff\n      and\n      dup2\n      jump\t// out\n        /* \"TimeLockStakingDAPP/src/contracts/StakingContract.sol\":911:1600  function createDeposit(uint256 amount, uint256 duration) external {... */\n    tag_52:\n        /* \"TimeLockStakingDAPP/src/contracts/StakingContract.sol\":1004:1005  0 */\n      0x00\n        /* \"TimeLockStakingDAPP/src/contracts/StakingContract.sol\":995:1001  amount */\n      dup3\n        /* \"TimeLockStakingDAPP/src/contracts/StakingContract.sol\":995:1005  amount > 0 */\n      gt\n        /* \"TimeLockStakingDAPP/src/contracts/StakingContract.sol\":987:1042  require(amount > 0, \"Amount must be greater than zero\") */\n      tag_125\n      jumpi\n      mload(0x40)\n      0x08c379a000000000000000000000000000000000000000000000000000000000\n      dup2\n      mstore\n      0x04\n      add\n      tag_126\n      swap1\n      tag_127\n      jump\t// in\n    tag_126:\n      mload(0x40)\n      dup1\n      swap2\n      sub\n      swap1\n      revert\n    tag_125:\n        /* \"TimeLockStakingDAPP/src/contracts/StakingContract.sol\":1071:1072  0 */\n      0x00\n        /* \"TimeLockStakingDAPP/src/contracts/StakingContract.sol\":1060:1068  duration */\n      dup2\n        /* \"TimeLockStakingDAPP/src/contracts/StakingContract.sol\":1060:1072  duration > 0 */\n      gt\n        /* \"TimeLockStakingDAPP/src/contracts/StakingContract.sol\":1052:1111  require(duration > 0, \"Duration must be greater than zero\") */\n      tag_128\n      jumpi\n      mload(0x40)\n      0x08c379a000000000000000000000000000000000000000000000000000000000\n      dup2\n      mstore\n      0x04\n      add\n      tag_129\n      swap1\n      tag_130\n      jump\t// in\n    tag_129:\n      mload(0x40)\n      dup1\n      swap2\n      sub\n      swap1\n      revert\n    tag_128:\n        /* \"TimeLockStakingDAPP/src/contracts/StakingContract.sol\":1122:1134  depositToken */\n      0x02\n      0x00\n      swap1\n      sload\n      swap1\n      0x0100\n      exp\n      swap1\n      div\n      0xffffffffffffffffffffffffffffffffffffffff\n      and\n        /* \"TimeLockStakingDAPP/src/contracts/StakingContract.sol\":1122:1142  depositToken.approve */\n      0xffffffffffffffffffffffffffffffffffffffff\n      and\n      0x095ea7b3\n        /* \"TimeLockStakingDAPP/src/contracts/StakingContract.sol\":1151:1155  this */\n      address\n        /* \"TimeLockStakingDAPP/src/contracts/StakingContract.sol\":1158:1164  amount */\n      dup5\n        /* \"TimeLockStakingDAPP/src/contracts/StakingContract.sol\":1122:1165  depositToken.approve(address(this), amount) */\n      mload(0x40)\n      dup4\n      0xffffffff\n      and\n      0xe0\n      shl\n      dup2\n      mstore\n      0x04\n      add\n      tag_131\n      swap3\n      swap2\n      swap1\n      tag_107\n      jump\t// in\n    tag_131:\n      0x20\n      mload(0x40)\n      dup1\n      dup4\n      sub\n      dup2\n      0x00\n      dup8\n      gas\n      call\n      iszero\n      dup1\n      iszero\n      tag_133\n      jumpi\n      returndatasize\n      0x00\n      dup1\n      returndatacopy\n      revert(0x00, returndatasize)\n    tag_133:\n      pop\n      pop\n      pop\n      pop\n      mload(0x40)\n      returndatasize\n      not(0x1f)\n      0x1f\n      dup3\n      add\n      and\n      dup3\n      add\n      dup1\n      0x40\n      mstore\n      pop\n      dup2\n      add\n      swap1\n      tag_134\n      swap2\n      swap1\n      tag_111\n      jump\t// in\n    tag_134:\n      pop\n        /* \"TimeLockStakingDAPP/src/contracts/StakingContract.sol\":1184:1196  depositToken */\n      0x02\n      0x00\n      swap1\n      sload\n      swap1\n      0x0100\n      exp\n      swap1\n      div\n      0xffffffffffffffffffffffffffffffffffffffff\n      and\n        /* \"TimeLockStakingDAPP/src/contracts/StakingContract.sol\":1184:1209  depositToken.transferFrom */\n      0xffffffffffffffffffffffffffffffffffffffff\n      and\n      0x23b872dd\n        /* \"TimeLockStakingDAPP/src/contracts/StakingContract.sol\":1210:1220  msg.sender */\n      caller\n        /* \"TimeLockStakingDAPP/src/contracts/StakingContract.sol\":1230:1234  this */\n      address\n        /* \"TimeLockStakingDAPP/src/contracts/StakingContract.sol\":1237:1243  amount */\n      dup6\n        /* \"TimeLockStakingDAPP/src/contracts/StakingContract.sol\":1184:1244  depositToken.transferFrom(msg.sender, address(this), amount) */\n      mload(0x40)\n      dup5\n      0xffffffff\n      and\n      0xe0\n      shl\n      dup2\n      mstore\n      0x04\n      add\n      tag_135\n      swap4\n      swap3\n      swap2\n      swap1\n      tag_136\n      jump\t// in\n    tag_135:\n      0x20\n      mload(0x40)\n      dup1\n      dup4\n      sub\n      dup2\n      0x00\n      dup8\n      gas\n      call\n      iszero\n      dup1\n      iszero\n      tag_138\n      jumpi\n      returndatasize\n      0x00\n      dup1\n      returndatacopy\n      revert(0x00, returndatasize)\n    tag_138:\n      pop\n      pop\n      pop\n      pop\n      mload(0x40)\n      returndatasize\n      not(0x1f)\n      0x1f\n      dup3\n      add\n      and\n      dup3\n      add\n      dup1\n      0x40\n      mstore\n      pop\n      dup2\n      add\n      swap1\n      tag_139\n      swap2\n      swap1\n      tag_111\n      jump\t// in\n    tag_139:\n        /* \"TimeLockStakingDAPP/src/contracts/StakingContract.sol\":1176:1278  require(depositToken.transferFrom(msg.sender, address(this), amount), \"Deposit token transfer failed\") */\n      tag_140\n      jumpi\n      mload(0x40)\n      0x08c379a000000000000000000000000000000000000000000000000000000000\n      dup2\n      mstore\n      0x04\n      add\n      tag_141\n      swap1\n      tag_142\n      jump\t// in\n    tag_141:\n      mload(0x40)\n      dup1\n      swap2\n      sub\n      swap1\n      revert\n    tag_140:\n        /* \"TimeLockStakingDAPP/src/contracts/StakingContract.sol\":1296:1307  returnToken */\n      0x03\n      0x00\n      swap1\n      sload\n      swap1\n      0x0100\n      exp\n      swap1\n      div\n      0xffffffffffffffffffffffffffffffffffffffff\n      and\n        /* \"TimeLockStakingDAPP/src/contracts/StakingContract.sol\":1296:1315  returnToken.approve */\n      0xffffffffffffffffffffffffffffffffffffffff\n      and\n      0x095ea7b3\n        /* \"TimeLockStakingDAPP/src/contracts/StakingContract.sol\":1324:1328  this */\n      address\n        /* \"TimeLockStakingDAPP/src/contracts/StakingContract.sol\":1331:1337  amount */\n      dup5\n        /* \"TimeLockStakingDAPP/src/contracts/StakingContract.sol\":1296:1338  returnToken.approve(address(this), amount) */\n      mload(0x40)\n      dup4\n      0xffffffff\n      and\n      0xe0\n      shl\n      dup2\n      mstore\n      0x04\n      add\n      tag_143\n      swap3\n      swap2\n      swap1\n      tag_107\n      jump\t// in\n    tag_143:\n      0x20\n      mload(0x40)\n      dup1\n      dup4\n      sub\n      dup2\n      0x00\n      dup8\n      gas\n      call\n      iszero\n      dup1\n      iszero\n      tag_145\n      jumpi\n      returndatasize\n      0x00\n      dup1\n      returndatacopy\n      revert(0x00, returndatasize)\n    tag_145:\n      pop\n      pop\n      pop\n      pop\n      mload(0x40)\n      returndatasize\n      not(0x1f)\n      0x1f\n      dup3\n      add\n      and\n      dup3\n      add\n      dup1\n      0x40\n      mstore\n      pop\n      dup2\n      add\n      swap1\n      tag_146\n      swap2\n      swap1\n      tag_111\n      jump\t// in\n    tag_146:\n        /* \"TimeLockStakingDAPP/src/contracts/StakingContract.sol\":1288:1371  require(returnToken.approve(address(this), amount), \"Return token approval failed\") */\n      tag_147\n      jumpi\n      mload(0x40)\n      0x08c379a000000000000000000000000000000000000000000000000000000000\n      dup2\n      mstore\n      0x04\n      add\n      tag_148\n      swap1\n      tag_149\n      jump\t// in\n    tag_148:\n      mload(0x40)\n      dup1\n      swap2\n      sub\n      swap1\n      revert\n    tag_147:\n        /* \"TimeLockStakingDAPP/src/contracts/StakingContract.sol\":1390:1411  Stake memory newStake */\n      0x00\n        /* \"TimeLockStakingDAPP/src/contracts/StakingContract.sol\":1414:1489  Stake(amount, block.timestamp, block.timestamp + duration, block.timestamp) */\n      mload(0x40)\n      dup1\n      0x80\n      add\n      0x40\n      mstore\n      dup1\n        /* \"TimeLockStakingDAPP/src/contracts/StakingContract.sol\":1420:1426  amount */\n      dup5\n        /* \"TimeLockStakingDAPP/src/contracts/StakingContract.sol\":1414:1489  Stake(amount, block.timestamp, block.timestamp + duration, block.timestamp) */\n      dup2\n      mstore\n      0x20\n      add\n        /* \"TimeLockStakingDAPP/src/contracts/StakingContract.sol\":1428:1443  block.timestamp */\n      timestamp\n        /* \"TimeLockStakingDAPP/src/contracts/StakingContract.sol\":1414:1489  Stake(amount, block.timestamp, block.timestamp + duration, block.timestamp) */\n      dup2\n      mstore\n      0x20\n      add\n        /* \"TimeLockStakingDAPP/src/contracts/StakingContract.sol\":1463:1471  duration */\n      dup4\n        /* \"TimeLockStakingDAPP/src/contracts/StakingContract.sol\":1445:1460  block.timestamp */\n      timestamp\n        /* \"TimeLockStakingDAPP/src/contracts/StakingContract.sol\":1445:1471  block.timestamp + duration */\n      tag_150\n      swap2\n      swap1\n      tag_65\n      jump\t// in\n    tag_150:\n        /* \"TimeLockStakingDAPP/src/contracts/StakingContract.sol\":1414:1489  Stake(amount, block.timestamp, block.timestamp + duration, block.timestamp) */\n      dup2\n      mstore\n      0x20\n      add\n        /* \"TimeLockStakingDAPP/src/contracts/StakingContract.sol\":1473:1488  block.timestamp */\n      timestamp\n        /* \"TimeLockStakingDAPP/src/contracts/StakingContract.sol\":1414:1489  Stake(amount, block.timestamp, block.timestamp + duration, block.timestamp) */\n      dup2\n      mstore\n      pop\n        /* \"TimeLockStakingDAPP/src/contracts/StakingContract.sol\":1390:1489  Stake memory newStake = Stake(amount, block.timestamp, block.timestamp + duration, block.timestamp) */\n      swap1\n      pop\n        /* \"TimeLockStakingDAPP/src/contracts/StakingContract.sol\":1499:1505  stakes */\n      0x04\n        /* \"TimeLockStakingDAPP/src/contracts/StakingContract.sol\":1499:1517  stakes[msg.sender] */\n      0x00\n        /* \"TimeLockStakingDAPP/src/contracts/StakingContract.sol\":1506:1516  msg.sender */\n      caller\n        /* \"TimeLockStakingDAPP/src/contracts/StakingContract.sol\":1499:1517  stakes[msg.sender] */\n      0xffffffffffffffffffffffffffffffffffffffff\n      and\n      0xffffffffffffffffffffffffffffffffffffffff\n      and\n      dup2\n      mstore\n      0x20\n      add\n      swap1\n      dup2\n      mstore\n      0x20\n      add\n      0x00\n      keccak256\n        /* \"TimeLockStakingDAPP/src/contracts/StakingContract.sol\":1523:1531  newStake */\n      dup2\n        /* \"TimeLockStakingDAPP/src/contracts/StakingContract.sol\":1499:1532  stakes[msg.sender].push(newStake) */\n      swap1\n      dup1\n      0x01\n      dup2\n      sload\n      add\n      dup1\n      dup3\n      sstore\n      dup1\n      swap2\n      pop\n      pop\n      0x01\n      swap1\n      sub\n      swap1\n      0x00\n      mstore\n      keccak256(0x00, 0x20)\n      swap1\n      0x04\n      mul\n      add\n      0x00\n      swap1\n      swap2\n      swap1\n      swap2\n      swap1\n      swap2\n      pop\n      0x00\n      dup3\n      add\n      mload\n      dup2\n      0x00\n      add\n      sstore\n      0x20\n      dup3\n      add\n      mload\n      dup2\n      0x01\n      add\n      sstore\n      0x40\n      dup3\n      add\n      mload\n      dup2\n      0x02\n      add\n      sstore\n      0x60\n      dup3\n      add\n      mload\n      dup2\n      0x03\n      add\n      sstore\n      pop\n      pop\n        /* \"TimeLockStakingDAPP/src/contracts/StakingContract.sol\":1564:1574  msg.sender */\n      caller\n        /* \"TimeLockStakingDAPP/src/contracts/StakingContract.sol\":1556:1593  Deposit(msg.sender, amount, duration) */\n      0xffffffffffffffffffffffffffffffffffffffff\n      and\n      0x90890809c654f11d6e72a28fa60149770a0d11ec6c92319d6ceb2bb0a4ea1a15\n        /* \"TimeLockStakingDAPP/src/contracts/StakingContract.sol\":1576:1582  amount */\n      dup5\n        /* \"TimeLockStakingDAPP/src/contracts/StakingContract.sol\":1584:1592  duration */\n      dup5\n        /* \"TimeLockStakingDAPP/src/contracts/StakingContract.sol\":1556:1593  Deposit(msg.sender, amount, duration) */\n      mload(0x40)\n      tag_152\n      swap3\n      swap2\n      swap1\n      tag_153\n      jump\t// in\n    tag_152:\n      mload(0x40)\n      dup1\n      swap2\n      sub\n      swap1\n      log2\n        /* \"TimeLockStakingDAPP/src/contracts/StakingContract.sol\":977:1600  {... */\n      pop\n        /* \"TimeLockStakingDAPP/src/contracts/StakingContract.sol\":911:1600  function createDeposit(uint256 amount, uint256 duration) external {... */\n      pop\n      pop\n      jump\t// out\n        /* \"TimeLockStakingDAPP/src/contracts/StakingContract.sol\":204:230  IERC20 public depositToken */\n    tag_54:\n      0x02\n      0x00\n      swap1\n      sload\n      swap1\n      0x0100\n      exp\n      swap1\n      div\n      0xffffffffffffffffffffffffffffffffffffffff\n      and\n      dup2\n      jump\t// out\n        /* \"#utility.yul\":88:205   */\n    tag_155:\n        /* \"#utility.yul\":197:198   */\n      0x00\n        /* \"#utility.yul\":194:195   */\n      dup1\n        /* \"#utility.yul\":187:199   */\n      revert\n        /* \"#utility.yul\":334:460   */\n    tag_157:\n        /* \"#utility.yul\":371:378   */\n      0x00\n        /* \"#utility.yul\":411:453   */\n      0xffffffffffffffffffffffffffffffffffffffff\n        /* \"#utility.yul\":404:409   */\n      dup3\n        /* \"#utility.yul\":400:454   */\n      and\n        /* \"#utility.yul\":389:454   */\n      swap1\n      pop\n        /* \"#utility.yul\":334:460   */\n      swap2\n      swap1\n      pop\n      jump\t// out\n        /* \"#utility.yul\":466:562   */\n    tag_158:\n        /* \"#utility.yul\":503:510   */\n      0x00\n        /* \"#utility.yul\":532:556   */\n      tag_203\n        /* \"#utility.yul\":550:555   */\n      dup3\n        /* \"#utility.yul\":532:556   */\n      tag_157\n      jump\t// in\n    tag_203:\n        /* \"#utility.yul\":521:556   */\n      swap1\n      pop\n        /* \"#utility.yul\":466:562   */\n      swap2\n      swap1\n      pop\n      jump\t// out\n        /* \"#utility.yul\":568:690   */\n    tag_159:\n        /* \"#utility.yul\":641:665   */\n      tag_205\n        /* \"#utility.yul\":659:664   */\n      dup2\n        /* \"#utility.yul\":641:665   */\n      tag_158\n      jump\t// in\n    tag_205:\n        /* \"#utility.yul\":634:639   */\n      dup2\n        /* \"#utility.yul\":631:666   */\n      eq\n        /* \"#utility.yul\":621:684   */\n      tag_206\n      jumpi\n        /* \"#utility.yul\":680:681   */\n      0x00\n        /* \"#utility.yul\":677:678   */\n      dup1\n        /* \"#utility.yul\":670:682   */\n      revert\n        /* \"#utility.yul\":621:684   */\n    tag_206:\n        /* \"#utility.yul\":568:690   */\n      pop\n      jump\t// out\n        /* \"#utility.yul\":696:835   */\n    tag_160:\n        /* \"#utility.yul\":742:747   */\n      0x00\n        /* \"#utility.yul\":780:786   */\n      dup2\n        /* \"#utility.yul\":767:787   */\n      calldataload\n        /* \"#utility.yul\":758:787   */\n      swap1\n      pop\n        /* \"#utility.yul\":796:829   */\n      tag_208\n        /* \"#utility.yul\":823:828   */\n      dup2\n        /* \"#utility.yul\":796:829   */\n      tag_159\n      jump\t// in\n    tag_208:\n        /* \"#utility.yul\":696:835   */\n      swap3\n      swap2\n      pop\n      pop\n      jump\t// out\n        /* \"#utility.yul\":841:1170   */\n    tag_16:\n        /* \"#utility.yul\":900:906   */\n      0x00\n        /* \"#utility.yul\":949:951   */\n      0x20\n        /* \"#utility.yul\":937:946   */\n      dup3\n        /* \"#utility.yul\":928:935   */\n      dup5\n        /* \"#utility.yul\":924:947   */\n      sub\n        /* \"#utility.yul\":920:952   */\n      slt\n        /* \"#utility.yul\":917:1036   */\n      iszero\n      tag_210\n      jumpi\n        /* \"#utility.yul\":955:1034   */\n      tag_211\n      tag_155\n      jump\t// in\n    tag_211:\n        /* \"#utility.yul\":917:1036   */\n    tag_210:\n        /* \"#utility.yul\":1075:1076   */\n      0x00\n        /* \"#utility.yul\":1100:1153   */\n      tag_212\n        /* \"#utility.yul\":1145:1152   */\n      dup5\n        /* \"#utility.yul\":1136:1142   */\n      dup3\n        /* \"#utility.yul\":1125:1134   */\n      dup6\n        /* \"#utility.yul\":1121:1143   */\n      add\n        /* \"#utility.yul\":1100:1153   */\n      tag_160\n      jump\t// in\n    tag_212:\n        /* \"#utility.yul\":1090:1153   */\n      swap2\n      pop\n        /* \"#utility.yul\":1046:1163   */\n      pop\n        /* \"#utility.yul\":841:1170   */\n      swap3\n      swap2\n      pop\n      pop\n      jump\t// out\n        /* \"#utility.yul\":1176:1253   */\n    tag_161:\n        /* \"#utility.yul\":1213:1220   */\n      0x00\n        /* \"#utility.yul\":1242:1247   */\n      dup2\n        /* \"#utility.yul\":1231:1247   */\n      swap1\n      pop\n        /* \"#utility.yul\":1176:1253   */\n      swap2\n      swap1\n      pop\n      jump\t// out\n        /* \"#utility.yul\":1259:1377   */\n    tag_162:\n        /* \"#utility.yul\":1346:1370   */\n      tag_215\n        /* \"#utility.yul\":1364:1369   */\n      dup2\n        /* \"#utility.yul\":1346:1370   */\n      tag_161\n      jump\t// in\n    tag_215:\n        /* \"#utility.yul\":1341:1344   */\n      dup3\n        /* \"#utility.yul\":1334:1371   */\n      mstore\n        /* \"#utility.yul\":1259:1377   */\n      pop\n      pop\n      jump\t// out\n        /* \"#utility.yul\":1383:1605   */\n    tag_19:\n        /* \"#utility.yul\":1476:1480   */\n      0x00\n        /* \"#utility.yul\":1514:1516   */\n      0x20\n        /* \"#utility.yul\":1503:1512   */\n      dup3\n        /* \"#utility.yul\":1499:1517   */\n      add\n        /* \"#utility.yul\":1491:1517   */\n      swap1\n      pop\n        /* \"#utility.yul\":1527:1598   */\n      tag_217\n        /* \"#utility.yul\":1595:1596   */\n      0x00\n        /* \"#utility.yul\":1584:1593   */\n      dup4\n        /* \"#utility.yul\":1580:1597   */\n      add\n        /* \"#utility.yul\":1571:1577   */\n      dup5\n        /* \"#utility.yul\":1527:1598   */\n      tag_162\n      jump\t// in\n    tag_217:\n        /* \"#utility.yul\":1383:1605   */\n      swap3\n      swap2\n      pop\n      pop\n      jump\t// out\n        /* \"#utility.yul\":1611:1671   */\n    tag_163:\n        /* \"#utility.yul\":1639:1642   */\n      0x00\n        /* \"#utility.yul\":1660:1665   */\n      dup2\n        /* \"#utility.yul\":1653:1665   */\n      swap1\n      pop\n        /* \"#utility.yul\":1611:1671   */\n      swap2\n      swap1\n      pop\n      jump\t// out\n        /* \"#utility.yul\":1677:1819   */\n    tag_164:\n        /* \"#utility.yul\":1727:1736   */\n      0x00\n        /* \"#utility.yul\":1760:1813   */\n      tag_220\n        /* \"#utility.yul\":1778:1812   */\n      tag_221\n        /* \"#utility.yul\":1787:1811   */\n      tag_222\n        /* \"#utility.yul\":1805:1810   */\n      dup5\n        /* \"#utility.yul\":1787:1811   */\n      tag_157\n      jump\t// in\n    tag_222:\n        /* \"#utility.yul\":1778:1812   */\n      tag_163\n      jump\t// in\n    tag_221:\n        /* \"#utility.yul\":1760:1813   */\n      tag_157\n      jump\t// in\n    tag_220:\n        /* \"#utility.yul\":1747:1813   */\n      swap1\n      pop\n        /* \"#utility.yul\":1677:1819   */\n      swap2\n      swap1\n      pop\n      jump\t// out\n        /* \"#utility.yul\":1825:1951   */\n    tag_165:\n        /* \"#utility.yul\":1875:1884   */\n      0x00\n        /* \"#utility.yul\":1908:1945   */\n      tag_224\n        /* \"#utility.yul\":1939:1944   */\n      dup3\n        /* \"#utility.yul\":1908:1945   */\n      tag_164\n      jump\t// in\n    tag_224:\n        /* \"#utility.yul\":1895:1945   */\n      swap1\n      pop\n        /* \"#utility.yul\":1825:1951   */\n      swap2\n      swap1\n      pop\n      jump\t// out\n        /* \"#utility.yul\":1957:2096   */\n    tag_166:\n        /* \"#utility.yul\":2020:2029   */\n      0x00\n        /* \"#utility.yul\":2053:2090   */\n      tag_226\n        /* \"#utility.yul\":2084:2089   */\n      dup3\n        /* \"#utility.yul\":2053:2090   */\n      tag_165\n      jump\t// in\n    tag_226:\n        /* \"#utility.yul\":2040:2090   */\n      swap1\n      pop\n        /* \"#utility.yul\":1957:2096   */\n      swap2\n      swap1\n      pop\n      jump\t// out\n        /* \"#utility.yul\":2102:2259   */\n    tag_167:\n        /* \"#utility.yul\":2202:2252   */\n      tag_228\n        /* \"#utility.yul\":2246:2251   */\n      dup2\n        /* \"#utility.yul\":2202:2252   */\n      tag_166\n      jump\t// in\n    tag_228:\n        /* \"#utility.yul\":2197:2200   */\n      dup3\n        /* \"#utility.yul\":2190:2253   */\n      mstore\n        /* \"#utility.yul\":2102:2259   */\n      pop\n      pop\n      jump\t// out\n        /* \"#utility.yul\":2265:2513   */\n    tag_23:\n        /* \"#utility.yul\":2371:2375   */\n      0x00\n        /* \"#utility.yul\":2409:2411   */\n      0x20\n        /* \"#utility.yul\":2398:2407   */\n      dup3\n        /* \"#utility.yul\":2394:2412   */\n      add\n        /* \"#utility.yul\":2386:2412   */\n      swap1\n      pop\n        /* \"#utility.yul\":2422:2506   */\n      tag_230\n        /* \"#utility.yul\":2503:2504   */\n      0x00\n        /* \"#utility.yul\":2492:2501   */\n      dup4\n        /* \"#utility.yul\":2488:2505   */\n      add\n        /* \"#utility.yul\":2479:2485   */\n      dup5\n        /* \"#utility.yul\":2422:2506   */\n      tag_167\n      jump\t// in\n    tag_230:\n        /* \"#utility.yul\":2265:2513   */\n      swap3\n      swap2\n      pop\n      pop\n      jump\t// out\n        /* \"#utility.yul\":2519:2641   */\n    tag_168:\n        /* \"#utility.yul\":2592:2616   */\n      tag_232\n        /* \"#utility.yul\":2610:2615   */\n      dup2\n        /* \"#utility.yul\":2592:2616   */\n      tag_161\n      jump\t// in\n    tag_232:\n        /* \"#utility.yul\":2585:2590   */\n      dup2\n        /* \"#utility.yul\":2582:2617   */\n      eq\n        /* \"#utility.yul\":2572:2635   */\n      tag_233\n      jumpi\n        /* \"#utility.yul\":2631:2632   */\n      0x00\n        /* \"#utility.yul\":2628:2629   */\n      dup1\n        /* \"#utility.yul\":2621:2633   */\n      revert\n        /* \"#utility.yul\":2572:2635   */\n    tag_233:\n        /* \"#utility.yul\":2519:2641   */\n      pop\n      jump\t// out\n        /* \"#utility.yul\":2647:2786   */\n    tag_169:\n        /* \"#utility.yul\":2693:2698   */\n      0x00\n        /* \"#utility.yul\":2731:2737   */\n      dup2\n        /* \"#utility.yul\":2718:2738   */\n      calldataload\n        /* \"#utility.yul\":2709:2738   */\n      swap1\n      pop\n        /* \"#utility.yul\":2747:2780   */\n      tag_235\n        /* \"#utility.yul\":2774:2779   */\n      dup2\n        /* \"#utility.yul\":2747:2780   */\n      tag_168\n      jump\t// in\n    tag_235:\n        /* \"#utility.yul\":2647:2786   */\n      swap3\n      swap2\n      pop\n      pop\n      jump\t// out\n        /* \"#utility.yul\":2792:3266   */\n    tag_30:\n        /* \"#utility.yul\":2860:2866   */\n      0x00\n        /* \"#utility.yul\":2868:2874   */\n      dup1\n        /* \"#utility.yul\":2917:2919   */\n      0x40\n        /* \"#utility.yul\":2905:2914   */\n      dup4\n        /* \"#utility.yul\":2896:2903   */\n      dup6\n        /* \"#utility.yul\":2892:2915   */\n      sub\n        /* \"#utility.yul\":2888:2920   */\n      slt\n        /* \"#utility.yul\":2885:3004   */\n      iszero\n      tag_237\n      jumpi\n        /* \"#utility.yul\":2923:3002   */\n      tag_238\n      tag_155\n      jump\t// in\n    tag_238:\n        /* \"#utility.yul\":2885:3004   */\n    tag_237:\n        /* \"#utility.yul\":3043:3044   */\n      0x00\n        /* \"#utility.yul\":3068:3121   */\n      tag_239\n        /* \"#utility.yul\":3113:3120   */\n      dup6\n        /* \"#utility.yul\":3104:3110   */\n      dup3\n        /* \"#utility.yul\":3093:3102   */\n      dup7\n        /* \"#utility.yul\":3089:3111   */\n      add\n        /* \"#utility.yul\":3068:3121   */\n      tag_160\n      jump\t// in\n    tag_239:\n        /* \"#utility.yul\":3058:3121   */\n      swap3\n      pop\n        /* \"#utility.yul\":3014:3131   */\n      pop\n        /* \"#utility.yul\":3170:3172   */\n      0x20\n        /* \"#utility.yul\":3196:3249   */\n      tag_240\n        /* \"#utility.yul\":3241:3248   */\n      dup6\n        /* \"#utility.yul\":3232:3238   */\n      dup3\n        /* \"#utility.yul\":3221:3230   */\n      dup7\n        /* \"#utility.yul\":3217:3239   */\n      add\n        /* \"#utility.yul\":3196:3249   */\n      tag_169\n      jump\t// in\n    tag_240:\n        /* \"#utility.yul\":3186:3249   */\n      swap2\n      pop\n        /* \"#utility.yul\":3141:3259   */\n      pop\n        /* \"#utility.yul\":2792:3266   */\n      swap3\n      pop\n      swap3\n      swap1\n      pop\n      jump\t// out\n        /* \"#utility.yul\":3272:3825   */\n    tag_33:\n        /* \"#utility.yul\":3449:3453   */\n      0x00\n        /* \"#utility.yul\":3487:3490   */\n      0x80\n        /* \"#utility.yul\":3476:3485   */\n      dup3\n        /* \"#utility.yul\":3472:3491   */\n      add\n        /* \"#utility.yul\":3464:3491   */\n      swap1\n      pop\n        /* \"#utility.yul\":3501:3572   */\n      tag_242\n        /* \"#utility.yul\":3569:3570   */\n      0x00\n        /* \"#utility.yul\":3558:3567   */\n      dup4\n        /* \"#utility.yul\":3554:3571   */\n      add\n        /* \"#utility.yul\":3545:3551   */\n      dup8\n        /* \"#utility.yul\":3501:3572   */\n      tag_162\n      jump\t// in\n    tag_242:\n        /* \"#utility.yul\":3582:3654   */\n      tag_243\n        /* \"#utility.yul\":3650:3652   */\n      0x20\n        /* \"#utility.yul\":3639:3648   */\n      dup4\n        /* \"#utility.yul\":3635:3653   */\n      add\n        /* \"#utility.yul\":3626:3632   */\n      dup7\n        /* \"#utility.yul\":3582:3654   */\n      tag_162\n      jump\t// in\n    tag_243:\n        /* \"#utility.yul\":3664:3736   */\n      tag_244\n        /* \"#utility.yul\":3732:3734   */\n      0x40\n        /* \"#utility.yul\":3721:3730   */\n      dup4\n        /* \"#utility.yul\":3717:3735   */\n      add\n        /* \"#utility.yul\":3708:3714   */\n      dup6\n        /* \"#utility.yul\":3664:3736   */\n      tag_162\n      jump\t// in\n    tag_244:\n        /* \"#utility.yul\":3746:3818   */\n      tag_245\n        /* \"#utility.yul\":3814:3816   */\n      0x60\n        /* \"#utility.yul\":3803:3812   */\n      dup4\n        /* \"#utility.yul\":3799:3817   */\n      add\n        /* \"#utility.yul\":3790:3796   */\n      dup5\n        /* \"#utility.yul\":3746:3818   */\n      tag_162\n      jump\t// in\n    tag_245:\n        /* \"#utility.yul\":3272:3825   */\n      swap6\n      swap5\n      pop\n      pop\n      pop\n      pop\n      pop\n      jump\t// out\n        /* \"#utility.yul\":3831:3966   */\n    tag_170:\n        /* \"#utility.yul\":3919:3925   */\n      0x00\n        /* \"#utility.yul\":3953:3958   */\n      dup2\n        /* \"#utility.yul\":3947:3959   */\n      mload\n        /* \"#utility.yul\":3937:3959   */\n      swap1\n      pop\n        /* \"#utility.yul\":3831:3966   */\n      swap2\n      swap1\n      pop\n      jump\t// out\n        /* \"#utility.yul\":3972:4177   */\n    tag_171:\n        /* \"#utility.yul\":4092:4103   */\n      0x00\n        /* \"#utility.yul\":4126:4132   */\n      dup3\n        /* \"#utility.yul\":4121:4124   */\n      dup3\n        /* \"#utility.yul\":4114:4133   */\n      mstore\n        /* \"#utility.yul\":4166:4170   */\n      0x20\n        /* \"#utility.yul\":4161:4164   */\n      dup3\n        /* \"#utility.yul\":4157:4171   */\n      add\n        /* \"#utility.yul\":4142:4171   */\n      swap1\n      pop\n        /* \"#utility.yul\":3972:4177   */\n      swap3\n      swap2\n      pop\n      pop\n      jump\t// out\n        /* \"#utility.yul\":4183:4336   */\n    tag_172:\n        /* \"#utility.yul\":4271:4275   */\n      0x00\n        /* \"#utility.yul\":4294:4297   */\n      dup2\n        /* \"#utility.yul\":4286:4297   */\n      swap1\n      pop\n        /* \"#utility.yul\":4324:4328   */\n      0x20\n        /* \"#utility.yul\":4319:4322   */\n      dup3\n        /* \"#utility.yul\":4315:4329   */\n      add\n        /* \"#utility.yul\":4307:4329   */\n      swap1\n      pop\n        /* \"#utility.yul\":4183:4336   */\n      swap2\n      swap1\n      pop\n      jump\t// out\n        /* \"#utility.yul\":4342:4450   */\n    tag_173:\n        /* \"#utility.yul\":4419:4443   */\n      tag_250\n        /* \"#utility.yul\":4437:4442   */\n      dup2\n        /* \"#utility.yul\":4419:4443   */\n      tag_161\n      jump\t// in\n    tag_250:\n        /* \"#utility.yul\":4414:4417   */\n      dup3\n        /* \"#utility.yul\":4407:4444   */\n      mstore\n        /* \"#utility.yul\":4342:4450   */\n      pop\n      pop\n      jump\t// out\n        /* \"#utility.yul\":4524:5380   */\n    tag_174:\n        /* \"#utility.yul\":4653:4657   */\n      0x80\n        /* \"#utility.yul\":4648:4651   */\n      dup3\n        /* \"#utility.yul\":4644:4658   */\n      add\n        /* \"#utility.yul\":4742:4746   */\n      0x00\n        /* \"#utility.yul\":4735:4740   */\n      dup3\n        /* \"#utility.yul\":4731:4747   */\n      add\n        /* \"#utility.yul\":4725:4748   */\n      mload\n        /* \"#utility.yul\":4761:4824   */\n      tag_252\n        /* \"#utility.yul\":4818:4822   */\n      0x00\n        /* \"#utility.yul\":4813:4816   */\n      dup6\n        /* \"#utility.yul\":4809:4823   */\n      add\n        /* \"#utility.yul\":4795:4807   */\n      dup3\n        /* \"#utility.yul\":4761:4824   */\n      tag_173\n      jump\t// in\n    tag_252:\n        /* \"#utility.yul\":4668:4834   */\n      pop\n        /* \"#utility.yul\":4921:4925   */\n      0x20\n        /* \"#utility.yul\":4914:4919   */\n      dup3\n        /* \"#utility.yul\":4910:4926   */\n      add\n        /* \"#utility.yul\":4904:4927   */\n      mload\n        /* \"#utility.yul\":4940:5003   */\n      tag_253\n        /* \"#utility.yul\":4997:5001   */\n      0x20\n        /* \"#utility.yul\":4992:4995   */\n      dup6\n        /* \"#utility.yul\":4988:5002   */\n      add\n        /* \"#utility.yul\":4974:4986   */\n      dup3\n        /* \"#utility.yul\":4940:5003   */\n      tag_173\n      jump\t// in\n    tag_253:\n        /* \"#utility.yul\":4844:5013   */\n      pop\n        /* \"#utility.yul\":5098:5102   */\n      0x40\n        /* \"#utility.yul\":5091:5096   */\n      dup3\n        /* \"#utility.yul\":5087:5103   */\n      add\n        /* \"#utility.yul\":5081:5104   */\n      mload\n        /* \"#utility.yul\":5117:5180   */\n      tag_254\n        /* \"#utility.yul\":5174:5178   */\n      0x40\n        /* \"#utility.yul\":5169:5172   */\n      dup6\n        /* \"#utility.yul\":5165:5179   */\n      add\n        /* \"#utility.yul\":5151:5163   */\n      dup3\n        /* \"#utility.yul\":5117:5180   */\n      tag_173\n      jump\t// in\n    tag_254:\n        /* \"#utility.yul\":5023:5190   */\n      pop\n        /* \"#utility.yul\":5281:5285   */\n      0x60\n        /* \"#utility.yul\":5274:5279   */\n      dup3\n        /* \"#utility.yul\":5270:5286   */\n      add\n        /* \"#utility.yul\":5264:5287   */\n      mload\n        /* \"#utility.yul\":5300:5363   */\n      tag_255\n        /* \"#utility.yul\":5357:5361   */\n      0x60\n        /* \"#utility.yul\":5352:5355   */\n      dup6\n        /* \"#utility.yul\":5348:5362   */\n      add\n        /* \"#utility.yul\":5334:5346   */\n      dup3\n        /* \"#utility.yul\":5300:5363   */\n      tag_173\n      jump\t// in\n    tag_255:\n        /* \"#utility.yul\":5200:5373   */\n      pop\n        /* \"#utility.yul\":4622:5380   */\n      pop\n        /* \"#utility.yul\":4524:5380   */\n      pop\n      pop\n      jump\t// out\n        /* \"#utility.yul\":5386:5649   */\n    tag_175:\n        /* \"#utility.yul\":5497:5507   */\n      0x00\n        /* \"#utility.yul\":5518:5606   */\n      tag_257\n        /* \"#utility.yul\":5602:5605   */\n      dup4\n        /* \"#utility.yul\":5594:5600   */\n      dup4\n        /* \"#utility.yul\":5518:5606   */\n      tag_174\n      jump\t// in\n    tag_257:\n        /* \"#utility.yul\":5638:5642   */\n      0x80\n        /* \"#utility.yul\":5633:5636   */\n      dup4\n        /* \"#utility.yul\":5629:5643   */\n      add\n        /* \"#utility.yul\":5615:5643   */\n      swap1\n      pop\n        /* \"#utility.yul\":5386:5649   */\n      swap3\n      swap2\n      pop\n      pop\n      jump\t// out\n        /* \"#utility.yul\":5655:5789   */\n    tag_176:\n        /* \"#utility.yul\":5746:5750   */\n      0x00\n        /* \"#utility.yul\":5778:5782   */\n      0x20\n        /* \"#utility.yul\":5773:5776   */\n      dup3\n        /* \"#utility.yul\":5769:5783   */\n      add\n        /* \"#utility.yul\":5761:5783   */\n      swap1\n      pop\n        /* \"#utility.yul\":5655:5789   */\n      swap2\n      swap1\n      pop\n      jump\t// out\n        /* \"#utility.yul\":5867:6767   */\n    tag_177:\n        /* \"#utility.yul\":6028:6031   */\n      0x00\n        /* \"#utility.yul\":6057:6132   */\n      tag_260\n        /* \"#utility.yul\":6126:6131   */\n      dup3\n        /* \"#utility.yul\":6057:6132   */\n      tag_170\n      jump\t// in\n    tag_260:\n        /* \"#utility.yul\":6148:6255   */\n      tag_261\n        /* \"#utility.yul\":6248:6254   */\n      dup2\n        /* \"#utility.yul\":6243:6246   */\n      dup6\n        /* \"#utility.yul\":6148:6255   */\n      tag_171\n      jump\t// in\n    tag_261:\n        /* \"#utility.yul\":6141:6255   */\n      swap4\n      pop\n        /* \"#utility.yul\":6279:6356   */\n      tag_262\n        /* \"#utility.yul\":6350:6355   */\n      dup4\n        /* \"#utility.yul\":6279:6356   */\n      tag_172\n      jump\t// in\n    tag_262:\n        /* \"#utility.yul\":6379:6386   */\n      dup1\n        /* \"#utility.yul\":6410:6411   */\n      0x00\n        /* \"#utility.yul\":6395:6742   */\n    tag_263:\n        /* \"#utility.yul\":6420:6426   */\n      dup4\n        /* \"#utility.yul\":6417:6418   */\n      dup2\n        /* \"#utility.yul\":6414:6427   */\n      lt\n        /* \"#utility.yul\":6395:6742   */\n      iszero\n      tag_265\n      jumpi\n        /* \"#utility.yul\":6496:6502   */\n      dup2\n        /* \"#utility.yul\":6490:6503   */\n      mload\n        /* \"#utility.yul\":6523:6628   */\n      tag_266\n        /* \"#utility.yul\":6624:6627   */\n      dup9\n        /* \"#utility.yul\":6609:6622   */\n      dup3\n        /* \"#utility.yul\":6523:6628   */\n      tag_175\n      jump\t// in\n    tag_266:\n        /* \"#utility.yul\":6516:6628   */\n      swap8\n      pop\n        /* \"#utility.yul\":6651:6732   */\n      tag_267\n        /* \"#utility.yul\":6725:6731   */\n      dup4\n        /* \"#utility.yul\":6651:6732   */\n      tag_176\n      jump\t// in\n    tag_267:\n        /* \"#utility.yul\":6641:6732   */\n      swap3\n      pop\n        /* \"#utility.yul\":6455:6742   */\n      pop\n        /* \"#utility.yul\":6442:6443   */\n      0x01\n        /* \"#utility.yul\":6439:6440   */\n      dup2\n        /* \"#utility.yul\":6435:6444   */\n      add\n        /* \"#utility.yul\":6430:6444   */\n      swap1\n      pop\n        /* \"#utility.yul\":6395:6742   */\n      jump(tag_263)\n    tag_265:\n        /* \"#utility.yul\":6399:6413   */\n      pop\n        /* \"#utility.yul\":6758:6761   */\n      dup6\n        /* \"#utility.yul\":6751:6761   */\n      swap4\n      pop\n        /* \"#utility.yul\":6033:6767   */\n      pop\n      pop\n      pop\n        /* \"#utility.yul\":5867:6767   */\n      swap3\n      swap2\n      pop\n      pop\n      jump\t// out\n        /* \"#utility.yul\":6773:7230   */\n    tag_44:\n        /* \"#utility.yul\":6958:6962   */\n      0x00\n        /* \"#utility.yul\":6996:6998   */\n      0x20\n        /* \"#utility.yul\":6985:6994   */\n      dup3\n        /* \"#utility.yul\":6981:6999   */\n      add\n        /* \"#utility.yul\":6973:6999   */\n      swap1\n      pop\n        /* \"#utility.yul\":7045:7054   */\n      dup2\n        /* \"#utility.yul\":7039:7043   */\n      dup2\n        /* \"#utility.yul\":7035:7055   */\n      sub\n        /* \"#utility.yul\":7031:7032   */\n      0x00\n        /* \"#utility.yul\":7020:7029   */\n      dup4\n        /* \"#utility.yul\":7016:7033   */\n      add\n        /* \"#utility.yul\":7009:7056   */\n      mstore\n        /* \"#utility.yul\":7073:7223   */\n      tag_269\n        /* \"#utility.yul\":7218:7222   */\n      dup2\n        /* \"#utility.yul\":7209:7215   */\n      dup5\n        /* \"#utility.yul\":7073:7223   */\n      tag_177\n      jump\t// in\n    tag_269:\n        /* \"#utility.yul\":7065:7223   */\n      swap1\n      pop\n        /* \"#utility.yul\":6773:7230   */\n      swap3\n      swap2\n      pop\n      pop\n      jump\t// out\n        /* \"#utility.yul\":7236:7354   */\n    tag_178:\n        /* \"#utility.yul\":7323:7347   */\n      tag_271\n        /* \"#utility.yul\":7341:7346   */\n      dup2\n        /* \"#utility.yul\":7323:7347   */\n      tag_158\n      jump\t// in\n    tag_271:\n        /* \"#utility.yul\":7318:7321   */\n      dup3\n        /* \"#utility.yul\":7311:7348   */\n      mstore\n        /* \"#utility.yul\":7236:7354   */\n      pop\n      pop\n      jump\t// out\n        /* \"#utility.yul\":7360:7582   */\n    tag_48:\n        /* \"#utility.yul\":7453:7457   */\n      0x00\n        /* \"#utility.yul\":7491:7493   */\n      0x20\n        /* \"#utility.yul\":7480:7489   */\n      dup3\n        /* \"#utility.yul\":7476:7494   */\n      add\n        /* \"#utility.yul\":7468:7494   */\n      swap1\n      pop\n        /* \"#utility.yul\":7504:7575   */\n      tag_273\n        /* \"#utility.yul\":7572:7573   */\n      0x00\n        /* \"#utility.yul\":7561:7570   */\n      dup4\n        /* \"#utility.yul\":7557:7574   */\n      add\n        /* \"#utility.yul\":7548:7554   */\n      dup5\n        /* \"#utility.yul\":7504:7575   */\n      tag_178\n      jump\t// in\n    tag_273:\n        /* \"#utility.yul\":7360:7582   */\n      swap3\n      swap2\n      pop\n      pop\n      jump\t// out\n        /* \"#utility.yul\":7588:8062   */\n    tag_51:\n        /* \"#utility.yul\":7656:7662   */\n      0x00\n        /* \"#utility.yul\":7664:7670   */\n      dup1\n        /* \"#utility.yul\":7713:7715   */\n      0x40\n        /* \"#utility.yul\":7701:7710   */\n      dup4\n        /* \"#utility.yul\":7692:7699   */\n      dup6\n        /* \"#utility.yul\":7688:7711   */\n      sub\n        /* \"#utility.yul\":7684:7716   */\n      slt\n        /* \"#utility.yul\":7681:7800   */\n      iszero\n      tag_275\n      jumpi\n        /* \"#utility.yul\":7719:7798   */\n      tag_276\n      tag_155\n      jump\t// in\n    tag_276:\n        /* \"#utility.yul\":7681:7800   */\n    tag_275:\n        /* \"#utility.yul\":7839:7840   */\n      0x00\n        /* \"#utility.yul\":7864:7917   */\n      tag_277\n        /* \"#utility.yul\":7909:7916   */\n      dup6\n        /* \"#utility.yul\":7900:7906   */\n      dup3\n        /* \"#utility.yul\":7889:7898   */\n      dup7\n        /* \"#utility.yul\":7885:7907   */\n      add\n        /* \"#utility.yul\":7864:7917   */\n      tag_169\n      jump\t// in\n    tag_277:\n        /* \"#utility.yul\":7854:7917   */\n      swap3\n      pop\n        /* \"#utility.yul\":7810:7927   */\n      pop\n        /* \"#utility.yul\":7966:7968   */\n      0x20\n        /* \"#utility.yul\":7992:8045   */\n      tag_278\n        /* \"#utility.yul\":8037:8044   */\n      dup6\n        /* \"#utility.yul\":8028:8034   */\n      dup3\n        /* \"#utility.yul\":8017:8026   */\n      dup7\n        /* \"#utility.yul\":8013:8035   */\n      add\n        /* \"#utility.yul\":7992:8045   */\n      tag_169\n      jump\t// in\n    tag_278:\n        /* \"#utility.yul\":7982:8045   */\n      swap2\n      pop\n        /* \"#utility.yul\":7937:8055   */\n      pop\n        /* \"#utility.yul\":7588:8062   */\n      swap3\n      pop\n      swap3\n      swap1\n      pop\n      jump\t// out\n        /* \"#utility.yul\":8068:8248   */\n    tag_62:\n        /* \"#utility.yul\":8116:8193   */\n      0x4e487b7100000000000000000000000000000000000000000000000000000000\n        /* \"#utility.yul\":8113:8114   */\n      0x00\n        /* \"#utility.yul\":8106:8194   */\n      mstore\n        /* \"#utility.yul\":8213:8217   */\n      0x32\n        /* \"#utility.yul\":8210:8211   */\n      0x04\n        /* \"#utility.yul\":8203:8218   */\n      mstore\n        /* \"#utility.yul\":8237:8241   */\n      0x24\n        /* \"#utility.yul\":8234:8235   */\n      0x00\n        /* \"#utility.yul\":8227:8242   */\n      revert\n        /* \"#utility.yul\":8254:8434   */\n    tag_179:\n        /* \"#utility.yul\":8302:8379   */\n      0x4e487b7100000000000000000000000000000000000000000000000000000000\n        /* \"#utility.yul\":8299:8300   */\n      0x00\n        /* \"#utility.yul\":8292:8380   */\n      mstore\n        /* \"#utility.yul\":8399:8403   */\n      0x11\n        /* \"#utility.yul\":8396:8397   */\n      0x04\n        /* \"#utility.yul\":8389:8404   */\n      mstore\n        /* \"#utility.yul\":8423:8427   */\n      0x24\n        /* \"#utility.yul\":8420:8421   */\n      0x00\n        /* \"#utility.yul\":8413:8428   */\n      revert\n        /* \"#utility.yul\":8440:8631   */\n    tag_65:\n        /* \"#utility.yul\":8480:8483   */\n      0x00\n        /* \"#utility.yul\":8499:8519   */\n      tag_282\n        /* \"#utility.yul\":8517:8518   */\n      dup3\n        /* \"#utility.yul\":8499:8519   */\n      tag_161\n      jump\t// in\n    tag_282:\n        /* \"#utility.yul\":8494:8519   */\n      swap2\n      pop\n        /* \"#utility.yul\":8533:8553   */\n      tag_283\n        /* \"#utility.yul\":8551:8552   */\n      dup4\n        /* \"#utility.yul\":8533:8553   */\n      tag_161\n      jump\t// in\n    tag_283:\n        /* \"#utility.yul\":8528:8553   */\n      swap3\n      pop\n        /* \"#utility.yul\":8576:8577   */\n      dup3\n        /* \"#utility.yul\":8573:8574   */\n      dup3\n        /* \"#utility.yul\":8569:8578   */\n      add\n        /* \"#utility.yul\":8562:8578   */\n      swap1\n      pop\n        /* \"#utility.yul\":8597:8600   */\n      dup1\n        /* \"#utility.yul\":8594:8595   */\n      dup3\n        /* \"#utility.yul\":8591:8601   */\n      gt\n        /* \"#utility.yul\":8588:8624   */\n      iszero\n      tag_284\n      jumpi\n        /* \"#utility.yul\":8604:8622   */\n      tag_285\n      tag_179\n      jump\t// in\n    tag_285:\n        /* \"#utility.yul\":8588:8624   */\n    tag_284:\n        /* \"#utility.yul\":8440:8631   */\n      swap3\n      swap2\n      pop\n      pop\n      jump\t// out\n        /* \"#utility.yul\":8637:8870   */\n    tag_67:\n        /* \"#utility.yul\":8676:8679   */\n      0x00\n        /* \"#utility.yul\":8699:8723   */\n      tag_287\n        /* \"#utility.yul\":8717:8722   */\n      dup3\n        /* \"#utility.yul\":8699:8723   */\n      tag_161\n      jump\t// in\n    tag_287:\n        /* \"#utility.yul\":8690:8723   */\n      swap2\n      pop\n        /* \"#utility.yul\":8745:8811   */\n      0xffffffffffffffffffffffffffffffffffffffffffffffffffffffffffffffff\n        /* \"#utility.yul\":8738:8743   */\n      dup3\n        /* \"#utility.yul\":8735:8812   */\n      sub\n        /* \"#utility.yul\":8732:8835   */\n      tag_288\n      jumpi\n        /* \"#utility.yul\":8815:8833   */\n      tag_289\n      tag_179\n      jump\t// in\n    tag_289:\n        /* \"#utility.yul\":8732:8835   */\n    tag_288:\n        /* \"#utility.yul\":8862:8863   */\n      0x01\n        /* \"#utility.yul\":8855:8860   */\n      dup3\n        /* \"#utility.yul\":8851:8864   */\n      add\n        /* \"#utility.yul\":8844:8864   */\n      swap1\n      pop\n        /* \"#utility.yul\":8637:8870   */\n      swap2\n      swap1\n      pop\n      jump\t// out\n        /* \"#utility.yul\":8876:9070   */\n    tag_80:\n        /* \"#utility.yul\":8916:8920   */\n      0x00\n        /* \"#utility.yul\":8936:8956   */\n      tag_291\n        /* \"#utility.yul\":8954:8955   */\n      dup3\n        /* \"#utility.yul\":8936:8956   */\n      tag_161\n      jump\t// in\n    tag_291:\n        /* \"#utility.yul\":8931:8956   */\n      swap2\n      pop\n        /* \"#utility.yul\":8970:8990   */\n      tag_292\n        /* \"#utility.yul\":8988:8989   */\n      dup4\n        /* \"#utility.yul\":8970:8990   */\n      tag_161\n      jump\t// in\n    tag_292:\n        /* \"#utility.yul\":8965:8990   */\n      swap3\n      pop\n        /* \"#utility.yul\":9014:9015   */\n      dup3\n        /* \"#utility.yul\":9011:9012   */\n      dup3\n        /* \"#utility.yul\":9007:9016   */\n      sub\n        /* \"#utility.yul\":8999:9016   */\n      swap1\n      pop\n        /* \"#utility.yul\":9038:9039   */\n      dup2\n        /* \"#utility.yul\":9032:9036   */\n      dup2\n        /* \"#utility.yul\":9029:9040   */\n      gt\n        /* \"#utility.yul\":9026:9063   */\n      iszero\n      tag_293\n      jumpi\n        /* \"#utility.yul\":9043:9061   */\n      tag_294\n      tag_179\n      jump\t// in\n    tag_294:\n        /* \"#utility.yul\":9026:9063   */\n    tag_293:\n        /* \"#utility.yul\":8876:9070   */\n      swap3\n      swap2\n      pop\n      pop\n      jump\t// out\n        /* \"#utility.yul\":9076:9486   */\n    tag_85:\n        /* \"#utility.yul\":9116:9123   */\n      0x00\n        /* \"#utility.yul\":9139:9159   */\n      tag_296\n        /* \"#utility.yul\":9157:9158   */\n      dup3\n        /* \"#utility.yul\":9139:9159   */\n      tag_161\n      jump\t// in\n    tag_296:\n        /* \"#utility.yul\":9134:9159   */\n      swap2\n      pop\n        /* \"#utility.yul\":9173:9193   */\n      tag_297\n        /* \"#utility.yul\":9191:9192   */\n      dup4\n        /* \"#utility.yul\":9173:9193   */\n      tag_161\n      jump\t// in\n    tag_297:\n        /* \"#utility.yul\":9168:9193   */\n      swap3\n      pop\n        /* \"#utility.yul\":9228:9229   */\n      dup3\n        /* \"#utility.yul\":9225:9226   */\n      dup3\n        /* \"#utility.yul\":9221:9230   */\n      mul\n        /* \"#utility.yul\":9250:9280   */\n      tag_298\n        /* \"#utility.yul\":9268:9279   */\n      dup2\n        /* \"#utility.yul\":9250:9280   */\n      tag_161\n      jump\t// in\n    tag_298:\n        /* \"#utility.yul\":9239:9280   */\n      swap2\n      pop\n        /* \"#utility.yul\":9429:9430   */\n      dup3\n        /* \"#utility.yul\":9420:9427   */\n      dup3\n        /* \"#utility.yul\":9416:9431   */\n      div\n        /* \"#utility.yul\":9413:9414   */\n      dup5\n        /* \"#utility.yul\":9410:9432   */\n      eq\n        /* \"#utility.yul\":9390:9391   */\n      dup4\n        /* \"#utility.yul\":9383:9392   */\n      iszero\n        /* \"#utility.yul\":9363:9446   */\n      or\n        /* \"#utility.yul\":9340:9479   */\n      tag_299\n      jumpi\n        /* \"#utility.yul\":9459:9477   */\n      tag_300\n      tag_179\n      jump\t// in\n    tag_300:\n        /* \"#utility.yul\":9340:9479   */\n    tag_299:\n        /* \"#utility.yul\":9124:9486   */\n      pop\n        /* \"#utility.yul\":9076:9486   */\n      swap3\n      swap2\n      pop\n      pop\n      jump\t// out\n        /* \"#utility.yul\":9492:9672   */\n    tag_180:\n        /* \"#utility.yul\":9540:9617   */\n      0x4e487b7100000000000000000000000000000000000000000000000000000000\n        /* \"#utility.yul\":9537:9538   */\n      0x00\n        /* \"#utility.yul\":9530:9618   */\n      mstore\n        /* \"#utility.yul\":9637:9641   */\n      0x12\n        /* \"#utility.yul\":9634:9635   */\n      0x04\n        /* \"#utility.yul\":9627:9642   */\n      mstore\n        /* \"#utility.yul\":9661:9665   */\n      0x24\n        /* \"#utility.yul\":9658:9659   */\n      0x00\n        /* \"#utility.yul\":9651:9666   */\n      revert\n        /* \"#utility.yul\":9678:9863   */\n    tag_88:\n        /* \"#utility.yul\":9718:9719   */\n      0x00\n        /* \"#utility.yul\":9735:9755   */\n      tag_303\n        /* \"#utility.yul\":9753:9754   */\n      dup3\n        /* \"#utility.yul\":9735:9755   */\n      tag_161\n      jump\t// in\n    tag_303:\n        /* \"#utility.yul\":9730:9755   */\n      swap2\n      pop\n        /* \"#utility.yul\":9769:9789   */\n      tag_304\n        /* \"#utility.yul\":9787:9788   */\n      dup4\n        /* \"#utility.yul\":9769:9789   */\n      tag_161\n      jump\t// in\n    tag_304:\n        /* \"#utility.yul\":9764:9789   */\n      swap3\n      pop\n        /* \"#utility.yul\":9808:9809   */\n      dup3\n        /* \"#utility.yul\":9798:9833   */\n      tag_305\n      jumpi\n        /* \"#utility.yul\":9813:9831   */\n      tag_306\n      tag_180\n      jump\t// in\n    tag_306:\n        /* \"#utility.yul\":9798:9833   */\n    tag_305:\n        /* \"#utility.yul\":9855:9856   */\n      dup3\n        /* \"#utility.yul\":9852:9853   */\n      dup3\n        /* \"#utility.yul\":9848:9857   */\n      div\n        /* \"#utility.yul\":9843:9857   */\n      swap1\n      pop\n        /* \"#utility.yul\":9678:9863   */\n      swap3\n      swap2\n      pop\n      pop\n      jump\t// out\n        /* \"#utility.yul\":9869:10201   */\n    tag_107:\n        /* \"#utility.yul\":9990:9994   */\n      0x00\n        /* \"#utility.yul\":10028:10030   */\n      0x40\n        /* \"#utility.yul\":10017:10026   */\n      dup3\n        /* \"#utility.yul\":10013:10031   */\n      add\n        /* \"#utility.yul\":10005:10031   */\n      swap1\n      pop\n        /* \"#utility.yul\":10041:10112   */\n      tag_308\n        /* \"#utility.yul\":10109:10110   */\n      0x00\n        /* \"#utility.yul\":10098:10107   */\n      dup4\n        /* \"#utility.yul\":10094:10111   */\n      add\n        /* \"#utility.yul\":10085:10091   */\n      dup6\n        /* \"#utility.yul\":10041:10112   */\n      tag_178\n      jump\t// in\n    tag_308:\n        /* \"#utility.yul\":10122:10194   */\n      tag_309\n        /* \"#utility.yul\":10190:10192   */\n      0x20\n        /* \"#utility.yul\":10179:10188   */\n      dup4\n        /* \"#utility.yul\":10175:10193   */\n      add\n        /* \"#utility.yul\":10166:10172   */\n      dup5\n        /* \"#utility.yul\":10122:10194   */\n      tag_162\n      jump\t// in\n    tag_309:\n        /* \"#utility.yul\":9869:10201   */\n      swap4\n      swap3\n      pop\n      pop\n      pop\n      jump\t// out\n        /* \"#utility.yul\":10207:10297   */\n    tag_181:\n        /* \"#utility.yul\":10241:10248   */\n      0x00\n        /* \"#utility.yul\":10284:10289   */\n      dup2\n        /* \"#utility.yul\":10277:10290   */\n      iszero\n        /* \"#utility.yul\":10270:10291   */\n      iszero\n        /* \"#utility.yul\":10259:10291   */\n      swap1\n      pop\n        /* \"#utility.yul\":10207:10297   */\n      swap2\n      swap1\n      pop\n      jump\t// out\n        /* \"#utility.yul\":10303:10419   */\n    tag_182:\n        /* \"#utility.yul\":10373:10394   */\n      tag_312\n        /* \"#utility.yul\":10388:10393   */\n      dup2\n        /* \"#utility.yul\":10373:10394   */\n      tag_181\n      jump\t// in\n    tag_312:\n        /* \"#utility.yul\":10366:10371   */\n      dup2\n        /* \"#utility.yul\":10363:10395   */\n      eq\n        /* \"#utility.yul\":10353:10413   */\n      tag_313\n      jumpi\n        /* \"#utility.yul\":10409:10410   */\n      0x00\n        /* \"#utility.yul\":10406:10407   */\n      dup1\n        /* \"#utility.yul\":10399:10411   */\n      revert\n        /* \"#utility.yul\":10353:10413   */\n    tag_313:\n        /* \"#utility.yul\":10303:10419   */\n      pop\n      jump\t// out\n        /* \"#utility.yul\":10425:10562   */\n    tag_183:\n        /* \"#utility.yul\":10479:10484   */\n      0x00\n        /* \"#utility.yul\":10510:10516   */\n      dup2\n        /* \"#utility.yul\":10504:10517   */\n      mload\n        /* \"#utility.yul\":10495:10517   */\n      swap1\n      pop\n        /* \"#utility.yul\":10526:10556   */\n      tag_315\n        /* \"#utility.yul\":10550:10555   */\n      dup2\n        /* \"#utility.yul\":10526:10556   */\n      tag_182\n      jump\t// in\n    tag_315:\n        /* \"#utility.yul\":10425:10562   */\n      swap3\n      swap2\n      pop\n      pop\n      jump\t// out\n        /* \"#utility.yul\":10568:10913   */\n    tag_111:\n        /* \"#utility.yul\":10635:10641   */\n      0x00\n        /* \"#utility.yul\":10684:10686   */\n      0x20\n        /* \"#utility.yul\":10672:10681   */\n      dup3\n        /* \"#utility.yul\":10663:10670   */\n      dup5\n        /* \"#utility.yul\":10659:10682   */\n      sub\n        /* \"#utility.yul\":10655:10687   */\n      slt\n        /* \"#utility.yul\":10652:10771   */\n      iszero\n      tag_317\n      jumpi\n        /* \"#utility.yul\":10690:10769   */\n      tag_318\n      tag_155\n      jump\t// in\n    tag_318:\n        /* \"#utility.yul\":10652:10771   */\n    tag_317:\n        /* \"#utility.yul\":10810:10811   */\n      0x00\n        /* \"#utility.yul\":10835:10896   */\n      tag_319\n        /* \"#utility.yul\":10888:10895   */\n      dup5\n        /* \"#utility.yul\":10879:10885   */\n      dup3\n        /* \"#utility.yul\":10868:10877   */\n      dup6\n        /* \"#utility.yul\":10864:10886   */\n      add\n        /* \"#utility.yul\":10835:10896   */\n      tag_183\n      jump\t// in\n    tag_319:\n        /* \"#utility.yul\":10825:10896   */\n      swap2\n      pop\n        /* \"#utility.yul\":10781:10906   */\n      pop\n        /* \"#utility.yul\":10568:10913   */\n      swap3\n      swap2\n      pop\n      pop\n      jump\t// out\n        /* \"#utility.yul\":10919:11088   */\n    tag_184:\n        /* \"#utility.yul\":11003:11014   */\n      0x00\n        /* \"#utility.yul\":11037:11043   */\n      dup3\n        /* \"#utility.yul\":11032:11035   */\n      dup3\n        /* \"#utility.yul\":11025:11044   */\n      mstore\n        /* \"#utility.yul\":11077:11081   */\n      0x20\n        /* \"#utility.yul\":11072:11075   */\n      dup3\n        /* \"#utility.yul\":11068:11082   */\n      add\n        /* \"#utility.yul\":11053:11082   */\n      swap1\n      pop\n        /* \"#utility.yul\":10919:11088   */\n      swap3\n      swap2\n      pop\n      pop\n      jump\t// out\n        /* \"#utility.yul\":11094:11272   */\n    tag_185:\n        /* \"#utility.yul\":11234:11264   */\n      0x52657475726e20746f6b656e207472616e73666572206661696c656400000000\n        /* \"#utility.yul\":11230:11231   */\n      0x00\n        /* \"#utility.yul\":11222:11228   */\n      dup3\n        /* \"#utility.yul\":11218:11232   */\n      add\n        /* \"#utility.yul\":11211:11265   */\n      mstore\n        /* \"#utility.yul\":11094:11272   */\n      pop\n      jump\t// out\n        /* \"#utility.yul\":11278:11644   */\n    tag_186:\n        /* \"#utility.yul\":11420:11423   */\n      0x00\n        /* \"#utility.yul\":11441:11508   */\n      tag_323\n        /* \"#utility.yul\":11505:11507   */\n      0x1c\n        /* \"#utility.yul\":11500:11503   */\n      dup4\n        /* \"#utility.yul\":11441:11508   */\n      tag_184\n      jump\t// in\n    tag_323:\n        /* \"#utility.yul\":11434:11508   */\n      swap2\n      pop\n        /* \"#utility.yul\":11517:11610   */\n      tag_324\n        /* \"#utility.yul\":11606:11609   */\n      dup3\n        /* \"#utility.yul\":11517:11610   */\n      tag_185\n      jump\t// in\n    tag_324:\n        /* \"#utility.yul\":11635:11637   */\n      0x20\n        /* \"#utility.yul\":11630:11633   */\n      dup3\n        /* \"#utility.yul\":11626:11638   */\n      add\n        /* \"#utility.yul\":11619:11638   */\n      swap1\n      pop\n        /* \"#utility.yul\":11278:11644   */\n      swap2\n      swap1\n      pop\n      jump\t// out\n        /* \"#utility.yul\":11650:12069   */\n    tag_114:\n        /* \"#utility.yul\":11816:11820   */\n      0x00\n        /* \"#utility.yul\":11854:11856   */\n      0x20\n        /* \"#utility.yul\":11843:11852   */\n      dup3\n        /* \"#utility.yul\":11839:11857   */\n      add\n        /* \"#utility.yul\":11831:11857   */\n      swap1\n      pop\n        /* \"#utility.yul\":11903:11912   */\n      dup2\n        /* \"#utility.yul\":11897:11901   */\n      dup2\n        /* \"#utility.yul\":11893:11913   */\n      sub\n        /* \"#utility.yul\":11889:11890   */\n      0x00\n        /* \"#utility.yul\":11878:11887   */\n      dup4\n        /* \"#utility.yul\":11874:11891   */\n      add\n        /* \"#utility.yul\":11867:11914   */\n      mstore\n        /* \"#utility.yul\":11931:12062   */\n      tag_326\n        /* \"#utility.yul\":12057:12061   */\n      dup2\n        /* \"#utility.yul\":11931:12062   */\n      tag_186\n      jump\t// in\n    tag_326:\n        /* \"#utility.yul\":11923:12062   */\n      swap1\n      pop\n        /* \"#utility.yul\":11650:12069   */\n      swap2\n      swap1\n      pop\n      jump\t// out\n        /* \"#utility.yul\":12075:12245   */\n    tag_187:\n        /* \"#utility.yul\":12215:12237   */\n      0x4e6f2072657475726e7320617661696c61626c65000000000000000000000000\n        /* \"#utility.yul\":12211:12212   */\n      0x00\n        /* \"#utility.yul\":12203:12209   */\n      dup3\n        /* \"#utility.yul\":12199:12213   */\n      add\n        /* \"#utility.yul\":12192:12238   */\n      mstore\n        /* \"#utility.yul\":12075:12245   */\n      pop\n      jump\t// out\n        /* \"#utility.yul\":12251:12617   */\n    tag_188:\n        /* \"#utility.yul\":12393:12396   */\n      0x00\n        /* \"#utility.yul\":12414:12481   */\n      tag_329\n        /* \"#utility.yul\":12478:12480   */\n      0x14\n        /* \"#utility.yul\":12473:12476   */\n      dup4\n        /* \"#utility.yul\":12414:12481   */\n      tag_184\n      jump\t// in\n    tag_329:\n        /* \"#utility.yul\":12407:12481   */\n      swap2\n      pop\n        /* \"#utility.yul\":12490:12583   */\n      tag_330\n        /* \"#utility.yul\":12579:12582   */\n      dup3\n        /* \"#utility.yul\":12490:12583   */\n      tag_187\n      jump\t// in\n    tag_330:\n        /* \"#utility.yul\":12608:12610   */\n      0x20\n        /* \"#utility.yul\":12603:12606   */\n      dup3\n        /* \"#utility.yul\":12599:12611   */\n      add\n        /* \"#utility.yul\":12592:12611   */\n      swap1\n      pop\n        /* \"#utility.yul\":12251:12617   */\n      swap2\n      swap1\n      pop\n      jump\t// out\n        /* \"#utility.yul\":12623:13042   */\n    tag_119:\n        /* \"#utility.yul\":12789:12793   */\n      0x00\n        /* \"#utility.yul\":12827:12829   */\n      0x20\n        /* \"#utility.yul\":12816:12825   */\n      dup3\n        /* \"#utility.yul\":12812:12830   */\n      add\n        /* \"#utility.yul\":12804:12830   */\n      swap1\n      pop\n        /* \"#utility.yul\":12876:12885   */\n      dup2\n        /* \"#utility.yul\":12870:12874   */\n      dup2\n        /* \"#utility.yul\":12866:12886   */\n      sub\n        /* \"#utility.yul\":12862:12863   */\n      0x00\n        /* \"#utility.yul\":12851:12860   */\n      dup4\n        /* \"#utility.yul\":12847:12864   */\n      add\n        /* \"#utility.yul\":12840:12887   */\n      mstore\n        /* \"#utility.yul\":12904:13035   */\n      tag_332\n        /* \"#utility.yul\":13030:13034   */\n      dup2\n        /* \"#utility.yul\":12904:13035   */\n      tag_188\n      jump\t// in\n    tag_332:\n        /* \"#utility.yul\":12896:13035   */\n      swap1\n      pop\n        /* \"#utility.yul\":12623:13042   */\n      swap2\n      swap1\n      pop\n      jump\t// out\n        /* \"#utility.yul\":13048:13230   */\n    tag_189:\n        /* \"#utility.yul\":13188:13222   */\n      0x416d6f756e74206d7573742062652067726561746572207468616e207a65726f\n        /* \"#utility.yul\":13184:13185   */\n      0x00\n        /* \"#utility.yul\":13176:13182   */\n      dup3\n        /* \"#utility.yul\":13172:13186   */\n      add\n        /* \"#utility.yul\":13165:13223   */\n      mstore\n        /* \"#utility.yul\":13048:13230   */\n      pop\n      jump\t// out\n        /* \"#utility.yul\":13236:13602   */\n    tag_190:\n        /* \"#utility.yul\":13378:13381   */\n      0x00\n        /* \"#utility.yul\":13399:13466   */\n      tag_335\n        /* \"#utility.yul\":13463:13465   */\n      0x20\n        /* \"#utility.yul\":13458:13461   */\n      dup4\n        /* \"#utility.yul\":13399:13466   */\n      tag_184\n      jump\t// in\n    tag_335:\n        /* \"#utility.yul\":13392:13466   */\n      swap2\n      pop\n        /* \"#utility.yul\":13475:13568   */\n      tag_336\n        /* \"#utility.yul\":13564:13567   */\n      dup3\n        /* \"#utility.yul\":13475:13568   */\n      tag_189\n      jump\t// in\n    tag_336:\n        /* \"#utility.yul\":13593:13595   */\n      0x20\n        /* \"#utility.yul\":13588:13591   */\n      dup3\n        /* \"#utility.yul\":13584:13596   */\n      add\n        /* \"#utility.yul\":13577:13596   */\n      swap1\n      pop\n        /* \"#utility.yul\":13236:13602   */\n      swap2\n      swap1\n      pop\n      jump\t// out\n        /* \"#utility.yul\":13608:14027   */\n    tag_127:\n        /* \"#utility.yul\":13774:13778   */\n      0x00\n        /* \"#utility.yul\":13812:13814   */\n      0x20\n        /* \"#utility.yul\":13801:13810   */\n      dup3\n        /* \"#utility.yul\":13797:13815   */\n      add\n        /* \"#utility.yul\":13789:13815   */\n      swap1\n      pop\n        /* \"#utility.yul\":13861:13870   */\n      dup2\n        /* \"#utility.yul\":13855:13859   */\n      dup2\n        /* \"#utility.yul\":13851:13871   */\n      sub\n        /* \"#utility.yul\":13847:13848   */\n      0x00\n        /* \"#utility.yul\":13836:13845   */\n      dup4\n        /* \"#utility.yul\":13832:13849   */\n      add\n        /* \"#utility.yul\":13825:13872   */\n      mstore\n        /* \"#utility.yul\":13889:14020   */\n      tag_338\n        /* \"#utility.yul\":14015:14019   */\n      dup2\n        /* \"#utility.yul\":13889:14020   */\n      tag_190\n      jump\t// in\n    tag_338:\n        /* \"#utility.yul\":13881:14020   */\n      swap1\n      pop\n        /* \"#utility.yul\":13608:14027   */\n      swap2\n      swap1\n      pop\n      jump\t// out\n        /* \"#utility.yul\":14033:14254   */\n    tag_191:\n        /* \"#utility.yul\":14173:14207   */\n      0x4475726174696f6e206d7573742062652067726561746572207468616e207a65\n        /* \"#utility.yul\":14169:14170   */\n      0x00\n        /* \"#utility.yul\":14161:14167   */\n      dup3\n        /* \"#utility.yul\":14157:14171   */\n      add\n        /* \"#utility.yul\":14150:14208   */\n      mstore\n        /* \"#utility.yul\":14242:14246   */\n      0x726f000000000000000000000000000000000000000000000000000000000000\n        /* \"#utility.yul\":14237:14239   */\n      0x20\n        /* \"#utility.yul\":14229:14235   */\n      dup3\n        /* \"#utility.yul\":14225:14240   */\n      add\n        /* \"#utility.yul\":14218:14247   */\n      mstore\n        /* \"#utility.yul\":14033:14254   */\n      pop\n      jump\t// out\n        /* \"#utility.yul\":14260:14626   */\n    tag_192:\n        /* \"#utility.yul\":14402:14405   */\n      0x00\n        /* \"#utility.yul\":14423:14490   */\n      tag_341\n        /* \"#utility.yul\":14487:14489   */\n      0x22\n        /* \"#utility.yul\":14482:14485   */\n      dup4\n        /* \"#utility.yul\":14423:14490   */\n      tag_184\n      jump\t// in\n    tag_341:\n        /* \"#utility.yul\":14416:14490   */\n      swap2\n      pop\n        /* \"#utility.yul\":14499:14592   */\n      tag_342\n        /* \"#utility.yul\":14588:14591   */\n      dup3\n        /* \"#utility.yul\":14499:14592   */\n      tag_191\n      jump\t// in\n    tag_342:\n        /* \"#utility.yul\":14617:14619   */\n      0x40\n        /* \"#utility.yul\":14612:14615   */\n      dup3\n        /* \"#utility.yul\":14608:14620   */\n      add\n        /* \"#utility.yul\":14601:14620   */\n      swap1\n      pop\n        /* \"#utility.yul\":14260:14626   */\n      swap2\n      swap1\n      pop\n      jump\t// out\n        /* \"#utility.yul\":14632:15051   */\n    tag_130:\n        /* \"#utility.yul\":14798:14802   */\n      0x00\n        /* \"#utility.yul\":14836:14838   */\n      0x20\n        /* \"#utility.yul\":14825:14834   */\n      dup3\n        /* \"#utility.yul\":14821:14839   */\n      add\n        /* \"#utility.yul\":14813:14839   */\n      swap1\n      pop\n        /* \"#utility.yul\":14885:14894   */\n      dup2\n        /* \"#utility.yul\":14879:14883   */\n      dup2\n        /* \"#utility.yul\":14875:14895   */\n      sub\n        /* \"#utility.yul\":14871:14872   */\n      0x00\n        /* \"#utility.yul\":14860:14869   */\n      dup4\n        /* \"#utility.yul\":14856:14873   */\n      add\n        /* \"#utility.yul\":14849:14896   */\n      mstore\n        /* \"#utility.yul\":14913:15044   */\n      tag_344\n        /* \"#utility.yul\":15039:15043   */\n      dup2\n        /* \"#utility.yul\":14913:15044   */\n      tag_192\n      jump\t// in\n    tag_344:\n        /* \"#utility.yul\":14905:15044   */\n      swap1\n      pop\n        /* \"#utility.yul\":14632:15051   */\n      swap2\n      swap1\n      pop\n      jump\t// out\n        /* \"#utility.yul\":15057:15499   */\n    tag_136:\n        /* \"#utility.yul\":15206:15210   */\n      0x00\n        /* \"#utility.yul\":15244:15246   */\n      0x60\n        /* \"#utility.yul\":15233:15242   */\n      dup3\n        /* \"#utility.yul\":15229:15247   */\n      add\n        /* \"#utility.yul\":15221:15247   */\n      swap1\n      pop\n        /* \"#utility.yul\":15257:15328   */\n      tag_346\n        /* \"#utility.yul\":15325:15326   */\n      0x00\n        /* \"#utility.yul\":15314:15323   */\n      dup4\n        /* \"#utility.yul\":15310:15327   */\n      add\n        /* \"#utility.yul\":15301:15307   */\n      dup7\n        /* \"#utility.yul\":15257:15328   */\n      tag_178\n      jump\t// in\n    tag_346:\n        /* \"#utility.yul\":15338:15410   */\n      tag_347\n        /* \"#utility.yul\":15406:15408   */\n      0x20\n        /* \"#utility.yul\":15395:15404   */\n      dup4\n        /* \"#utility.yul\":15391:15409   */\n      add\n        /* \"#utility.yul\":15382:15388   */\n      dup6\n        /* \"#utility.yul\":15338:15410   */\n      tag_178\n      jump\t// in\n    tag_347:\n        /* \"#utility.yul\":15420:15492   */\n      tag_348\n        /* \"#utility.yul\":15488:15490   */\n      0x40\n        /* \"#utility.yul\":15477:15486   */\n      dup4\n        /* \"#utility.yul\":15473:15491   */\n      add\n        /* \"#utility.yul\":15464:15470   */\n      dup5\n        /* \"#utility.yul\":15420:15492   */\n      tag_162\n      jump\t// in\n    tag_348:\n        /* \"#utility.yul\":15057:15499   */\n      swap5\n      swap4\n      pop\n      pop\n      pop\n      pop\n      jump\t// out\n        /* \"#utility.yul\":15505:15684   */\n    tag_193:\n        /* \"#utility.yul\":15645:15676   */\n      0x4465706f73697420746f6b656e207472616e73666572206661696c6564000000\n        /* \"#utility.yul\":15641:15642   */\n      0x00\n        /* \"#utility.yul\":15633:15639   */\n      dup3\n        /* \"#utility.yul\":15629:15643   */\n      add\n        /* \"#utility.yul\":15622:15677   */\n      mstore\n        /* \"#utility.yul\":15505:15684   */\n      pop\n      jump\t// out\n        /* \"#utility.yul\":15690:16056   */\n    tag_194:\n        /* \"#utility.yul\":15832:15835   */\n      0x00\n        /* \"#utility.yul\":15853:15920   */\n      tag_351\n        /* \"#utility.yul\":15917:15919   */\n      0x1d\n        /* \"#utility.yul\":15912:15915   */\n      dup4\n        /* \"#utility.yul\":15853:15920   */\n      tag_184\n      jump\t// in\n    tag_351:\n        /* \"#utility.yul\":15846:15920   */\n      swap2\n      pop\n        /* \"#utility.yul\":15929:16022   */\n      tag_352\n        /* \"#utility.yul\":16018:16021   */\n      dup3\n        /* \"#utility.yul\":15929:16022   */\n      tag_193\n      jump\t// in\n    tag_352:\n        /* \"#utility.yul\":16047:16049   */\n      0x20\n        /* \"#utility.yul\":16042:16045   */\n      dup3\n        /* \"#utility.yul\":16038:16050   */\n      add\n        /* \"#utility.yul\":16031:16050   */\n      swap1\n      pop\n        /* \"#utility.yul\":15690:16056   */\n      swap2\n      swap1\n      pop\n      jump\t// out\n        /* \"#utility.yul\":16062:16481   */\n    tag_142:\n        /* \"#utility.yul\":16228:16232   */\n      0x00\n        /* \"#utility.yul\":16266:16268   */\n      0x20\n        /* \"#utility.yul\":16255:16264   */\n      dup3\n        /* \"#utility.yul\":16251:16269   */\n      add\n        /* \"#utility.yul\":16243:16269   */\n      swap1\n      pop\n        /* \"#utility.yul\":16315:16324   */\n      dup2\n        /* \"#utility.yul\":16309:16313   */\n      dup2\n        /* \"#utility.yul\":16305:16325   */\n      sub\n        /* \"#utility.yul\":16301:16302   */\n      0x00\n        /* \"#utility.yul\":16290:16299   */\n      dup4\n        /* \"#utility.yul\":16286:16303   */\n      add\n        /* \"#utility.yul\":16279:16326   */\n      mstore\n        /* \"#utility.yul\":16343:16474   */\n      tag_354\n        /* \"#utility.yul\":16469:16473   */\n      dup2\n        /* \"#utility.yul\":16343:16474   */\n      tag_194\n      jump\t// in\n    tag_354:\n        /* \"#utility.yul\":16335:16474   */\n      swap1\n      pop\n        /* \"#utility.yul\":16062:16481   */\n      swap2\n      swap1\n      pop\n      jump\t// out\n        /* \"#utility.yul\":16487:16665   */\n    tag_195:\n        /* \"#utility.yul\":16627:16657   */\n      0x52657475726e20746f6b656e20617070726f76616c206661696c656400000000\n        /* \"#utility.yul\":16623:16624   */\n      0x00\n        /* \"#utility.yul\":16615:16621   */\n      dup3\n        /* \"#utility.yul\":16611:16625   */\n      add\n        /* \"#utility.yul\":16604:16658   */\n      mstore\n        /* \"#utility.yul\":16487:16665   */\n      pop\n      jump\t// out\n        /* \"#utility.yul\":16671:17037   */\n    tag_196:\n        /* \"#utility.yul\":16813:16816   */\n      0x00\n        /* \"#utility.yul\":16834:16901   */\n      tag_357\n        /* \"#utility.yul\":16898:16900   */\n      0x1c\n        /* \"#utility.yul\":16893:16896   */\n      dup4\n        /* \"#utility.yul\":16834:16901   */\n      tag_184\n      jump\t// in\n    tag_357:\n        /* \"#utility.yul\":16827:16901   */\n      swap2\n      pop\n        /* \"#utility.yul\":16910:17003   */\n      tag_358\n        /* \"#utility.yul\":16999:17002   */\n      dup3\n        /* \"#utility.yul\":16910:17003   */\n      tag_195\n      jump\t// in\n    tag_358:\n        /* \"#utility.yul\":17028:17030   */\n      0x20\n        /* \"#utility.yul\":17023:17026   */\n      dup3\n        /* \"#utility.yul\":17019:17031   */\n      add\n        /* \"#utility.yul\":17012:17031   */\n      swap1\n      pop\n        /* \"#utility.yul\":16671:17037   */\n      swap2\n      swap1\n      pop\n      jump\t// out\n        /* \"#utility.yul\":17043:17462   */\n    tag_149:\n        /* \"#utility.yul\":17209:17213   */\n      0x00\n        /* \"#utility.yul\":17247:17249   */\n      0x20\n        /* \"#utility.yul\":17236:17245   */\n      dup3\n        /* \"#utility.yul\":17232:17250   */\n      add\n        /* \"#utility.yul\":17224:17250   */\n      swap1\n      pop\n        /* \"#utility.yul\":17296:17305   */\n      dup2\n        /* \"#utility.yul\":17290:17294   */\n      dup2\n        /* \"#utility.yul\":17286:17306   */\n      sub\n        /* \"#utility.yul\":17282:17283   */\n      0x00\n        /* \"#utility.yul\":17271:17280   */\n      dup4\n        /* \"#utility.yul\":17267:17284   */\n      add\n        /* \"#utility.yul\":17260:17307   */\n      mstore\n        /* \"#utility.yul\":17324:17455   */\n      tag_360\n        /* \"#utility.yul\":17450:17454   */\n      dup2\n        /* \"#utility.yul\":17324:17455   */\n      tag_196\n      jump\t// in\n    tag_360:\n        /* \"#utility.yul\":17316:17455   */\n      swap1\n      pop\n        /* \"#utility.yul\":17043:17462   */\n      swap2\n      swap1\n      pop\n      jump\t// out\n        /* \"#utility.yul\":17468:17800   */\n    tag_153:\n        /* \"#utility.yul\":17589:17593   */\n      0x00\n        /* \"#utility.yul\":17627:17629   */\n      0x40\n        /* \"#utility.yul\":17616:17625   */\n      dup3\n        /* \"#utility.yul\":17612:17630   */\n      add\n        /* \"#utility.yul\":17604:17630   */\n      swap1\n      pop\n        /* \"#utility.yul\":17640:17711   */\n      tag_362\n        /* \"#utility.yul\":17708:17709   */\n      0x00\n        /* \"#utility.yul\":17697:17706   */\n      dup4\n        /* \"#utility.yul\":17693:17710   */\n      add\n        /* \"#utility.yul\":17684:17690   */\n      dup6\n        /* \"#utility.yul\":17640:17711   */\n      tag_162\n      jump\t// in\n    tag_362:\n        /* \"#utility.yul\":17721:17793   */\n      tag_363\n        /* \"#utility.yul\":17789:17791   */\n      0x20\n        /* \"#utility.yul\":17778:17787   */\n      dup4\n        /* \"#utility.yul\":17774:17792   */\n      add\n        /* \"#utility.yul\":17765:17771   */\n      dup5\n        /* \"#utility.yul\":17721:17793   */\n      tag_162\n      jump\t// in\n    tag_363:\n        /* \"#utility.yul\":17468:17800   */\n      swap4\n      swap3\n      pop\n      pop\n      pop\n      jump\t// out\n\n    auxdata: 0xa2646970667358221220657fe9df376f4dd1c95723d950a6ba0991416e4871bc74345fc2eb7eaa1ebd3e64736f6c63430008120033\n}\n",
				"bytecode": {
					"linkReferences": {},
					"object": "60806040523480156200001157600080fd5b506040516200170d3803806200170d8339818101604052810190620000379190620001ae565b306000806101000a81548173ffffffffffffffffffffffffffffffffffffffff021916908373ffffffffffffffffffffffffffffffffffffffff1602179055508260018190555081600260006101000a81548173ffffffffffffffffffffffffffffffffffffffff021916908373ffffffffffffffffffffffffffffffffffffffff16021790555080600360006101000a81548173ffffffffffffffffffffffffffffffffffffffff021916908373ffffffffffffffffffffffffffffffffffffffff1602179055505050506200020a565b600080fd5b6000819050919050565b62000123816200010e565b81146200012f57600080fd5b50565b600081519050620001438162000118565b92915050565b600073ffffffffffffffffffffffffffffffffffffffff82169050919050565b6000620001768262000149565b9050919050565b620001888162000169565b81146200019457600080fd5b50565b600081519050620001a8816200017d565b92915050565b600080600060608486031215620001ca57620001c962000109565b5b6000620001da8682870162000132565b9350506020620001ed8682870162000197565b9250506040620002008682870162000197565b9150509250925092565b6114f3806200021a6000396000f3fe608060405234801561001057600080fd5b506004361061009e5760003560e01c80637c3a00fd116100665780637c3a00fd14610170578063842e29811461018e5780638da5cb5b146101be578063b18e71f2146101dc578063c89039c5146101f85761009e565b806305dcd6f9146100a35780632e4a3657146100d357806351586847146100f1578063584b62a11461012157806364b065f714610154575b600080fd5b6100bd60048036038101906100b89190610c35565b610216565b6040516100ca9190610c7b565b60405180910390f35b6100db6102be565b6040516100e89190610cf5565b60405180910390f35b61010b60048036038101906101069190610c35565b6102e4565b6040516101189190610c7b565b60405180910390f35b61013b60048036038101906101369190610d3c565b61040b565b60405161014b9493929190610d7c565b60405180910390f35b61016e60048036038101906101699190610c35565b610458565b005b6101786106bd565b6040516101859190610c7b565b60405180910390f35b6101a860048036038101906101a39190610c35565b6106c3565b6040516101b59190610ed4565b60405180910390f35b6101c6610789565b6040516101d39190610f05565b60405180910390f35b6101f660048036038101906101f19190610f20565b6107ad565b005b610200610bac565b60405161020d9190610cf5565b60405180910390f35b600080600460008473ffffffffffffffffffffffffffffffffffffffff1673ffffffffffffffffffffffffffffffffffffffff1681526020019081526020016000209050600080600090505b82805490508110156102b35782818154811061028157610280610f60565b5b9060005260206000209060040201600001548261029e9190610fbe565b915080806102ab90610ff2565b915050610262565b508092505050919050565b600360009054906101000a900473ffffffffffffffffffffffffffffffffffffffff1681565b6000806000600460008573ffffffffffffffffffffffffffffffffffffffff1673ffffffffffffffffffffffffffffffffffffffff168152602001908152602001600020905060005b81805490508110156104005781818154811061034c5761034b610f60565b5b90600052602060002090600402016002015442106103ed576301e1432082828154811061037c5761037b610f60565b5b90600052602060002090600402016003015442610399919061103a565b6001548484815481106103af576103ae610f60565b5b9060005260206000209060040201600001546103cb919061106e565b6103d5919061106e565b6103df91906110df565b836103ea9190610fbe565b92505b80806103f890610ff2565b91505061032d565b508192505050919050565b6004602052816000526040600020818154811061042757600080fd5b9060005260206000209060040201600091509150508060000154908060010154908060020154908060030154905084565b600080600460008473ffffffffffffffffffffffffffffffffffffffff1673ffffffffffffffffffffffffffffffffffffffff168152602001908152602001600020905060005b81805490508110156106745760008282815481106104c0576104bf610f60565b5b90600052602060002090600402019050806002015442106106605760006301e143208260030154426104f2919061103a565b6001548460000154610504919061106e565b61050e919061106e565b61051891906110df565b905080856105269190610fbe565b9450428260030181905550600360009054906101000a900473ffffffffffffffffffffffffffffffffffffffff1673ffffffffffffffffffffffffffffffffffffffff1663a9059cbb33836040518363ffffffff1660e01b815260040161058e929190611110565b6020604051808303816000875af11580156105ad573d6000803e3d6000fd5b505050506040513d601f19601f820116820180604052508101906105d19190611171565b610610576040517f08c379a0000000000000000000000000000000000000000000000000000000008152600401610607906111fb565b60405180910390fd5b8573ffffffffffffffffffffffffffffffffffffffff167f47cee97cb7acd717b3c0aa1435d004cd5b3c8c57d70dbceb4e4458bbd60e39d4826040516106569190610c7b565b60405180910390a2505b50808061066c90610ff2565b91505061049f565b50600082116106b8576040517f08c379a00000000000000000000000000000000000000000000000000000000081526004016106af90611267565b60405180910390fd5b505050565b60015481565b6060600460008373ffffffffffffffffffffffffffffffffffffffff1673ffffffffffffffffffffffffffffffffffffffff168152602001908152602001600020805480602002602001604051908101604052809291908181526020016000905b8282101561077e578382906000526020600020906004020160405180608001604052908160008201548152602001600182015481526020016002820154815260200160038201548152505081526020019060010190610724565b505050509050919050565b60008054906101000a900473ffffffffffffffffffffffffffffffffffffffff1681565b600082116107f0576040517f08c379a00000000000000000000000000000000000000000000000000000000081526004016107e7906112d3565b60405180910390fd5b60008111610833576040517f08c379a000000000000000000000000000000000000000000000000000000000815260040161082a90611365565b60405180910390fd5b600260009054906101000a900473ffffffffffffffffffffffffffffffffffffffff1673ffffffffffffffffffffffffffffffffffffffff1663095ea7b330846040518363ffffffff1660e01b8152600401610890929190611110565b6020604051808303816000875af11580156108af573d6000803e3d6000fd5b505050506040513d601f19601f820116820180604052508101906108d39190611171565b50600260009054906101000a900473ffffffffffffffffffffffffffffffffffffffff1673ffffffffffffffffffffffffffffffffffffffff166323b872dd3330856040518463ffffffff1660e01b815260040161093393929190611385565b6020604051808303816000875af1158015610952573d6000803e3d6000fd5b505050506040513d601f19601f820116820180604052508101906109769190611171565b6109b5576040517f08c379a00000000000000000000000000000000000000000000000000000000081526004016109ac90611408565b60405180910390fd5b600360009054906101000a900473ffffffffffffffffffffffffffffffffffffffff1673ffffffffffffffffffffffffffffffffffffffff1663095ea7b330846040518363ffffffff1660e01b8152600401610a12929190611110565b6020604051808303816000875af1158015610a31573d6000803e3d6000fd5b505050506040513d601f19601f82011682018060405250810190610a559190611171565b610a94576040517f08c379a0000000000000000000000000000000000000000000000000000000008152600401610a8b90611474565b60405180910390fd5b600060405180608001604052808481526020014281526020018342610ab99190610fbe565b8152602001428152509050600460003373ffffffffffffffffffffffffffffffffffffffff1673ffffffffffffffffffffffffffffffffffffffff1681526020019081526020016000208190806001815401808255809150506001900390600052602060002090600402016000909190919091506000820151816000015560208201518160010155604082015181600201556060820151816003015550503373ffffffffffffffffffffffffffffffffffffffff167f90890809c654f11d6e72a28fa60149770a0d11ec6c92319d6ceb2bb0a4ea1a158484604051610b9f929190611494565b60405180910390a2505050565b600260009054906101000a900473ffffffffffffffffffffffffffffffffffffffff1681565b600080fd5b600073ffffffffffffffffffffffffffffffffffffffff82169050919050565b6000610c0282610bd7565b9050919050565b610c1281610bf7565b8114610c1d57600080fd5b50565b600081359050610c2f81610c09565b92915050565b600060208284031215610c4b57610c4a610bd2565b5b6000610c5984828501610c20565b91505092915050565b6000819050919050565b610c7581610c62565b82525050565b6000602082019050610c906000830184610c6c565b92915050565b6000819050919050565b6000610cbb610cb6610cb184610bd7565b610c96565b610bd7565b9050919050565b6000610ccd82610ca0565b9050919050565b6000610cdf82610cc2565b9050919050565b610cef81610cd4565b82525050565b6000602082019050610d0a6000830184610ce6565b92915050565b610d1981610c62565b8114610d2457600080fd5b50565b600081359050610d3681610d10565b92915050565b60008060408385031215610d5357610d52610bd2565b5b6000610d6185828601610c20565b9250506020610d7285828601610d27565b9150509250929050565b6000608082019050610d916000830187610c6c565b610d9e6020830186610c6c565b610dab6040830185610c6c565b610db86060830184610c6c565b95945050505050565b600081519050919050565b600082825260208201905092915050565b6000819050602082019050919050565b610df681610c62565b82525050565b608082016000820151610e126000850182610ded565b506020820151610e256020850182610ded565b506040820151610e386040850182610ded565b506060820151610e4b6060850182610ded565b50505050565b6000610e5d8383610dfc565b60808301905092915050565b6000602082019050919050565b6000610e8182610dc1565b610e8b8185610dcc565b9350610e9683610ddd565b8060005b83811015610ec7578151610eae8882610e51565b9750610eb983610e69565b925050600181019050610e9a565b5085935050505092915050565b60006020820190508181036000830152610eee8184610e76565b905092915050565b610eff81610bf7565b82525050565b6000602082019050610f1a6000830184610ef6565b92915050565b60008060408385031215610f3757610f36610bd2565b5b6000610f4585828601610d27565b9250506020610f5685828601610d27565b9150509250929050565b7f4e487b7100000000000000000000000000000000000000000000000000000000600052603260045260246000fd5b7f4e487b7100000000000000000000000000000000000000000000000000000000600052601160045260246000fd5b6000610fc982610c62565b9150610fd483610c62565b9250828201905080821115610fec57610feb610f8f565b5b92915050565b6000610ffd82610c62565b91507fffffffffffffffffffffffffffffffffffffffffffffffffffffffffffffffff820361102f5761102e610f8f565b5b600182019050919050565b600061104582610c62565b915061105083610c62565b925082820390508181111561106857611067610f8f565b5b92915050565b600061107982610c62565b915061108483610c62565b925082820261109281610c62565b915082820484148315176110a9576110a8610f8f565b5b5092915050565b7f4e487b7100000000000000000000000000000000000000000000000000000000600052601260045260246000fd5b60006110ea82610c62565b91506110f583610c62565b925082611105576111046110b0565b5b828204905092915050565b60006040820190506111256000830185610ef6565b6111326020830184610c6c565b9392505050565b60008115159050919050565b61114e81611139565b811461115957600080fd5b50565b60008151905061116b81611145565b92915050565b60006020828403121561118757611186610bd2565b5b60006111958482850161115c565b91505092915050565b600082825260208201905092915050565b7f52657475726e20746f6b656e207472616e73666572206661696c656400000000600082015250565b60006111e5601c8361119e565b91506111f0826111af565b602082019050919050565b60006020820190508181036000830152611214816111d8565b9050919050565b7f4e6f2072657475726e7320617661696c61626c65000000000000000000000000600082015250565b600061125160148361119e565b915061125c8261121b565b602082019050919050565b6000602082019050818103600083015261128081611244565b9050919050565b7f416d6f756e74206d7573742062652067726561746572207468616e207a65726f600082015250565b60006112bd60208361119e565b91506112c882611287565b602082019050919050565b600060208201905081810360008301526112ec816112b0565b9050919050565b7f4475726174696f6e206d7573742062652067726561746572207468616e207a6560008201527f726f000000000000000000000000000000000000000000000000000000000000602082015250565b600061134f60228361119e565b915061135a826112f3565b604082019050919050565b6000602082019050818103600083015261137e81611342565b9050919050565b600060608201905061139a6000830186610ef6565b6113a76020830185610ef6565b6113b46040830184610c6c565b949350505050565b7f4465706f73697420746f6b656e207472616e73666572206661696c6564000000600082015250565b60006113f2601d8361119e565b91506113fd826113bc565b602082019050919050565b60006020820190508181036000830152611421816113e5565b9050919050565b7f52657475726e20746f6b656e20617070726f76616c206661696c656400000000600082015250565b600061145e601c8361119e565b915061146982611428565b602082019050919050565b6000602082019050818103600083015261148d81611451565b9050919050565b60006040820190506114a96000830185610c6c565b6114b66020830184610c6c565b939250505056fea2646970667358221220657fe9df376f4dd1c95723d950a6ba0991416e4871bc74345fc2eb7eaa1ebd3e64736f6c63430008120033",
					"opcodes": "PUSH1 0x80 PUSH1 0x40 MSTORE CALLVALUE DUP1 ISZERO PUSH3 0x11 JUMPI PUSH1 0x0 DUP1 REVERT JUMPDEST POP PUSH1 0x40 MLOAD PUSH3 0x170D CODESIZE SUB DUP1 PUSH3 0x170D DUP4 CODECOPY DUP2 DUP2 ADD PUSH1 0x40 MSTORE DUP2 ADD SWAP1 PUSH3 0x37 SWAP2 SWAP1 PUSH3 0x1AE JUMP JUMPDEST ADDRESS PUSH1 0x0 DUP1 PUSH2 0x100 EXP DUP2 SLOAD DUP2 PUSH20 0xFFFFFFFFFFFFFFFFFFFFFFFFFFFFFFFFFFFFFFFF MUL NOT AND SWAP1 DUP4 PUSH20 0xFFFFFFFFFFFFFFFFFFFFFFFFFFFFFFFFFFFFFFFF AND MUL OR SWAP1 SSTORE POP DUP3 PUSH1 0x1 DUP2 SWAP1 SSTORE POP DUP2 PUSH1 0x2 PUSH1 0x0 PUSH2 0x100 EXP DUP2 SLOAD DUP2 PUSH20 0xFFFFFFFFFFFFFFFFFFFFFFFFFFFFFFFFFFFFFFFF MUL NOT AND SWAP1 DUP4 PUSH20 0xFFFFFFFFFFFFFFFFFFFFFFFFFFFFFFFFFFFFFFFF AND MUL OR SWAP1 SSTORE POP DUP1 PUSH1 0x3 PUSH1 0x0 PUSH2 0x100 EXP DUP2 SLOAD DUP2 PUSH20 0xFFFFFFFFFFFFFFFFFFFFFFFFFFFFFFFFFFFFFFFF MUL NOT AND SWAP1 DUP4 PUSH20 0xFFFFFFFFFFFFFFFFFFFFFFFFFFFFFFFFFFFFFFFF AND MUL OR SWAP1 SSTORE POP POP POP POP PUSH3 0x20A JUMP JUMPDEST PUSH1 0x0 DUP1 REVERT JUMPDEST PUSH1 0x0 DUP2 SWAP1 POP SWAP2 SWAP1 POP JUMP JUMPDEST PUSH3 0x123 DUP2 PUSH3 0x10E JUMP JUMPDEST DUP2 EQ PUSH3 0x12F JUMPI PUSH1 0x0 DUP1 REVERT JUMPDEST POP JUMP JUMPDEST PUSH1 0x0 DUP2 MLOAD SWAP1 POP PUSH3 0x143 DUP2 PUSH3 0x118 JUMP JUMPDEST SWAP3 SWAP2 POP POP JUMP JUMPDEST PUSH1 0x0 PUSH20 0xFFFFFFFFFFFFFFFFFFFFFFFFFFFFFFFFFFFFFFFF DUP3 AND SWAP1 POP SWAP2 SWAP1 POP JUMP JUMPDEST PUSH1 0x0 PUSH3 0x176 DUP3 PUSH3 0x149 JUMP JUMPDEST SWAP1 POP SWAP2 SWAP1 POP JUMP JUMPDEST PUSH3 0x188 DUP2 PUSH3 0x169 JUMP JUMPDEST DUP2 EQ PUSH3 0x194 JUMPI PUSH1 0x0 DUP1 REVERT JUMPDEST POP JUMP JUMPDEST PUSH1 0x0 DUP2 MLOAD SWAP1 POP PUSH3 0x1A8 DUP2 PUSH3 0x17D JUMP JUMPDEST SWAP3 SWAP2 POP POP JUMP JUMPDEST PUSH1 0x0 DUP1 PUSH1 0x0 PUSH1 0x60 DUP5 DUP7 SUB SLT ISZERO PUSH3 0x1CA JUMPI PUSH3 0x1C9 PUSH3 0x109 JUMP JUMPDEST JUMPDEST PUSH1 0x0 PUSH3 0x1DA DUP7 DUP3 DUP8 ADD PUSH3 0x132 JUMP JUMPDEST SWAP4 POP POP PUSH1 0x20 PUSH3 0x1ED DUP7 DUP3 DUP8 ADD PUSH3 0x197 JUMP JUMPDEST SWAP3 POP POP PUSH1 0x40 PUSH3 0x200 DUP7 DUP3 DUP8 ADD PUSH3 0x197 JUMP JUMPDEST SWAP2 POP POP SWAP3 POP SWAP3 POP SWAP3 JUMP JUMPDEST PUSH2 0x14F3 DUP1 PUSH3 0x21A PUSH1 0x0 CODECOPY PUSH1 0x0 RETURN INVALID PUSH1 0x80 PUSH1 0x40 MSTORE CALLVALUE DUP1 ISZERO PUSH2 0x10 JUMPI PUSH1 0x0 DUP1 REVERT JUMPDEST POP PUSH1 0x4 CALLDATASIZE LT PUSH2 0x9E JUMPI PUSH1 0x0 CALLDATALOAD PUSH1 0xE0 SHR DUP1 PUSH4 0x7C3A00FD GT PUSH2 0x66 JUMPI DUP1 PUSH4 0x7C3A00FD EQ PUSH2 0x170 JUMPI DUP1 PUSH4 0x842E2981 EQ PUSH2 0x18E JUMPI DUP1 PUSH4 0x8DA5CB5B EQ PUSH2 0x1BE JUMPI DUP1 PUSH4 0xB18E71F2 EQ PUSH2 0x1DC JUMPI DUP1 PUSH4 0xC89039C5 EQ PUSH2 0x1F8 JUMPI PUSH2 0x9E JUMP JUMPDEST DUP1 PUSH4 0x5DCD6F9 EQ PUSH2 0xA3 JUMPI DUP1 PUSH4 0x2E4A3657 EQ PUSH2 0xD3 JUMPI DUP1 PUSH4 0x51586847 EQ PUSH2 0xF1 JUMPI DUP1 PUSH4 0x584B62A1 EQ PUSH2 0x121 JUMPI DUP1 PUSH4 0x64B065F7 EQ PUSH2 0x154 JUMPI JUMPDEST PUSH1 0x0 DUP1 REVERT JUMPDEST PUSH2 0xBD PUSH1 0x4 DUP1 CALLDATASIZE SUB DUP2 ADD SWAP1 PUSH2 0xB8 SWAP2 SWAP1 PUSH2 0xC35 JUMP JUMPDEST PUSH2 0x216 JUMP JUMPDEST PUSH1 0x40 MLOAD PUSH2 0xCA SWAP2 SWAP1 PUSH2 0xC7B JUMP JUMPDEST PUSH1 0x40 MLOAD DUP1 SWAP2 SUB SWAP1 RETURN JUMPDEST PUSH2 0xDB PUSH2 0x2BE JUMP JUMPDEST PUSH1 0x40 MLOAD PUSH2 0xE8 SWAP2 SWAP1 PUSH2 0xCF5 JUMP JUMPDEST PUSH1 0x40 MLOAD DUP1 SWAP2 SUB SWAP1 RETURN JUMPDEST PUSH2 0x10B PUSH1 0x4 DUP1 CALLDATASIZE SUB DUP2 ADD SWAP1 PUSH2 0x106 SWAP2 SWAP1 PUSH2 0xC35 JUMP JUMPDEST PUSH2 0x2E4 JUMP JUMPDEST PUSH1 0x40 MLOAD PUSH2 0x118 SWAP2 SWAP1 PUSH2 0xC7B JUMP JUMPDEST PUSH1 0x40 MLOAD DUP1 SWAP2 SUB SWAP1 RETURN JUMPDEST PUSH2 0x13B PUSH1 0x4 DUP1 CALLDATASIZE SUB DUP2 ADD SWAP1 PUSH2 0x136 SWAP2 SWAP1 PUSH2 0xD3C JUMP JUMPDEST PUSH2 0x40B JUMP JUMPDEST PUSH1 0x40 MLOAD PUSH2 0x14B SWAP5 SWAP4 SWAP3 SWAP2 SWAP1 PUSH2 0xD7C JUMP JUMPDEST PUSH1 0x40 MLOAD DUP1 SWAP2 SUB SWAP1 RETURN JUMPDEST PUSH2 0x16E PUSH1 0x4 DUP1 CALLDATASIZE SUB DUP2 ADD SWAP1 PUSH2 0x169 SWAP2 SWAP1 PUSH2 0xC35 JUMP JUMPDEST PUSH2 0x458 JUMP JUMPDEST STOP JUMPDEST PUSH2 0x178 PUSH2 0x6BD JUMP JUMPDEST PUSH1 0x40 MLOAD PUSH2 0x185 SWAP2 SWAP1 PUSH2 0xC7B JUMP JUMPDEST PUSH1 0x40 MLOAD DUP1 SWAP2 SUB SWAP1 RETURN JUMPDEST PUSH2 0x1A8 PUSH1 0x4 DUP1 CALLDATASIZE SUB DUP2 ADD SWAP1 PUSH2 0x1A3 SWAP2 SWAP1 PUSH2 0xC35 JUMP JUMPDEST PUSH2 0x6C3 JUMP JUMPDEST PUSH1 0x40 MLOAD PUSH2 0x1B5 SWAP2 SWAP1 PUSH2 0xED4 JUMP JUMPDEST PUSH1 0x40 MLOAD DUP1 SWAP2 SUB SWAP1 RETURN JUMPDEST PUSH2 0x1C6 PUSH2 0x789 JUMP JUMPDEST PUSH1 0x40 MLOAD PUSH2 0x1D3 SWAP2 SWAP1 PUSH2 0xF05 JUMP JUMPDEST PUSH1 0x40 MLOAD DUP1 SWAP2 SUB SWAP1 RETURN JUMPDEST PUSH2 0x1F6 PUSH1 0x4 DUP1 CALLDATASIZE SUB DUP2 ADD SWAP1 PUSH2 0x1F1 SWAP2 SWAP1 PUSH2 0xF20 JUMP JUMPDEST PUSH2 0x7AD JUMP JUMPDEST STOP JUMPDEST PUSH2 0x200 PUSH2 0xBAC JUMP JUMPDEST PUSH1 0x40 MLOAD PUSH2 0x20D SWAP2 SWAP1 PUSH2 0xCF5 JUMP JUMPDEST PUSH1 0x40 MLOAD DUP1 SWAP2 SUB SWAP1 RETURN JUMPDEST PUSH1 0x0 DUP1 PUSH1 0x4 PUSH1 0x0 DUP5 PUSH20 0xFFFFFFFFFFFFFFFFFFFFFFFFFFFFFFFFFFFFFFFF AND PUSH20 0xFFFFFFFFFFFFFFFFFFFFFFFFFFFFFFFFFFFFFFFF AND DUP2 MSTORE PUSH1 0x20 ADD SWAP1 DUP2 MSTORE PUSH1 0x20 ADD PUSH1 0x0 KECCAK256 SWAP1 POP PUSH1 0x0 DUP1 PUSH1 0x0 SWAP1 POP JUMPDEST DUP3 DUP1 SLOAD SWAP1 POP DUP2 LT ISZERO PUSH2 0x2B3 JUMPI DUP3 DUP2 DUP2 SLOAD DUP2 LT PUSH2 0x281 JUMPI PUSH2 0x280 PUSH2 0xF60 JUMP JUMPDEST JUMPDEST SWAP1 PUSH1 0x0 MSTORE PUSH1 0x20 PUSH1 0x0 KECCAK256 SWAP1 PUSH1 0x4 MUL ADD PUSH1 0x0 ADD SLOAD DUP3 PUSH2 0x29E SWAP2 SWAP1 PUSH2 0xFBE JUMP JUMPDEST SWAP2 POP DUP1 DUP1 PUSH2 0x2AB SWAP1 PUSH2 0xFF2 JUMP JUMPDEST SWAP2 POP POP PUSH2 0x262 JUMP JUMPDEST POP DUP1 SWAP3 POP POP POP SWAP2 SWAP1 POP JUMP JUMPDEST PUSH1 0x3 PUSH1 0x0 SWAP1 SLOAD SWAP1 PUSH2 0x100 EXP SWAP1 DIV PUSH20 0xFFFFFFFFFFFFFFFFFFFFFFFFFFFFFFFFFFFFFFFF AND DUP2 JUMP JUMPDEST PUSH1 0x0 DUP1 PUSH1 0x0 PUSH1 0x4 PUSH1 0x0 DUP6 PUSH20 0xFFFFFFFFFFFFFFFFFFFFFFFFFFFFFFFFFFFFFFFF AND PUSH20 0xFFFFFFFFFFFFFFFFFFFFFFFFFFFFFFFFFFFFFFFF AND DUP2 MSTORE PUSH1 0x20 ADD SWAP1 DUP2 MSTORE PUSH1 0x20 ADD PUSH1 0x0 KECCAK256 SWAP1 POP PUSH1 0x0 JUMPDEST DUP2 DUP1 SLOAD SWAP1 POP DUP2 LT ISZERO PUSH2 0x400 JUMPI DUP2 DUP2 DUP2 SLOAD DUP2 LT PUSH2 0x34C JUMPI PUSH2 0x34B PUSH2 0xF60 JUMP JUMPDEST JUMPDEST SWAP1 PUSH1 0x0 MSTORE PUSH1 0x20 PUSH1 0x0 KECCAK256 SWAP1 PUSH1 0x4 MUL ADD PUSH1 0x2 ADD SLOAD TIMESTAMP LT PUSH2 0x3ED JUMPI PUSH4 0x1E14320 DUP3 DUP3 DUP2 SLOAD DUP2 LT PUSH2 0x37C JUMPI PUSH2 0x37B PUSH2 0xF60 JUMP JUMPDEST JUMPDEST SWAP1 PUSH1 0x0 MSTORE PUSH1 0x20 PUSH1 0x0 KECCAK256 SWAP1 PUSH1 0x4 MUL ADD PUSH1 0x3 ADD SLOAD TIMESTAMP PUSH2 0x399 SWAP2 SWAP1 PUSH2 0x103A JUMP JUMPDEST PUSH1 0x1 SLOAD DUP5 DUP5 DUP2 SLOAD DUP2 LT PUSH2 0x3AF JUMPI PUSH2 0x3AE PUSH2 0xF60 JUMP JUMPDEST JUMPDEST SWAP1 PUSH1 0x0 MSTORE PUSH1 0x20 PUSH1 0x0 KECCAK256 SWAP1 PUSH1 0x4 MUL ADD PUSH1 0x0 ADD SLOAD PUSH2 0x3CB SWAP2 SWAP1 PUSH2 0x106E JUMP JUMPDEST PUSH2 0x3D5 SWAP2 SWAP1 PUSH2 0x106E JUMP JUMPDEST PUSH2 0x3DF SWAP2 SWAP1 PUSH2 0x10DF JUMP JUMPDEST DUP4 PUSH2 0x3EA SWAP2 SWAP1 PUSH2 0xFBE JUMP JUMPDEST SWAP3 POP JUMPDEST DUP1 DUP1 PUSH2 0x3F8 SWAP1 PUSH2 0xFF2 JUMP JUMPDEST SWAP2 POP POP PUSH2 0x32D JUMP JUMPDEST POP DUP2 SWAP3 POP POP POP SWAP2 SWAP1 POP JUMP JUMPDEST PUSH1 0x4 PUSH1 0x20 MSTORE DUP2 PUSH1 0x0 MSTORE PUSH1 0x40 PUSH1 0x0 KECCAK256 DUP2 DUP2 SLOAD DUP2 LT PUSH2 0x427 JUMPI PUSH1 0x0 DUP1 REVERT JUMPDEST SWAP1 PUSH1 0x0 MSTORE PUSH1 0x20 PUSH1 0x0 KECCAK256 SWAP1 PUSH1 0x4 MUL ADD PUSH1 0x0 SWAP2 POP SWAP2 POP POP DUP1 PUSH1 0x0 ADD SLOAD SWAP1 DUP1 PUSH1 0x1 ADD SLOAD SWAP1 DUP1 PUSH1 0x2 ADD SLOAD SWAP1 DUP1 PUSH1 0x3 ADD SLOAD SWAP1 POP DUP5 JUMP JUMPDEST PUSH1 0x0 DUP1 PUSH1 0x4 PUSH1 0x0 DUP5 PUSH20 0xFFFFFFFFFFFFFFFFFFFFFFFFFFFFFFFFFFFFFFFF AND PUSH20 0xFFFFFFFFFFFFFFFFFFFFFFFFFFFFFFFFFFFFFFFF AND DUP2 MSTORE PUSH1 0x20 ADD SWAP1 DUP2 MSTORE PUSH1 0x20 ADD PUSH1 0x0 KECCAK256 SWAP1 POP PUSH1 0x0 JUMPDEST DUP2 DUP1 SLOAD SWAP1 POP DUP2 LT ISZERO PUSH2 0x674 JUMPI PUSH1 0x0 DUP3 DUP3 DUP2 SLOAD DUP2 LT PUSH2 0x4C0 JUMPI PUSH2 0x4BF PUSH2 0xF60 JUMP JUMPDEST JUMPDEST SWAP1 PUSH1 0x0 MSTORE PUSH1 0x20 PUSH1 0x0 KECCAK256 SWAP1 PUSH1 0x4 MUL ADD SWAP1 POP DUP1 PUSH1 0x2 ADD SLOAD TIMESTAMP LT PUSH2 0x660 JUMPI PUSH1 0x0 PUSH4 0x1E14320 DUP3 PUSH1 0x3 ADD SLOAD TIMESTAMP PUSH2 0x4F2 SWAP2 SWAP1 PUSH2 0x103A JUMP JUMPDEST PUSH1 0x1 SLOAD DUP5 PUSH1 0x0 ADD SLOAD PUSH2 0x504 SWAP2 SWAP1 PUSH2 0x106E JUMP JUMPDEST PUSH2 0x50E SWAP2 SWAP1 PUSH2 0x106E JUMP JUMPDEST PUSH2 0x518 SWAP2 SWAP1 PUSH2 0x10DF JUMP JUMPDEST SWAP1 POP DUP1 DUP6 PUSH2 0x526 SWAP2 SWAP1 PUSH2 0xFBE JUMP JUMPDEST SWAP5 POP TIMESTAMP DUP3 PUSH1 0x3 ADD DUP2 SWAP1 SSTORE POP PUSH1 0x3 PUSH1 0x0 SWAP1 SLOAD SWAP1 PUSH2 0x100 EXP SWAP1 DIV PUSH20 0xFFFFFFFFFFFFFFFFFFFFFFFFFFFFFFFFFFFFFFFF AND PUSH20 0xFFFFFFFFFFFFFFFFFFFFFFFFFFFFFFFFFFFFFFFF AND PUSH4 0xA9059CBB CALLER DUP4 PUSH1 0x40 MLOAD DUP4 PUSH4 0xFFFFFFFF AND PUSH1 0xE0 SHL DUP2 MSTORE PUSH1 0x4 ADD PUSH2 0x58E SWAP3 SWAP2 SWAP1 PUSH2 0x1110 JUMP JUMPDEST PUSH1 0x20 PUSH1 0x40 MLOAD DUP1 DUP4 SUB DUP2 PUSH1 0x0 DUP8 GAS CALL ISZERO DUP1 ISZERO PUSH2 0x5AD JUMPI RETURNDATASIZE PUSH1 0x0 DUP1 RETURNDATACOPY RETURNDATASIZE PUSH1 0x0 REVERT JUMPDEST POP POP POP POP PUSH1 0x40 MLOAD RETURNDATASIZE PUSH1 0x1F NOT PUSH1 0x1F DUP3 ADD AND DUP3 ADD DUP1 PUSH1 0x40 MSTORE POP DUP2 ADD SWAP1 PUSH2 0x5D1 SWAP2 SWAP1 PUSH2 0x1171 JUMP JUMPDEST PUSH2 0x610 JUMPI PUSH1 0x40 MLOAD PUSH32 0x8C379A000000000000000000000000000000000000000000000000000000000 DUP2 MSTORE PUSH1 0x4 ADD PUSH2 0x607 SWAP1 PUSH2 0x11FB JUMP JUMPDEST PUSH1 0x40 MLOAD DUP1 SWAP2 SUB SWAP1 REVERT JUMPDEST DUP6 PUSH20 0xFFFFFFFFFFFFFFFFFFFFFFFFFFFFFFFFFFFFFFFF AND PUSH32 0x47CEE97CB7ACD717B3C0AA1435D004CD5B3C8C57D70DBCEB4E4458BBD60E39D4 DUP3 PUSH1 0x40 MLOAD PUSH2 0x656 SWAP2 SWAP1 PUSH2 0xC7B JUMP JUMPDEST PUSH1 0x40 MLOAD DUP1 SWAP2 SUB SWAP1 LOG2 POP JUMPDEST POP DUP1 DUP1 PUSH2 0x66C SWAP1 PUSH2 0xFF2 JUMP JUMPDEST SWAP2 POP POP PUSH2 0x49F JUMP JUMPDEST POP PUSH1 0x0 DUP3 GT PUSH2 0x6B8 JUMPI PUSH1 0x40 MLOAD PUSH32 0x8C379A000000000000000000000000000000000000000000000000000000000 DUP2 MSTORE PUSH1 0x4 ADD PUSH2 0x6AF SWAP1 PUSH2 0x1267 JUMP JUMPDEST PUSH1 0x40 MLOAD DUP1 SWAP2 SUB SWAP1 REVERT JUMPDEST POP POP POP JUMP JUMPDEST PUSH1 0x1 SLOAD DUP2 JUMP JUMPDEST PUSH1 0x60 PUSH1 0x4 PUSH1 0x0 DUP4 PUSH20 0xFFFFFFFFFFFFFFFFFFFFFFFFFFFFFFFFFFFFFFFF AND PUSH20 0xFFFFFFFFFFFFFFFFFFFFFFFFFFFFFFFFFFFFFFFF AND DUP2 MSTORE PUSH1 0x20 ADD SWAP1 DUP2 MSTORE PUSH1 0x20 ADD PUSH1 0x0 KECCAK256 DUP1 SLOAD DUP1 PUSH1 0x20 MUL PUSH1 0x20 ADD PUSH1 0x40 MLOAD SWAP1 DUP2 ADD PUSH1 0x40 MSTORE DUP1 SWAP3 SWAP2 SWAP1 DUP2 DUP2 MSTORE PUSH1 0x20 ADD PUSH1 0x0 SWAP1 JUMPDEST DUP3 DUP3 LT ISZERO PUSH2 0x77E JUMPI DUP4 DUP3 SWAP1 PUSH1 0x0 MSTORE PUSH1 0x20 PUSH1 0x0 KECCAK256 SWAP1 PUSH1 0x4 MUL ADD PUSH1 0x40 MLOAD DUP1 PUSH1 0x80 ADD PUSH1 0x40 MSTORE SWAP1 DUP2 PUSH1 0x0 DUP3 ADD SLOAD DUP2 MSTORE PUSH1 0x20 ADD PUSH1 0x1 DUP3 ADD SLOAD DUP2 MSTORE PUSH1 0x20 ADD PUSH1 0x2 DUP3 ADD SLOAD DUP2 MSTORE PUSH1 0x20 ADD PUSH1 0x3 DUP3 ADD SLOAD DUP2 MSTORE POP POP DUP2 MSTORE PUSH1 0x20 ADD SWAP1 PUSH1 0x1 ADD SWAP1 PUSH2 0x724 JUMP JUMPDEST POP POP POP POP SWAP1 POP SWAP2 SWAP1 POP JUMP JUMPDEST PUSH1 0x0 DUP1 SLOAD SWAP1 PUSH2 0x100 EXP SWAP1 DIV PUSH20 0xFFFFFFFFFFFFFFFFFFFFFFFFFFFFFFFFFFFFFFFF AND DUP2 JUMP JUMPDEST PUSH1 0x0 DUP3 GT PUSH2 0x7F0 JUMPI PUSH1 0x40 MLOAD PUSH32 0x8C379A000000000000000000000000000000000000000000000000000000000 DUP2 MSTORE PUSH1 0x4 ADD PUSH2 0x7E7 SWAP1 PUSH2 0x12D3 JUMP JUMPDEST PUSH1 0x40 MLOAD DUP1 SWAP2 SUB SWAP1 REVERT JUMPDEST PUSH1 0x0 DUP2 GT PUSH2 0x833 JUMPI PUSH1 0x40 MLOAD PUSH32 0x8C379A000000000000000000000000000000000000000000000000000000000 DUP2 MSTORE PUSH1 0x4 ADD PUSH2 0x82A SWAP1 PUSH2 0x1365 JUMP JUMPDEST PUSH1 0x40 MLOAD DUP1 SWAP2 SUB SWAP1 REVERT JUMPDEST PUSH1 0x2 PUSH1 0x0 SWAP1 SLOAD SWAP1 PUSH2 0x100 EXP SWAP1 DIV PUSH20 0xFFFFFFFFFFFFFFFFFFFFFFFFFFFFFFFFFFFFFFFF AND PUSH20 0xFFFFFFFFFFFFFFFFFFFFFFFFFFFFFFFFFFFFFFFF AND PUSH4 0x95EA7B3 ADDRESS DUP5 PUSH1 0x40 MLOAD DUP4 PUSH4 0xFFFFFFFF AND PUSH1 0xE0 SHL DUP2 MSTORE PUSH1 0x4 ADD PUSH2 0x890 SWAP3 SWAP2 SWAP1 PUSH2 0x1110 JUMP JUMPDEST PUSH1 0x20 PUSH1 0x40 MLOAD DUP1 DUP4 SUB DUP2 PUSH1 0x0 DUP8 GAS CALL ISZERO DUP1 ISZERO PUSH2 0x8AF JUMPI RETURNDATASIZE PUSH1 0x0 DUP1 RETURNDATACOPY RETURNDATASIZE PUSH1 0x0 REVERT JUMPDEST POP POP POP POP PUSH1 0x40 MLOAD RETURNDATASIZE PUSH1 0x1F NOT PUSH1 0x1F DUP3 ADD AND DUP3 ADD DUP1 PUSH1 0x40 MSTORE POP DUP2 ADD SWAP1 PUSH2 0x8D3 SWAP2 SWAP1 PUSH2 0x1171 JUMP JUMPDEST POP PUSH1 0x2 PUSH1 0x0 SWAP1 SLOAD SWAP1 PUSH2 0x100 EXP SWAP1 DIV PUSH20 0xFFFFFFFFFFFFFFFFFFFFFFFFFFFFFFFFFFFFFFFF AND PUSH20 0xFFFFFFFFFFFFFFFFFFFFFFFFFFFFFFFFFFFFFFFF AND PUSH4 0x23B872DD CALLER ADDRESS DUP6 PUSH1 0x40 MLOAD DUP5 PUSH4 0xFFFFFFFF AND PUSH1 0xE0 SHL DUP2 MSTORE PUSH1 0x4 ADD PUSH2 0x933 SWAP4 SWAP3 SWAP2 SWAP1 PUSH2 0x1385 JUMP JUMPDEST PUSH1 0x20 PUSH1 0x40 MLOAD DUP1 DUP4 SUB DUP2 PUSH1 0x0 DUP8 GAS CALL ISZERO DUP1 ISZERO PUSH2 0x952 JUMPI RETURNDATASIZE PUSH1 0x0 DUP1 RETURNDATACOPY RETURNDATASIZE PUSH1 0x0 REVERT JUMPDEST POP POP POP POP PUSH1 0x40 MLOAD RETURNDATASIZE PUSH1 0x1F NOT PUSH1 0x1F DUP3 ADD AND DUP3 ADD DUP1 PUSH1 0x40 MSTORE POP DUP2 ADD SWAP1 PUSH2 0x976 SWAP2 SWAP1 PUSH2 0x1171 JUMP JUMPDEST PUSH2 0x9B5 JUMPI PUSH1 0x40 MLOAD PUSH32 0x8C379A000000000000000000000000000000000000000000000000000000000 DUP2 MSTORE PUSH1 0x4 ADD PUSH2 0x9AC SWAP1 PUSH2 0x1408 JUMP JUMPDEST PUSH1 0x40 MLOAD DUP1 SWAP2 SUB SWAP1 REVERT JUMPDEST PUSH1 0x3 PUSH1 0x0 SWAP1 SLOAD SWAP1 PUSH2 0x100 EXP SWAP1 DIV PUSH20 0xFFFFFFFFFFFFFFFFFFFFFFFFFFFFFFFFFFFFFFFF AND PUSH20 0xFFFFFFFFFFFFFFFFFFFFFFFFFFFFFFFFFFFFFFFF AND PUSH4 0x95EA7B3 ADDRESS DUP5 PUSH1 0x40 MLOAD DUP4 PUSH4 0xFFFFFFFF AND PUSH1 0xE0 SHL DUP2 MSTORE PUSH1 0x4 ADD PUSH2 0xA12 SWAP3 SWAP2 SWAP1 PUSH2 0x1110 JUMP JUMPDEST PUSH1 0x20 PUSH1 0x40 MLOAD DUP1 DUP4 SUB DUP2 PUSH1 0x0 DUP8 GAS CALL ISZERO DUP1 ISZERO PUSH2 0xA31 JUMPI RETURNDATASIZE PUSH1 0x0 DUP1 RETURNDATACOPY RETURNDATASIZE PUSH1 0x0 REVERT JUMPDEST POP POP POP POP PUSH1 0x40 MLOAD RETURNDATASIZE PUSH1 0x1F NOT PUSH1 0x1F DUP3 ADD AND DUP3 ADD DUP1 PUSH1 0x40 MSTORE POP DUP2 ADD SWAP1 PUSH2 0xA55 SWAP2 SWAP1 PUSH2 0x1171 JUMP JUMPDEST PUSH2 0xA94 JUMPI PUSH1 0x40 MLOAD PUSH32 0x8C379A000000000000000000000000000000000000000000000000000000000 DUP2 MSTORE PUSH1 0x4 ADD PUSH2 0xA8B SWAP1 PUSH2 0x1474 JUMP JUMPDEST PUSH1 0x40 MLOAD DUP1 SWAP2 SUB SWAP1 REVERT JUMPDEST PUSH1 0x0 PUSH1 0x40 MLOAD DUP1 PUSH1 0x80 ADD PUSH1 0x40 MSTORE DUP1 DUP5 DUP2 MSTORE PUSH1 0x20 ADD TIMESTAMP DUP2 MSTORE PUSH1 0x20 ADD DUP4 TIMESTAMP PUSH2 0xAB9 SWAP2 SWAP1 PUSH2 0xFBE JUMP JUMPDEST DUP2 MSTORE PUSH1 0x20 ADD TIMESTAMP DUP2 MSTORE POP SWAP1 POP PUSH1 0x4 PUSH1 0x0 CALLER PUSH20 0xFFFFFFFFFFFFFFFFFFFFFFFFFFFFFFFFFFFFFFFF AND PUSH20 0xFFFFFFFFFFFFFFFFFFFFFFFFFFFFFFFFFFFFFFFF AND DUP2 MSTORE PUSH1 0x20 ADD SWAP1 DUP2 MSTORE PUSH1 0x20 ADD PUSH1 0x0 KECCAK256 DUP2 SWAP1 DUP1 PUSH1 0x1 DUP2 SLOAD ADD DUP1 DUP3 SSTORE DUP1 SWAP2 POP POP PUSH1 0x1 SWAP1 SUB SWAP1 PUSH1 0x0 MSTORE PUSH1 0x20 PUSH1 0x0 KECCAK256 SWAP1 PUSH1 0x4 MUL ADD PUSH1 0x0 SWAP1 SWAP2 SWAP1 SWAP2 SWAP1 SWAP2 POP PUSH1 0x0 DUP3 ADD MLOAD DUP2 PUSH1 0x0 ADD SSTORE PUSH1 0x20 DUP3 ADD MLOAD DUP2 PUSH1 0x1 ADD SSTORE PUSH1 0x40 DUP3 ADD MLOAD DUP2 PUSH1 0x2 ADD SSTORE PUSH1 0x60 DUP3 ADD MLOAD DUP2 PUSH1 0x3 ADD SSTORE POP POP CALLER PUSH20 0xFFFFFFFFFFFFFFFFFFFFFFFFFFFFFFFFFFFFFFFF AND PUSH32 0x90890809C654F11D6E72A28FA60149770A0D11EC6C92319D6CEB2BB0A4EA1A15 DUP5 DUP5 PUSH1 0x40 MLOAD PUSH2 0xB9F SWAP3 SWAP2 SWAP1 PUSH2 0x1494 JUMP JUMPDEST PUSH1 0x40 MLOAD DUP1 SWAP2 SUB SWAP1 LOG2 POP POP POP JUMP JUMPDEST PUSH1 0x2 PUSH1 0x0 SWAP1 SLOAD SWAP1 PUSH2 0x100 EXP SWAP1 DIV PUSH20 0xFFFFFFFFFFFFFFFFFFFFFFFFFFFFFFFFFFFFFFFF AND DUP2 JUMP JUMPDEST PUSH1 0x0 DUP1 REVERT JUMPDEST PUSH1 0x0 PUSH20 0xFFFFFFFFFFFFFFFFFFFFFFFFFFFFFFFFFFFFFFFF DUP3 AND SWAP1 POP SWAP2 SWAP1 POP JUMP JUMPDEST PUSH1 0x0 PUSH2 0xC02 DUP3 PUSH2 0xBD7 JUMP JUMPDEST SWAP1 POP SWAP2 SWAP1 POP JUMP JUMPDEST PUSH2 0xC12 DUP2 PUSH2 0xBF7 JUMP JUMPDEST DUP2 EQ PUSH2 0xC1D JUMPI PUSH1 0x0 DUP1 REVERT JUMPDEST POP JUMP JUMPDEST PUSH1 0x0 DUP2 CALLDATALOAD SWAP1 POP PUSH2 0xC2F DUP2 PUSH2 0xC09 JUMP JUMPDEST SWAP3 SWAP2 POP POP JUMP JUMPDEST PUSH1 0x0 PUSH1 0x20 DUP3 DUP5 SUB SLT ISZERO PUSH2 0xC4B JUMPI PUSH2 0xC4A PUSH2 0xBD2 JUMP JUMPDEST JUMPDEST PUSH1 0x0 PUSH2 0xC59 DUP5 DUP3 DUP6 ADD PUSH2 0xC20 JUMP JUMPDEST SWAP2 POP POP SWAP3 SWAP2 POP POP JUMP JUMPDEST PUSH1 0x0 DUP2 SWAP1 POP SWAP2 SWAP1 POP JUMP JUMPDEST PUSH2 0xC75 DUP2 PUSH2 0xC62 JUMP JUMPDEST DUP3 MSTORE POP POP JUMP JUMPDEST PUSH1 0x0 PUSH1 0x20 DUP3 ADD SWAP1 POP PUSH2 0xC90 PUSH1 0x0 DUP4 ADD DUP5 PUSH2 0xC6C JUMP JUMPDEST SWAP3 SWAP2 POP POP JUMP JUMPDEST PUSH1 0x0 DUP2 SWAP1 POP SWAP2 SWAP1 POP JUMP JUMPDEST PUSH1 0x0 PUSH2 0xCBB PUSH2 0xCB6 PUSH2 0xCB1 DUP5 PUSH2 0xBD7 JUMP JUMPDEST PUSH2 0xC96 JUMP JUMPDEST PUSH2 0xBD7 JUMP JUMPDEST SWAP1 POP SWAP2 SWAP1 POP JUMP JUMPDEST PUSH1 0x0 PUSH2 0xCCD DUP3 PUSH2 0xCA0 JUMP JUMPDEST SWAP1 POP SWAP2 SWAP1 POP JUMP JUMPDEST PUSH1 0x0 PUSH2 0xCDF DUP3 PUSH2 0xCC2 JUMP JUMPDEST SWAP1 POP SWAP2 SWAP1 POP JUMP JUMPDEST PUSH2 0xCEF DUP2 PUSH2 0xCD4 JUMP JUMPDEST DUP3 MSTORE POP POP JUMP JUMPDEST PUSH1 0x0 PUSH1 0x20 DUP3 ADD SWAP1 POP PUSH2 0xD0A PUSH1 0x0 DUP4 ADD DUP5 PUSH2 0xCE6 JUMP JUMPDEST SWAP3 SWAP2 POP POP JUMP JUMPDEST PUSH2 0xD19 DUP2 PUSH2 0xC62 JUMP JUMPDEST DUP2 EQ PUSH2 0xD24 JUMPI PUSH1 0x0 DUP1 REVERT JUMPDEST POP JUMP JUMPDEST PUSH1 0x0 DUP2 CALLDATALOAD SWAP1 POP PUSH2 0xD36 DUP2 PUSH2 0xD10 JUMP JUMPDEST SWAP3 SWAP2 POP POP JUMP JUMPDEST PUSH1 0x0 DUP1 PUSH1 0x40 DUP4 DUP6 SUB SLT ISZERO PUSH2 0xD53 JUMPI PUSH2 0xD52 PUSH2 0xBD2 JUMP JUMPDEST JUMPDEST PUSH1 0x0 PUSH2 0xD61 DUP6 DUP3 DUP7 ADD PUSH2 0xC20 JUMP JUMPDEST SWAP3 POP POP PUSH1 0x20 PUSH2 0xD72 DUP6 DUP3 DUP7 ADD PUSH2 0xD27 JUMP JUMPDEST SWAP2 POP POP SWAP3 POP SWAP3 SWAP1 POP JUMP JUMPDEST PUSH1 0x0 PUSH1 0x80 DUP3 ADD SWAP1 POP PUSH2 0xD91 PUSH1 0x0 DUP4 ADD DUP8 PUSH2 0xC6C JUMP JUMPDEST PUSH2 0xD9E PUSH1 0x20 DUP4 ADD DUP7 PUSH2 0xC6C JUMP JUMPDEST PUSH2 0xDAB PUSH1 0x40 DUP4 ADD DUP6 PUSH2 0xC6C JUMP JUMPDEST PUSH2 0xDB8 PUSH1 0x60 DUP4 ADD DUP5 PUSH2 0xC6C JUMP JUMPDEST SWAP6 SWAP5 POP POP POP POP POP JUMP JUMPDEST PUSH1 0x0 DUP2 MLOAD SWAP1 POP SWAP2 SWAP1 POP JUMP JUMPDEST PUSH1 0x0 DUP3 DUP3 MSTORE PUSH1 0x20 DUP3 ADD SWAP1 POP SWAP3 SWAP2 POP POP JUMP JUMPDEST PUSH1 0x0 DUP2 SWAP1 POP PUSH1 0x20 DUP3 ADD SWAP1 POP SWAP2 SWAP1 POP JUMP JUMPDEST PUSH2 0xDF6 DUP2 PUSH2 0xC62 JUMP JUMPDEST DUP3 MSTORE POP POP JUMP JUMPDEST PUSH1 0x80 DUP3 ADD PUSH1 0x0 DUP3 ADD MLOAD PUSH2 0xE12 PUSH1 0x0 DUP6 ADD DUP3 PUSH2 0xDED JUMP JUMPDEST POP PUSH1 0x20 DUP3 ADD MLOAD PUSH2 0xE25 PUSH1 0x20 DUP6 ADD DUP3 PUSH2 0xDED JUMP JUMPDEST POP PUSH1 0x40 DUP3 ADD MLOAD PUSH2 0xE38 PUSH1 0x40 DUP6 ADD DUP3 PUSH2 0xDED JUMP JUMPDEST POP PUSH1 0x60 DUP3 ADD MLOAD PUSH2 0xE4B PUSH1 0x60 DUP6 ADD DUP3 PUSH2 0xDED JUMP JUMPDEST POP POP POP POP JUMP JUMPDEST PUSH1 0x0 PUSH2 0xE5D DUP4 DUP4 PUSH2 0xDFC JUMP JUMPDEST PUSH1 0x80 DUP4 ADD SWAP1 POP SWAP3 SWAP2 POP POP JUMP JUMPDEST PUSH1 0x0 PUSH1 0x20 DUP3 ADD SWAP1 POP SWAP2 SWAP1 POP JUMP JUMPDEST PUSH1 0x0 PUSH2 0xE81 DUP3 PUSH2 0xDC1 JUMP JUMPDEST PUSH2 0xE8B DUP2 DUP6 PUSH2 0xDCC JUMP JUMPDEST SWAP4 POP PUSH2 0xE96 DUP4 PUSH2 0xDDD JUMP JUMPDEST DUP1 PUSH1 0x0 JUMPDEST DUP4 DUP2 LT ISZERO PUSH2 0xEC7 JUMPI DUP2 MLOAD PUSH2 0xEAE DUP9 DUP3 PUSH2 0xE51 JUMP JUMPDEST SWAP8 POP PUSH2 0xEB9 DUP4 PUSH2 0xE69 JUMP JUMPDEST SWAP3 POP POP PUSH1 0x1 DUP2 ADD SWAP1 POP PUSH2 0xE9A JUMP JUMPDEST POP DUP6 SWAP4 POP POP POP POP SWAP3 SWAP2 POP POP JUMP JUMPDEST PUSH1 0x0 PUSH1 0x20 DUP3 ADD SWAP1 POP DUP2 DUP2 SUB PUSH1 0x0 DUP4 ADD MSTORE PUSH2 0xEEE DUP2 DUP5 PUSH2 0xE76 JUMP JUMPDEST SWAP1 POP SWAP3 SWAP2 POP POP JUMP JUMPDEST PUSH2 0xEFF DUP2 PUSH2 0xBF7 JUMP JUMPDEST DUP3 MSTORE POP POP JUMP JUMPDEST PUSH1 0x0 PUSH1 0x20 DUP3 ADD SWAP1 POP PUSH2 0xF1A PUSH1 0x0 DUP4 ADD DUP5 PUSH2 0xEF6 JUMP JUMPDEST SWAP3 SWAP2 POP POP JUMP JUMPDEST PUSH1 0x0 DUP1 PUSH1 0x40 DUP4 DUP6 SUB SLT ISZERO PUSH2 0xF37 JUMPI PUSH2 0xF36 PUSH2 0xBD2 JUMP JUMPDEST JUMPDEST PUSH1 0x0 PUSH2 0xF45 DUP6 DUP3 DUP7 ADD PUSH2 0xD27 JUMP JUMPDEST SWAP3 POP POP PUSH1 0x20 PUSH2 0xF56 DUP6 DUP3 DUP7 ADD PUSH2 0xD27 JUMP JUMPDEST SWAP2 POP POP SWAP3 POP SWAP3 SWAP1 POP JUMP JUMPDEST PUSH32 0x4E487B7100000000000000000000000000000000000000000000000000000000 PUSH1 0x0 MSTORE PUSH1 0x32 PUSH1 0x4 MSTORE PUSH1 0x24 PUSH1 0x0 REVERT JUMPDEST PUSH32 0x4E487B7100000000000000000000000000000000000000000000000000000000 PUSH1 0x0 MSTORE PUSH1 0x11 PUSH1 0x4 MSTORE PUSH1 0x24 PUSH1 0x0 REVERT JUMPDEST PUSH1 0x0 PUSH2 0xFC9 DUP3 PUSH2 0xC62 JUMP JUMPDEST SWAP2 POP PUSH2 0xFD4 DUP4 PUSH2 0xC62 JUMP JUMPDEST SWAP3 POP DUP3 DUP3 ADD SWAP1 POP DUP1 DUP3 GT ISZERO PUSH2 0xFEC JUMPI PUSH2 0xFEB PUSH2 0xF8F JUMP JUMPDEST JUMPDEST SWAP3 SWAP2 POP POP JUMP JUMPDEST PUSH1 0x0 PUSH2 0xFFD DUP3 PUSH2 0xC62 JUMP JUMPDEST SWAP2 POP PUSH32 0xFFFFFFFFFFFFFFFFFFFFFFFFFFFFFFFFFFFFFFFFFFFFFFFFFFFFFFFFFFFFFFFF DUP3 SUB PUSH2 0x102F JUMPI PUSH2 0x102E PUSH2 0xF8F JUMP JUMPDEST JUMPDEST PUSH1 0x1 DUP3 ADD SWAP1 POP SWAP2 SWAP1 POP JUMP JUMPDEST PUSH1 0x0 PUSH2 0x1045 DUP3 PUSH2 0xC62 JUMP JUMPDEST SWAP2 POP PUSH2 0x1050 DUP4 PUSH2 0xC62 JUMP JUMPDEST SWAP3 POP DUP3 DUP3 SUB SWAP1 POP DUP2 DUP2 GT ISZERO PUSH2 0x1068 JUMPI PUSH2 0x1067 PUSH2 0xF8F JUMP JUMPDEST JUMPDEST SWAP3 SWAP2 POP POP JUMP JUMPDEST PUSH1 0x0 PUSH2 0x1079 DUP3 PUSH2 0xC62 JUMP JUMPDEST SWAP2 POP PUSH2 0x1084 DUP4 PUSH2 0xC62 JUMP JUMPDEST SWAP3 POP DUP3 DUP3 MUL PUSH2 0x1092 DUP2 PUSH2 0xC62 JUMP JUMPDEST SWAP2 POP DUP3 DUP3 DIV DUP5 EQ DUP4 ISZERO OR PUSH2 0x10A9 JUMPI PUSH2 0x10A8 PUSH2 0xF8F JUMP JUMPDEST JUMPDEST POP SWAP3 SWAP2 POP POP JUMP JUMPDEST PUSH32 0x4E487B7100000000000000000000000000000000000000000000000000000000 PUSH1 0x0 MSTORE PUSH1 0x12 PUSH1 0x4 MSTORE PUSH1 0x24 PUSH1 0x0 REVERT JUMPDEST PUSH1 0x0 PUSH2 0x10EA DUP3 PUSH2 0xC62 JUMP JUMPDEST SWAP2 POP PUSH2 0x10F5 DUP4 PUSH2 0xC62 JUMP JUMPDEST SWAP3 POP DUP3 PUSH2 0x1105 JUMPI PUSH2 0x1104 PUSH2 0x10B0 JUMP JUMPDEST JUMPDEST DUP3 DUP3 DIV SWAP1 POP SWAP3 SWAP2 POP POP JUMP JUMPDEST PUSH1 0x0 PUSH1 0x40 DUP3 ADD SWAP1 POP PUSH2 0x1125 PUSH1 0x0 DUP4 ADD DUP6 PUSH2 0xEF6 JUMP JUMPDEST PUSH2 0x1132 PUSH1 0x20 DUP4 ADD DUP5 PUSH2 0xC6C JUMP JUMPDEST SWAP4 SWAP3 POP POP POP JUMP JUMPDEST PUSH1 0x0 DUP2 ISZERO ISZERO SWAP1 POP SWAP2 SWAP1 POP JUMP JUMPDEST PUSH2 0x114E DUP2 PUSH2 0x1139 JUMP JUMPDEST DUP2 EQ PUSH2 0x1159 JUMPI PUSH1 0x0 DUP1 REVERT JUMPDEST POP JUMP JUMPDEST PUSH1 0x0 DUP2 MLOAD SWAP1 POP PUSH2 0x116B DUP2 PUSH2 0x1145 JUMP JUMPDEST SWAP3 SWAP2 POP POP JUMP JUMPDEST PUSH1 0x0 PUSH1 0x20 DUP3 DUP5 SUB SLT ISZERO PUSH2 0x1187 JUMPI PUSH2 0x1186 PUSH2 0xBD2 JUMP JUMPDEST JUMPDEST PUSH1 0x0 PUSH2 0x1195 DUP5 DUP3 DUP6 ADD PUSH2 0x115C JUMP JUMPDEST SWAP2 POP POP SWAP3 SWAP2 POP POP JUMP JUMPDEST PUSH1 0x0 DUP3 DUP3 MSTORE PUSH1 0x20 DUP3 ADD SWAP1 POP SWAP3 SWAP2 POP POP JUMP JUMPDEST PUSH32 0x52657475726E20746F6B656E207472616E73666572206661696C656400000000 PUSH1 0x0 DUP3 ADD MSTORE POP JUMP JUMPDEST PUSH1 0x0 PUSH2 0x11E5 PUSH1 0x1C DUP4 PUSH2 0x119E JUMP JUMPDEST SWAP2 POP PUSH2 0x11F0 DUP3 PUSH2 0x11AF JUMP JUMPDEST PUSH1 0x20 DUP3 ADD SWAP1 POP SWAP2 SWAP1 POP JUMP JUMPDEST PUSH1 0x0 PUSH1 0x20 DUP3 ADD SWAP1 POP DUP2 DUP2 SUB PUSH1 0x0 DUP4 ADD MSTORE PUSH2 0x1214 DUP2 PUSH2 0x11D8 JUMP JUMPDEST SWAP1 POP SWAP2 SWAP1 POP JUMP JUMPDEST PUSH32 0x4E6F2072657475726E7320617661696C61626C65000000000000000000000000 PUSH1 0x0 DUP3 ADD MSTORE POP JUMP JUMPDEST PUSH1 0x0 PUSH2 0x1251 PUSH1 0x14 DUP4 PUSH2 0x119E JUMP JUMPDEST SWAP2 POP PUSH2 0x125C DUP3 PUSH2 0x121B JUMP JUMPDEST PUSH1 0x20 DUP3 ADD SWAP1 POP SWAP2 SWAP1 POP JUMP JUMPDEST PUSH1 0x0 PUSH1 0x20 DUP3 ADD SWAP1 POP DUP2 DUP2 SUB PUSH1 0x0 DUP4 ADD MSTORE PUSH2 0x1280 DUP2 PUSH2 0x1244 JUMP JUMPDEST SWAP1 POP SWAP2 SWAP1 POP JUMP JUMPDEST PUSH32 0x416D6F756E74206D7573742062652067726561746572207468616E207A65726F PUSH1 0x0 DUP3 ADD MSTORE POP JUMP JUMPDEST PUSH1 0x0 PUSH2 0x12BD PUSH1 0x20 DUP4 PUSH2 0x119E JUMP JUMPDEST SWAP2 POP PUSH2 0x12C8 DUP3 PUSH2 0x1287 JUMP JUMPDEST PUSH1 0x20 DUP3 ADD SWAP1 POP SWAP2 SWAP1 POP JUMP JUMPDEST PUSH1 0x0 PUSH1 0x20 DUP3 ADD SWAP1 POP DUP2 DUP2 SUB PUSH1 0x0 DUP4 ADD MSTORE PUSH2 0x12EC DUP2 PUSH2 0x12B0 JUMP JUMPDEST SWAP1 POP SWAP2 SWAP1 POP JUMP JUMPDEST PUSH32 0x4475726174696F6E206D7573742062652067726561746572207468616E207A65 PUSH1 0x0 DUP3 ADD MSTORE PUSH32 0x726F000000000000000000000000000000000000000000000000000000000000 PUSH1 0x20 DUP3 ADD MSTORE POP JUMP JUMPDEST PUSH1 0x0 PUSH2 0x134F PUSH1 0x22 DUP4 PUSH2 0x119E JUMP JUMPDEST SWAP2 POP PUSH2 0x135A DUP3 PUSH2 0x12F3 JUMP JUMPDEST PUSH1 0x40 DUP3 ADD SWAP1 POP SWAP2 SWAP1 POP JUMP JUMPDEST PUSH1 0x0 PUSH1 0x20 DUP3 ADD SWAP1 POP DUP2 DUP2 SUB PUSH1 0x0 DUP4 ADD MSTORE PUSH2 0x137E DUP2 PUSH2 0x1342 JUMP JUMPDEST SWAP1 POP SWAP2 SWAP1 POP JUMP JUMPDEST PUSH1 0x0 PUSH1 0x60 DUP3 ADD SWAP1 POP PUSH2 0x139A PUSH1 0x0 DUP4 ADD DUP7 PUSH2 0xEF6 JUMP JUMPDEST PUSH2 0x13A7 PUSH1 0x20 DUP4 ADD DUP6 PUSH2 0xEF6 JUMP JUMPDEST PUSH2 0x13B4 PUSH1 0x40 DUP4 ADD DUP5 PUSH2 0xC6C JUMP JUMPDEST SWAP5 SWAP4 POP POP POP POP JUMP JUMPDEST PUSH32 0x4465706F73697420746F6B656E207472616E73666572206661696C6564000000 PUSH1 0x0 DUP3 ADD MSTORE POP JUMP JUMPDEST PUSH1 0x0 PUSH2 0x13F2 PUSH1 0x1D DUP4 PUSH2 0x119E JUMP JUMPDEST SWAP2 POP PUSH2 0x13FD DUP3 PUSH2 0x13BC JUMP JUMPDEST PUSH1 0x20 DUP3 ADD SWAP1 POP SWAP2 SWAP1 POP JUMP JUMPDEST PUSH1 0x0 PUSH1 0x20 DUP3 ADD SWAP1 POP DUP2 DUP2 SUB PUSH1 0x0 DUP4 ADD MSTORE PUSH2 0x1421 DUP2 PUSH2 0x13E5 JUMP JUMPDEST SWAP1 POP SWAP2 SWAP1 POP JUMP JUMPDEST PUSH32 0x52657475726E20746F6B656E20617070726F76616C206661696C656400000000 PUSH1 0x0 DUP3 ADD MSTORE POP JUMP JUMPDEST PUSH1 0x0 PUSH2 0x145E PUSH1 0x1C DUP4 PUSH2 0x119E JUMP JUMPDEST SWAP2 POP PUSH2 0x1469 DUP3 PUSH2 0x1428 JUMP JUMPDEST PUSH1 0x20 DUP3 ADD SWAP1 POP SWAP2 SWAP1 POP JUMP JUMPDEST PUSH1 0x0 PUSH1 0x20 DUP3 ADD SWAP1 POP DUP2 DUP2 SUB PUSH1 0x0 DUP4 ADD MSTORE PUSH2 0x148D DUP2 PUSH2 0x1451 JUMP JUMPDEST SWAP1 POP SWAP2 SWAP1 POP JUMP JUMPDEST PUSH1 0x0 PUSH1 0x40 DUP3 ADD SWAP1 POP PUSH2 0x14A9 PUSH1 0x0 DUP4 ADD DUP6 PUSH2 0xC6C JUMP JUMPDEST PUSH2 0x14B6 PUSH1 0x20 DUP4 ADD DUP5 PUSH2 0xC6C JUMP JUMPDEST SWAP4 SWAP3 POP POP POP JUMP INVALID LOG2 PUSH5 0x6970667358 0x22 SLT KECCAK256 PUSH6 0x7FE9DF376F4D 0xD1 0xC9 JUMPI 0x23 0xD9 POP 0xA6 0xBA MULMOD SWAP2 COINBASE PUSH15 0x4871BC74345FC2EB7EAA1EBD3E6473 PUSH16 0x6C634300081200330000000000000000 "
				},
				"gasEstimates": {
					"creation": {
						"codeDepositCost": "1072600",
						"executionCost": "infinite",
						"totalCost": "infinite"
					},
					"external": {
						"createDeposit(uint256,uint256)": "infinite",
						"depositToken()": "infinite",
						"getReturns(address)": "infinite",
						"getTotalReturns(address)": "infinite",
						"getTotalStakes(address)": "infinite",
						"getUserStakes(address)": "infinite",
						"interestRate()": "2429",
						"owner()": "2555",
						"returnToken()": "infinite",
						"stakes(address,uint256)": "infinite"
					}
				},
				"methodIdentifiers": {
					"createDeposit(uint256,uint256)": "b18e71f2",
					"depositToken()": "c89039c5",
					"getReturns(address)": "64b065f7",
					"getTotalReturns(address)": "51586847",
					"getTotalStakes(address)": "05dcd6f9",
					"getUserStakes(address)": "842e2981",
					"interestRate()": "7c3a00fd",
					"owner()": "8da5cb5b",
					"returnToken()": "2e4a3657",
					"stakes(address,uint256)": "584b62a1"
				}
			},
			"storageLayout": {
				"storage": [
					{
						"astId": 82,
						"contract": "TimeLockStakingDAPP/src/contracts/StakingContract.sol:StakingContract",
						"label": "owner",
						"offset": 0,
						"slot": "0",
						"type": "t_address"
					},
					{
						"astId": 84,
						"contract": "TimeLockStakingDAPP/src/contracts/StakingContract.sol:StakingContract",
						"label": "interestRate",
						"offset": 0,
						"slot": "1",
						"type": "t_uint256"
					},
					{
						"astId": 87,
						"contract": "TimeLockStakingDAPP/src/contracts/StakingContract.sol:StakingContract",
						"label": "depositToken",
						"offset": 0,
						"slot": "2",
						"type": "t_contract(IERC20)77"
					},
					{
						"astId": 90,
						"contract": "TimeLockStakingDAPP/src/contracts/StakingContract.sol:StakingContract",
						"label": "returnToken",
						"offset": 0,
						"slot": "3",
						"type": "t_contract(IERC20)77"
					},
					{
						"astId": 108,
						"contract": "TimeLockStakingDAPP/src/contracts/StakingContract.sol:StakingContract",
						"label": "stakes",
						"offset": 0,
						"slot": "4",
						"type": "t_mapping(t_address,t_array(t_struct(Stake)99_storage)dyn_storage)"
					}
				],
				"types": {
					"t_address": {
						"encoding": "inplace",
						"label": "address",
						"numberOfBytes": "20"
					},
					"t_array(t_struct(Stake)99_storage)dyn_storage": {
						"base": "t_struct(Stake)99_storage",
						"encoding": "dynamic_array",
						"label": "struct StakingContract.Stake[]",
						"numberOfBytes": "32"
					},
					"t_contract(IERC20)77": {
						"encoding": "inplace",
						"label": "contract IERC20",
						"numberOfBytes": "20"
					},
					"t_mapping(t_address,t_array(t_struct(Stake)99_storage)dyn_storage)": {
						"encoding": "mapping",
						"key": "t_address",
						"label": "mapping(address => struct StakingContract.Stake[])",
						"numberOfBytes": "32",
						"value": "t_array(t_struct(Stake)99_storage)dyn_storage"
					},
					"t_struct(Stake)99_storage": {
						"encoding": "inplace",
						"label": "struct StakingContract.Stake",
						"members": [
							{
								"astId": 92,
								"contract": "TimeLockStakingDAPP/src/contracts/StakingContract.sol:StakingContract",
								"label": "amount",
								"offset": 0,
								"slot": "0",
								"type": "t_uint256"
							},
							{
								"astId": 94,
								"contract": "TimeLockStakingDAPP/src/contracts/StakingContract.sol:StakingContract",
								"label": "startTime",
								"offset": 0,
								"slot": "1",
								"type": "t_uint256"
							},
							{
								"astId": 96,
								"contract": "TimeLockStakingDAPP/src/contracts/StakingContract.sol:StakingContract",
								"label": "endTime",
								"offset": 0,
								"slot": "2",
								"type": "t_uint256"
							},
							{
								"astId": 98,
								"contract": "TimeLockStakingDAPP/src/contracts/StakingContract.sol:StakingContract",
								"label": "lastClaimTime",
								"offset": 0,
								"slot": "3",
								"type": "t_uint256"
							}
						],
						"numberOfBytes": "128"
					},
					"t_uint256": {
						"encoding": "inplace",
						"label": "uint256",
						"numberOfBytes": "32"
					}
				}
			},
			"userdoc": {
				"kind": "user",
				"methods": {},
				"version": 1
			}
		}
	}
}